{"abi":[{"type":"constructor","inputs":[{"name":"_poolManager","type":"address","internalType":"contract ICLPoolManager"},{"name":"_brevisRequest","type":"address","internalType":"address"}],"stateMutability":"nonpayable"},{"type":"function","name":"afterAddLiquidity","inputs":[{"name":"","type":"address","internalType":"address"},{"name":"","type":"tuple","internalType":"struct PoolKey","components":[{"name":"currency0","type":"address","internalType":"Currency"},{"name":"currency1","type":"address","internalType":"Currency"},{"name":"hooks","type":"address","internalType":"contract IHooks"},{"name":"poolManager","type":"address","internalType":"contract IPoolManager"},{"name":"fee","type":"uint24","internalType":"uint24"},{"name":"parameters","type":"bytes32","internalType":"bytes32"}]},{"name":"","type":"tuple","internalType":"struct ICLPoolManager.ModifyLiquidityParams","components":[{"name":"tickLower","type":"int24","internalType":"int24"},{"name":"tickUpper","type":"int24","internalType":"int24"},{"name":"liquidityDelta","type":"int256","internalType":"int256"},{"name":"salt","type":"bytes32","internalType":"bytes32"}]},{"name":"","type":"int256","internalType":"BalanceDelta"},{"name":"","type":"int256","internalType":"BalanceDelta"},{"name":"","type":"bytes","internalType":"bytes"}],"outputs":[{"name":"","type":"bytes4","internalType":"bytes4"},{"name":"","type":"int256","internalType":"BalanceDelta"}],"stateMutability":"pure"},{"type":"function","name":"afterDonate","inputs":[{"name":"","type":"address","internalType":"address"},{"name":"","type":"tuple","internalType":"struct PoolKey","components":[{"name":"currency0","type":"address","internalType":"Currency"},{"name":"currency1","type":"address","internalType":"Currency"},{"name":"hooks","type":"address","internalType":"contract IHooks"},{"name":"poolManager","type":"address","internalType":"contract IPoolManager"},{"name":"fee","type":"uint24","internalType":"uint24"},{"name":"parameters","type":"bytes32","internalType":"bytes32"}]},{"name":"","type":"uint256","internalType":"uint256"},{"name":"","type":"uint256","internalType":"uint256"},{"name":"","type":"bytes","internalType":"bytes"}],"outputs":[{"name":"","type":"bytes4","internalType":"bytes4"}],"stateMutability":"nonpayable"},{"type":"function","name":"afterInitialize","inputs":[{"name":"","type":"address","internalType":"address"},{"name":"","type":"tuple","internalType":"struct PoolKey","components":[{"name":"currency0","type":"address","internalType":"Currency"},{"name":"currency1","type":"address","internalType":"Currency"},{"name":"hooks","type":"address","internalType":"contract IHooks"},{"name":"poolManager","type":"address","internalType":"contract IPoolManager"},{"name":"fee","type":"uint24","internalType":"uint24"},{"name":"parameters","type":"bytes32","internalType":"bytes32"}]},{"name":"","type":"uint160","internalType":"uint160"},{"name":"","type":"int24","internalType":"int24"},{"name":"","type":"bytes","internalType":"bytes"}],"outputs":[{"name":"","type":"bytes4","internalType":"bytes4"}],"stateMutability":"nonpayable"},{"type":"function","name":"afterRemoveLiquidity","inputs":[{"name":"","type":"address","internalType":"address"},{"name":"","type":"tuple","internalType":"struct PoolKey","components":[{"name":"currency0","type":"address","internalType":"Currency"},{"name":"currency1","type":"address","internalType":"Currency"},{"name":"hooks","type":"address","internalType":"contract IHooks"},{"name":"poolManager","type":"address","internalType":"contract IPoolManager"},{"name":"fee","type":"uint24","internalType":"uint24"},{"name":"parameters","type":"bytes32","internalType":"bytes32"}]},{"name":"","type":"tuple","internalType":"struct ICLPoolManager.ModifyLiquidityParams","components":[{"name":"tickLower","type":"int24","internalType":"int24"},{"name":"tickUpper","type":"int24","internalType":"int24"},{"name":"liquidityDelta","type":"int256","internalType":"int256"},{"name":"salt","type":"bytes32","internalType":"bytes32"}]},{"name":"","type":"int256","internalType":"BalanceDelta"},{"name":"","type":"int256","internalType":"BalanceDelta"},{"name":"","type":"bytes","internalType":"bytes"}],"outputs":[{"name":"","type":"bytes4","internalType":"bytes4"},{"name":"","type":"int256","internalType":"BalanceDelta"}],"stateMutability":"nonpayable"},{"type":"function","name":"afterSwap","inputs":[{"name":"","type":"address","internalType":"address"},{"name":"","type":"tuple","internalType":"struct PoolKey","components":[{"name":"currency0","type":"address","internalType":"Currency"},{"name":"currency1","type":"address","internalType":"Currency"},{"name":"hooks","type":"address","internalType":"contract IHooks"},{"name":"poolManager","type":"address","internalType":"contract IPoolManager"},{"name":"fee","type":"uint24","internalType":"uint24"},{"name":"parameters","type":"bytes32","internalType":"bytes32"}]},{"name":"","type":"tuple","internalType":"struct ICLPoolManager.SwapParams","components":[{"name":"zeroForOne","type":"bool","internalType":"bool"},{"name":"amountSpecified","type":"int256","internalType":"int256"},{"name":"sqrtPriceLimitX96","type":"uint160","internalType":"uint160"}]},{"name":"","type":"int256","internalType":"BalanceDelta"},{"name":"","type":"bytes","internalType":"bytes"}],"outputs":[{"name":"","type":"bytes4","internalType":"bytes4"},{"name":"","type":"int128","internalType":"int128"}],"stateMutability":"nonpayable"},{"type":"function","name":"applyBrevisOpResult","inputs":[{"name":"_proofId","type":"bytes32","internalType":"bytes32"},{"name":"_nonce","type":"uint64","internalType":"uint64"},{"name":"_appVkHash","type":"bytes32","internalType":"bytes32"},{"name":"_appCommitHash","type":"bytes32","internalType":"bytes32"},{"name":"_appCircuitOutput","type":"bytes","internalType":"bytes"}],"outputs":[],"stateMutability":"nonpayable"},{"type":"function","name":"applyBrevisOpResults","inputs":[{"name":"_proofIds","type":"bytes32[]","internalType":"bytes32[]"},{"name":"_nonces","type":"uint64[]","internalType":"uint64[]"},{"name":"_appVkHashes","type":"bytes32[]","internalType":"bytes32[]"},{"name":"_appCommitHashes","type":"bytes32[]","internalType":"bytes32[]"},{"name":"_appCircuitOutputs","type":"bytes[]","internalType":"bytes[]"}],"outputs":[],"stateMutability":"nonpayable"},{"type":"function","name":"beforeAddLiquidity","inputs":[{"name":"","type":"address","internalType":"address"},{"name":"","type":"tuple","internalType":"struct PoolKey","components":[{"name":"currency0","type":"address","internalType":"Currency"},{"name":"currency1","type":"address","internalType":"Currency"},{"name":"hooks","type":"address","internalType":"contract IHooks"},{"name":"poolManager","type":"address","internalType":"contract IPoolManager"},{"name":"fee","type":"uint24","internalType":"uint24"},{"name":"parameters","type":"bytes32","internalType":"bytes32"}]},{"name":"","type":"tuple","internalType":"struct ICLPoolManager.ModifyLiquidityParams","components":[{"name":"tickLower","type":"int24","internalType":"int24"},{"name":"tickUpper","type":"int24","internalType":"int24"},{"name":"liquidityDelta","type":"int256","internalType":"int256"},{"name":"salt","type":"bytes32","internalType":"bytes32"}]},{"name":"","type":"bytes","internalType":"bytes"}],"outputs":[{"name":"","type":"bytes4","internalType":"bytes4"}],"stateMutability":"nonpayable"},{"type":"function","name":"beforeDonate","inputs":[{"name":"","type":"address","internalType":"address"},{"name":"","type":"tuple","internalType":"struct PoolKey","components":[{"name":"currency0","type":"address","internalType":"Currency"},{"name":"currency1","type":"address","internalType":"Currency"},{"name":"hooks","type":"address","internalType":"contract IHooks"},{"name":"poolManager","type":"address","internalType":"contract IPoolManager"},{"name":"fee","type":"uint24","internalType":"uint24"},{"name":"parameters","type":"bytes32","internalType":"bytes32"}]},{"name":"","type":"uint256","internalType":"uint256"},{"name":"","type":"uint256","internalType":"uint256"},{"name":"","type":"bytes","internalType":"bytes"}],"outputs":[{"name":"","type":"bytes4","internalType":"bytes4"}],"stateMutability":"nonpayable"},{"type":"function","name":"beforeInitialize","inputs":[{"name":"","type":"address","internalType":"address"},{"name":"","type":"tuple","internalType":"struct PoolKey","components":[{"name":"currency0","type":"address","internalType":"Currency"},{"name":"currency1","type":"address","internalType":"Currency"},{"name":"hooks","type":"address","internalType":"contract IHooks"},{"name":"poolManager","type":"address","internalType":"contract IPoolManager"},{"name":"fee","type":"uint24","internalType":"uint24"},{"name":"parameters","type":"bytes32","internalType":"bytes32"}]},{"name":"","type":"uint160","internalType":"uint160"},{"name":"","type":"bytes","internalType":"bytes"}],"outputs":[{"name":"","type":"bytes4","internalType":"bytes4"}],"stateMutability":"nonpayable"},{"type":"function","name":"beforeRemoveLiquidity","inputs":[{"name":"","type":"address","internalType":"address"},{"name":"","type":"tuple","internalType":"struct PoolKey","components":[{"name":"currency0","type":"address","internalType":"Currency"},{"name":"currency1","type":"address","internalType":"Currency"},{"name":"hooks","type":"address","internalType":"contract IHooks"},{"name":"poolManager","type":"address","internalType":"contract IPoolManager"},{"name":"fee","type":"uint24","internalType":"uint24"},{"name":"parameters","type":"bytes32","internalType":"bytes32"}]},{"name":"","type":"tuple","internalType":"struct ICLPoolManager.ModifyLiquidityParams","components":[{"name":"tickLower","type":"int24","internalType":"int24"},{"name":"tickUpper","type":"int24","internalType":"int24"},{"name":"liquidityDelta","type":"int256","internalType":"int256"},{"name":"salt","type":"bytes32","internalType":"bytes32"}]},{"name":"","type":"bytes","internalType":"bytes"}],"outputs":[{"name":"","type":"bytes4","internalType":"bytes4"}],"stateMutability":"pure"},{"type":"function","name":"beforeSwap","inputs":[{"name":"","type":"address","internalType":"address"},{"name":"","type":"tuple","internalType":"struct PoolKey","components":[{"name":"currency0","type":"address","internalType":"Currency"},{"name":"currency1","type":"address","internalType":"Currency"},{"name":"hooks","type":"address","internalType":"contract IHooks"},{"name":"poolManager","type":"address","internalType":"contract IPoolManager"},{"name":"fee","type":"uint24","internalType":"uint24"},{"name":"parameters","type":"bytes32","internalType":"bytes32"}]},{"name":"","type":"tuple","internalType":"struct ICLPoolManager.SwapParams","components":[{"name":"zeroForOne","type":"bool","internalType":"bool"},{"name":"amountSpecified","type":"int256","internalType":"int256"},{"name":"sqrtPriceLimitX96","type":"uint160","internalType":"uint160"}]},{"name":"","type":"bytes","internalType":"bytes"}],"outputs":[{"name":"","type":"bytes4","internalType":"bytes4"},{"name":"","type":"int256","internalType":"BeforeSwapDelta"},{"name":"","type":"uint24","internalType":"uint24"}],"stateMutability":"nonpayable"},{"type":"function","name":"brevisBatchCallback","inputs":[{"name":"_appVkHashes","type":"bytes32[]","internalType":"bytes32[]"},{"name":"_appCircuitOutputs","type":"bytes[]","internalType":"bytes[]"}],"outputs":[],"stateMutability":"nonpayable"},{"type":"function","name":"brevisCallback","inputs":[{"name":"_appVkHash","type":"bytes32","internalType":"bytes32"},{"name":"_appCircuitOutput","type":"bytes","internalType":"bytes"}],"outputs":[],"stateMutability":"nonpayable"},{"type":"function","name":"brevisOpConfig","inputs":[],"outputs":[{"name":"challengeWindow","type":"uint64","internalType":"uint64"},{"name":"sigOption","type":"uint8","internalType":"uint8"}],"stateMutability":"view"},{"type":"function","name":"brevisRequest","inputs":[],"outputs":[{"name":"","type":"address","internalType":"address"}],"stateMutability":"view"},{"type":"function","name":"calculateRewards","inputs":[{"name":"params","type":"tuple","internalType":"struct Catapoolt.PositionParams","components":[{"name":"poolId","type":"bytes32","internalType":"PoolId"},{"name":"owner","type":"address","internalType":"address"},{"name":"tickLower","type":"int24","internalType":"int24"},{"name":"tickUpper","type":"int24","internalType":"int24"},{"name":"salt","type":"bytes32","internalType":"bytes32"}]},{"name":"rewardToken","type":"address","internalType":"contract IERC20"}],"outputs":[{"name":"rewards0","type":"uint256","internalType":"uint256"},{"name":"rewards1","type":"uint256","internalType":"uint256"}],"stateMutability":"view"},{"type":"function","name":"campaignIds","inputs":[{"name":"","type":"bytes32","internalType":"PoolId"}],"outputs":[{"name":"","type":"uint256","internalType":"uint256"}],"stateMutability":"view"},{"type":"function","name":"campaigns","inputs":[{"name":"","type":"uint256","internalType":"uint256"}],"outputs":[{"name":"id","type":"uint256","internalType":"uint256"},{"name":"pool","type":"bytes32","internalType":"PoolId"},{"name":"rewardAmount","type":"uint256","internalType":"uint256"},{"name":"rewardToken","type":"address","internalType":"address"},{"name":"startsAt","type":"uint256","internalType":"uint256"},{"name":"endsAt","type":"uint256","internalType":"uint256"},{"name":"earnedFeesAmount","type":"uint256","internalType":"uint256"},{"name":"feeToken","type":"address","internalType":"address"},{"name":"multiplier","type":"uint256","internalType":"uint256"}],"stateMutability":"view"},{"type":"function","name":"campaignsCount","inputs":[],"outputs":[{"name":"","type":"uint256","internalType":"uint256"}],"stateMutability":"view"},{"type":"function","name":"claimReward","inputs":[{"name":"campaign","type":"uint256","internalType":"uint256"}],"outputs":[],"stateMutability":"nonpayable"},{"type":"function","name":"createCampaign","inputs":[{"name":"_pool","type":"bytes32","internalType":"PoolId"},{"name":"_rewardAmount","type":"uint256","internalType":"uint256"},{"name":"_rewardToken","type":"address","internalType":"address"},{"name":"_startsAt","type":"uint256","internalType":"uint256"},{"name":"_endsAt","type":"uint256","internalType":"uint256"},{"name":"earnedFeesAmount","type":"uint256","internalType":"uint256"},{"name":"feeToken","type":"address","internalType":"address"},{"name":"multiplierPercent","type":"uint256","internalType":"uint256"}],"outputs":[{"name":"","type":"uint256","internalType":"uint256"}],"stateMutability":"nonpayable"},{"type":"function","name":"getCampaign","inputs":[{"name":"id","type":"uint256","internalType":"uint256"}],"outputs":[{"name":"","type":"tuple","internalType":"struct Catapoolt.Campaign","components":[{"name":"id","type":"uint256","internalType":"uint256"},{"name":"pool","type":"bytes32","internalType":"PoolId"},{"name":"rewardAmount","type":"uint256","internalType":"uint256"},{"name":"rewardToken","type":"address","internalType":"address"},{"name":"startsAt","type":"uint256","internalType":"uint256"},{"name":"endsAt","type":"uint256","internalType":"uint256"},{"name":"earnedFeesAmount","type":"uint256","internalType":"uint256"},{"name":"feeToken","type":"address","internalType":"address"},{"name":"multiplier","type":"uint256","internalType":"uint256"}]}],"stateMutability":"view"},{"type":"function","name":"getCampaigns","inputs":[],"outputs":[{"name":"","type":"tuple[]","internalType":"struct Catapoolt.Campaign[]","components":[{"name":"id","type":"uint256","internalType":"uint256"},{"name":"pool","type":"bytes32","internalType":"PoolId"},{"name":"rewardAmount","type":"uint256","internalType":"uint256"},{"name":"rewardToken","type":"address","internalType":"address"},{"name":"startsAt","type":"uint256","internalType":"uint256"},{"name":"endsAt","type":"uint256","internalType":"uint256"},{"name":"earnedFeesAmount","type":"uint256","internalType":"uint256"},{"name":"feeToken","type":"address","internalType":"address"},{"name":"multiplier","type":"uint256","internalType":"uint256"}]}],"stateMutability":"view"},{"type":"function","name":"getFeesAccrued","inputs":[{"name":"poolId","type":"bytes32","internalType":"PoolId"},{"name":"owner","type":"address","internalType":"address"},{"name":"tickLower","type":"int24","internalType":"int24"},{"name":"tickUpper","type":"int24","internalType":"int24"},{"name":"salt","type":"bytes32","internalType":"bytes32"},{"name":"feeGrowthInside0X128LastWithdrawal","type":"uint256","internalType":"uint256"},{"name":"feeGrowthInside1X128LastWithdrawal","type":"uint256","internalType":"uint256"}],"outputs":[{"name":"fees0","type":"uint256","internalType":"uint256"},{"name":"fees1","type":"uint256","internalType":"uint256"}],"stateMutability":"view"},{"type":"function","name":"getFeesAccruedGlobal","inputs":[{"name":"poolId","type":"bytes32","internalType":"PoolId"},{"name":"feesGrowthGlobal0X128LastWithdrawal","type":"uint256","internalType":"uint256"},{"name":"feesGrowthGlobal1X128LastWithdrawal","type":"uint256","internalType":"uint256"}],"outputs":[{"name":"feesGlobal0","type":"uint256","internalType":"uint256"},{"name":"feesGlobal1","type":"uint256","internalType":"uint256"}],"stateMutability":"view"},{"type":"function","name":"getHooksRegistrationBitmap","inputs":[],"outputs":[{"name":"","type":"uint16","internalType":"uint16"}],"stateMutability":"pure"},{"type":"function","name":"getRewards","inputs":[{"name":"pool","type":"bytes32","internalType":"PoolId"},{"name":"rewardToken","type":"address","internalType":"contract IERC20"}],"outputs":[{"name":"","type":"uint256","internalType":"uint256"},{"name":"","type":"uint256","internalType":"uint256"}],"stateMutability":"view"},{"type":"function","name":"lastWithdrawals","inputs":[{"name":"","type":"bytes32","internalType":"bytes32"}],"outputs":[{"name":"feeGrowthInside0X128","type":"uint256","internalType":"uint256"},{"name":"feeGrowthInside1X128","type":"uint256","internalType":"uint256"},{"name":"feesGrowthGlobal0X128","type":"uint256","internalType":"uint256"},{"name":"feesGrowthGlobal1X128","type":"uint256","internalType":"uint256"},{"name":"timestamp","type":"uint256","internalType":"uint256"}],"stateMutability":"view"},{"type":"function","name":"listRewards","inputs":[{"name":"user","type":"address","internalType":"address"}],"outputs":[{"name":"","type":"tuple[]","internalType":"struct Catapoolt.Reward[]","components":[{"name":"id","type":"uint256","internalType":"uint256"},{"name":"campaignId","type":"uint256","internalType":"uint256"},{"name":"user","type":"address","internalType":"address"},{"name":"amount","type":"uint256","internalType":"uint256"},{"name":"claimed","type":"bool","internalType":"bool"},{"name":"claimedAt","type":"uint256","internalType":"uint256"}]}],"stateMutability":"view"},{"type":"function","name":"listRewards","inputs":[{"name":"user","type":"address","internalType":"address"},{"name":"campaignId","type":"uint256","internalType":"uint256"}],"outputs":[{"name":"","type":"tuple","internalType":"struct Catapoolt.Reward","components":[{"name":"id","type":"uint256","internalType":"uint256"},{"name":"campaignId","type":"uint256","internalType":"uint256"},{"name":"user","type":"address","internalType":"address"},{"name":"amount","type":"uint256","internalType":"uint256"},{"name":"claimed","type":"bool","internalType":"bool"},{"name":"claimedAt","type":"uint256","internalType":"uint256"}]}],"stateMutability":"view"},{"type":"function","name":"lockAcquired","inputs":[{"name":"data","type":"bytes","internalType":"bytes"}],"outputs":[{"name":"","type":"bytes","internalType":"bytes"}],"stateMutability":"nonpayable"},{"type":"function","name":"owner","inputs":[],"outputs":[{"name":"","type":"address","internalType":"address"}],"stateMutability":"view"},{"type":"function","name":"poolManager","inputs":[],"outputs":[{"name":"","type":"address","internalType":"contract ICLPoolManager"}],"stateMutability":"view"},{"type":"function","name":"renounceOwnership","inputs":[],"outputs":[],"stateMutability":"nonpayable"},{"type":"function","name":"rewards","inputs":[{"name":"","type":"bytes32","internalType":"PoolId"},{"name":"","type":"address","internalType":"contract IERC20"}],"outputs":[{"name":"amountPerSecond","type":"uint256","internalType":"uint256"},{"name":"durationInSeconds","type":"uint256","internalType":"uint256"}],"stateMutability":"view"},{"type":"function","name":"setVkHash","inputs":[{"name":"_vkHash","type":"bytes32","internalType":"bytes32"}],"outputs":[],"stateMutability":"nonpayable"},{"type":"function","name":"transferOwnership","inputs":[{"name":"newOwner","type":"address","internalType":"address"}],"outputs":[],"stateMutability":"nonpayable"},{"type":"function","name":"userPositions","inputs":[{"name":"","type":"address","internalType":"address"},{"name":"","type":"uint256","internalType":"uint256"}],"outputs":[{"name":"poolId","type":"bytes32","internalType":"PoolId"},{"name":"owner","type":"address","internalType":"address"},{"name":"tickLower","type":"int24","internalType":"int24"},{"name":"tickUpper","type":"int24","internalType":"int24"},{"name":"salt","type":"bytes32","internalType":"bytes32"}],"stateMutability":"view"},{"type":"function","name":"vault","inputs":[],"outputs":[{"name":"","type":"address","internalType":"contract IVault"}],"stateMutability":"view"},{"type":"function","name":"vkHash","inputs":[],"outputs":[{"name":"","type":"bytes32","internalType":"bytes32"}],"stateMutability":"view"},{"type":"function","name":"withdrawRewards","inputs":[{"name":"params","type":"tuple","internalType":"struct Catapoolt.PositionParams","components":[{"name":"poolId","type":"bytes32","internalType":"PoolId"},{"name":"owner","type":"address","internalType":"address"},{"name":"tickLower","type":"int24","internalType":"int24"},{"name":"tickUpper","type":"int24","internalType":"int24"},{"name":"salt","type":"bytes32","internalType":"bytes32"}]},{"name":"rewardToken","type":"address","internalType":"contract IERC20"},{"name":"claimer","type":"address","internalType":"address"}],"outputs":[{"name":"rewards0","type":"uint256","internalType":"uint256"},{"name":"rewards1","type":"uint256","internalType":"uint256"}],"stateMutability":"nonpayable"},{"type":"event","name":"CampaignCreated","inputs":[{"name":"id","type":"uint256","indexed":true,"internalType":"uint256"},{"name":"pool","type":"bytes32","indexed":true,"internalType":"PoolId"},{"name":"rewardAmount","type":"uint256","indexed":false,"internalType":"uint256"},{"name":"rewardToken","type":"address","indexed":false,"internalType":"address"},{"name":"startsAt","type":"uint256","indexed":false,"internalType":"uint256"},{"name":"endsAt","type":"uint256","indexed":false,"internalType":"uint256"}],"anonymous":false},{"type":"event","name":"OwnershipTransferred","inputs":[{"name":"previousOwner","type":"address","indexed":true,"internalType":"address"},{"name":"newOwner","type":"address","indexed":true,"internalType":"address"}],"anonymous":false},{"type":"error","name":"AddressEmptyCode","inputs":[{"name":"target","type":"address","internalType":"address"}]},{"type":"error","name":"AddressInsufficientBalance","inputs":[{"name":"account","type":"address","internalType":"address"}]},{"type":"error","name":"FailedInnerCall","inputs":[]},{"type":"error","name":"HookNotImplemented","inputs":[]},{"type":"error","name":"InvalidPool","inputs":[]},{"type":"error","name":"LockFailure","inputs":[]},{"type":"error","name":"NotPoolManager","inputs":[]},{"type":"error","name":"NotSelf","inputs":[]},{"type":"error","name":"NotVault","inputs":[]},{"type":"error","name":"OwnableInvalidOwner","inputs":[{"name":"owner","type":"address","internalType":"address"}]},{"type":"error","name":"OwnableUnauthorizedAccount","inputs":[{"name":"account","type":"address","internalType":"address"}]},{"type":"error","name":"SafeERC20FailedOperation","inputs":[{"name":"token","type":"address","internalType":"address"}]}],"bytecode":{"object":"0x60c080604052346101c6576040816129bd803803809161001f82856101dd565b8339810103126101c6578051906001600160a01b038216908183036101c657602001516001600160a01b03811692908390036101c65760805260405163fbfa77cf60e01b815290602090829060049082905afa9081156101d2575f9161018c575b5060a052604080519081016001600160401b03811182821017610178576040526001600160401b0381526001602090910181905280546001600160481b0319166001600160411b031790555f80546001600160a01b03191691909117905533156101655760028054336001600160a01b03198216811790925560405191906001600160a01b03167f8be0079c531659141344cd1fd0a4f28419497f9722a3daafe3b4186f6b6457e05f80a36127bc9081610201823960805181818161046a015281816104da01528181611c270152611eb6015260a05181818161020401526108600152f35b631e4fbdf760e01b5f525f60045260245ffd5b634e487b7160e01b5f52604160045260245ffd5b90506020813d6020116101ca575b816101a7602093836101dd565b810103126101c657516001600160a01b03811681036101c6575f610080565b5f80fd5b3d915061019a565b6040513d5f823e3d90fd5b601f909101601f19168101906001600160401b038211908210176101785760405256fe60806040526004361015610011575f80fd5b5f803560e01c908163141961bc146117b757816315126d34146117935781631ffe6a581461173a57816330dfa6701461171157816334801657146114f657816336d3cdc6146103b357816338931a31146114cf5781633bca02fc1461143757816344c89b651461141a57816346c483fa146113cb5781634b6a682d146113535781634fe840f5146113ae57816350c399f7146113585781635304d44e146113535781635598f8cc1461128f5781635e1b4d991461120e5781636f6657cb146111bb57816370fbc6e514610f85578163715018a614610f2a578163718f6ccd14610e385781637859f6d914610e1757816379d6b6a214610dc5578163851ca9d014610a905781638da5cb5b14610a68578163972e19a214610a1857816397b71c22146109a7578163a6b03633146108d7578163ab6291fe1461082e578163ae169a501461081b578163b471ad21146107f1578163c1bde0e1146107c1578163d1083cb114610499578163dc4c90d314610455578163dd8234ee1461041c578163e592dc93146103b8578163e8246c7f146101ea578163ec370682146103b3578163ed50e1da14610366578163f2fde38b146102e0578163f961d1f414610236578163fbfa77cf146101ef575063fe70c9c9146101ea575f80fd5b611b92565b346102335780600319360112610233576040517f00000000000000000000000000000000000000000000000000000000000000006001600160a01b03168152602090f35b80fd5b346102dc575f3660031901126102dc576040516101c081018181106001600160401b038211176102c8575f916101a09160405282815282602082015282604082015260016060820152600160808201528260a08201528260c08201528260e082015282610100820152826101208201528261014082015282610160820152826101808201520152602060405160188152f35b634e487b7160e01b5f52604160045260245ffd5b5f80fd5b346102dc5760203660031901126102dc576102f9611882565b6103016125dc565b6001600160a01b0316801561035357600280546001600160a01b0319811683179091556001600160a01b03167f8be0079c531659141344cd1fd0a4f28419497f9722a3daafe3b4186f6b6457e05f80a3005b631e4fbdf760e01b5f525f60045260245ffd5b346102dc5760403660031901126102dc5761037f611898565b6004355f52600c60205260405f209060018060a01b03165f526020526040805f206001815491015482519182526020820152f35b61195e565b346102dc576101603660031901126102dc576103d2611882565b5060c03660231901126102dc5760603660e31901126102dc57610144356001600160401b0381116102dc5761040b9036906004016118eb565b5050630a85dc2960e01b5f5260045ffd5b346102dc5760c03660031901126102dc57604061044961043b36611b2d565b610443611918565b9061226a565b82519182526020820152f35b346102dc575f3660031901126102dc576040517f00000000000000000000000000000000000000000000000000000000000000006001600160a01b03168152602090f35b346102dc5760e03660031901126102dc576104b336611b2d565b6104bb611918565b906104c46118ae565b6104ce838361226a565b91909260018060a01b037f00000000000000000000000000000000000000000000000000000000000000001690805191602082019060018060a01b038251166040840192835160020b95606080870193845160020b9261054a60808a01948551906040519c8d958695637388426b60e01b875260048701611a87565b0381875afa9687156106d3575f97610790575b506040865160248251809781936313d8a71960e31b835260048301525afa9283156106d3576004965f955f95610758575b50956105b4949596519360018060a01b03905116905160020b915160020b925193612603565b9160406020860151950151604051956105cc87611ad6565b865260208601908152604086019182526060860192835260808601934285525f52600b60205260405f20955186555160018601555160028501555160038401555191015561061a8284612092565b6040516370a0823160e01b81523060048201526001600160a01b0390951694602081602481895afa80156106d35782915f91610723575b50106106de5760405163a9059cbb60e01b81526001600160a01b039092166004830152602482015292602090849060449082905f905af19283156106d3576040936106a4575b5082519182526020820152f35b6106c59060203d6020116106cc575b6106bd8183611b0c565b810190611c8c565b5083610697565b503d6106b3565b6040513d5f823e3d90fd5b60405162461bcd60e51b815260206004820152601d60248201527f496e73756666696369656e7420636f6e74726163742062616c616e63650000006044820152606490fd5b9150506020813d602011610750575b8161073f60209383611b0c565b810103126102dc5781905187610651565b3d9150610732565b6107809196506105b4955060403d604011610789575b6107788183611b0c565b810190611bf0565b9095909461058e565b503d61076e565b6107b391975060603d6060116107ba575b6107ab8183611b0c565b810190611e30565b958b61055d565b503d6107a1565b346102dc575f3660031901126102dc57604060015460ff8251916001600160401b0381168352831c166020820152f35b346102dc5760203660031901126102dc576004355f52600a602052602060405f2054604051908152f35b346102dc5760203660031901126102dc57005b346102dc5760203660031901126102dc576004356001600160401b0381116102dc5761085e9036906004016118eb565b7f00000000000000000000000000000000000000000000000000000000000000006001600160a01b031633036108c85761089c604091602093612223565b815192839181835280519182918282860152018484015e5f828201840152601f01601f19168101030190f35b6362df054560e01b5f5260045ffd5b346102dc575f3660031901126102dc576003546108f381611f94565b906109016040519283611b0c565b80825260208201908160035f527fc2575a0e9e593c00f959f8c92f12db2869c3395a3b0502d05e2516446f71f85b5f915b838310610989578486604051918291602083019060208452518091526040830191905f5b818110610964575050500390f35b9193509160206101208261097b6001948851611a21565b019401910191849392610956565b6009602060019261099985611f23565b815201920192019190610932565b346102dc5760403660031901126102dc5760c06109ce6109c5611882565b6024359061209f565b610a16604051809260a080918051845260208101516020850152600180831b036040820151166040850152606081015160608501526080810151151560808501520151910152565bf35b346102dc576101203660031901126102dc57610a32611882565b5060c03660231901126102dc57610a476118c4565b50610104356001600160401b0381116102dc5761040b9036906004016118eb565b346102dc575f3660031901126102dc576002546040516001600160a01b039091168152602090f35b346102dc576101003660031901126102dc576044356001600160a01b0381169060243590600435908390036102dc5760643560843593610ace6118ae565b918115610d805780861115610d31578415610cdc57610b305f8060405160208101906323b872dd60e01b825233602482015230604482015289606482015260648152610b1b608482611b0c565b519082875af1610b296121f4565b9084612728565b8051908115159182610cc1575b5050610cae576004549460405196610b5488611aba565b8688526020880192868452604089019483865260608a019681885260808b019a838c5260a081019185835260c082019060a435825260e083019060018060a01b0316815261010083019160e4358352600354680100000000000000008110156102c857806001610bc79201600355611852565b959095610c9b5760209f8f9d7f3f1409f785e0e4dbb192a711559a3ce534f2ff9a446f939875de41c66ee4a7eb9d60809d600898518a555160018a015551600289015560018060a01b03905116600388019060018060a01b03166001600160601b0360a01b82541617905551600487015551600586015551600685015560018060a01b03905116600784019060018060a01b03166001600160601b0360a01b825416179055519101556040519384528984015260408301526060820152a3610c90600454612070565b600455604051908152f35b634e487b7160e01b5f525f60045260245ffd5b50635274afe760e01b5f5260045260245ffd5b610cd49250602080918301019101611c8c565b158780610b3d565b60405162461bcd60e51b815260206004820152602760248201527f52657761726420616d6f756e74206d7573742062652067726561746572207468604482015266616e207a65726f60c81b6064820152608490fd5b60405162461bcd60e51b815260206004820152602160248201527f456e642074696d65206d7573742062652061667465722073746172742074696d6044820152606560f81b6064820152608490fd5b60405162461bcd60e51b815260206004820152601c60248201527f496e76616c69642072657761726420746f6b656e2061646472657373000000006044820152606490fd5b346102dc5760403660031901126102dc576024356001600160401b0381116102dc57610df8610e159136906004016118eb565b90610e0d60018060a01b035f54163314611df3565b6004356123df565b005b346102dc5760203660031901126102dc57610e306125dc565b600435600555005b346102dc5760a03660031901126102dc576024356001600160401b0381168091036102dc576064356084356001600160401b0381116102dc5760c492610e8460209236906004016118eb565b929091610e8f61239d565b96909160018060a01b035f541660ff604051998a95869463054eee2f60e41b8652600435600487015260248601528a6044860152604435606486015260848501521660a48301525afa9182156106d357610ef7610efe93610e15965f91610f0b575b50611cc8565b3691611d78565b6020815191012014611dae565b610f24915060203d6020116106cc576106bd8183611b0c565b87610ef1565b346102dc575f3660031901126102dc57610f426125dc565b600280546001600160a01b031981169091555f906001600160a01b03167f8be0079c531659141344cd1fd0a4f28419497f9722a3daafe3b4186f6b6457e08280a3005b346102dc5760203660031901126102dc57610f9e611882565b60018060a01b0381165f52600960205260405f20908154610fbe81611f94565b92610fcc6040519485611b0c565b81845260208401905f5260205f205f915b838310611165578585610ff08251611fab565b5f610ffb845161200d565b5f5b855181101561109b57611010818761205c565b51515f52600a60205260405f20545f805b858110611078575b5015611039575b50600101610ffd565b83611056826110719361104f600196988a61205c565b528861209f565b611060828661205c565b5261106b818561205c565b50612070565b9290611030565b82611083828961205c565b511461109157600101611021565b5050600188611029565b50906110a68161200d565b915f5b82811061113b57836040518091602082016020835281518091526020604084019201905f5b8181106110dc575050500390f35b91935091602060c08261112d600194885160a080918051845260208101516020850152600180831b036040820151166040850152606081015160608501526080810151151560808501520151910152565b0194019101918493926110ce565b806111486001928461205c565b51611153828761205c565b5261115e818661205c565b50016110a9565b6003602060019260405161117881611ad6565b8554815284860154858060a01b038116848301528060a01c60020b604083015260b81c60020b606082015260028601546080820152815201920192019190610fdd565b346102dc576101803660031901126102dc576111d5611882565b5060c03660231901126102dc5760603660e31901126102dc57610164356001600160401b0381116102dc5761040b9036906004016118eb565b346102dc5760403660031901126102dc57611227611882565b6001600160a01b03165f908152600960205260409020805460243591908210156102dc575f52600360205f2091020180549061128b600260018301549201546040519383859460b81c60020b918160a01c60020b9160018060a01b03169086611a87565b0390f35b346102dc5760203660031901126102dc576004355f6101006040516112b381611aba565b8281528260208201528260408201528260608201528260808201528260a08201528260c08201528260e0820152015260035481101561130e576113016112fb61012092611852565b50611f23565b610a166040518092611a21565b60405162461bcd60e51b815260206004820152601760248201527f43616d706169676e20646f6573206e6f742065786973740000000000000000006044820152606490fd5b6119cf565b346102dc5760203660031901126102dc576004355f52600b60205260a060405f20805490600181015490600281015460046003830154920154926040519485526020850152604084015260608301526080820152f35b346102dc575f3660031901126102dc576020600554604051908152f35b346102dc5760e03660031901126102dc576113e4611898565b604435908160020b82036102dc576064358060020b81036102dc576040926104499260c4359260a4359260843592600435611e8d565b346102dc575f3660031901126102dc576020600454604051908152f35b346102dc5760403660031901126102dc576004356001600160401b0381116102dc5761146790369060040161192e565b6024356001600160401b0381116102dc5761148690369060040161192e565b9061149b60018060a01b035f54163314611df3565b5f5b8381106114a657005b806114c96114b76001938789611d0c565b356114c3838787611d1c565b916123df565b0161149d565b346102dc575f3660031901126102dc575f546040516001600160a01b039091168152602090f35b346102dc5760a03660031901126102dc576004356001600160401b0381116102dc5761152690369060040161192e565b6024356001600160401b0381116102dc5761154590369060040161192e565b906044356001600160401b0381116102dc5761156590369060040161192e565b9290916064356001600160401b0381116102dc5761158790369060040161192e565b96608435906001600160401b0382116102dc5760048887926115ee8a8799988e6115b660c0993690890161192e565b9c909b60206115c361239d565b97909860018060a01b035f54169a6040519e8f9d8e63a90f4bd760e01b8152015260c48d0191611ca4565b8a81036003190160248c01528281520193905f905b8082106116d25750505060209888969461163160ff95899895611643956003198b84030160448c0152611ca4565b87810360031901606489015291611ca4565b9260848501521660a483015203915afa80156106d357611669915f916116b35750611cc8565b5f5b86811061167457005b806116946116856001938b86611d0c565b35610efe610ef7848989611d1c565b61169f818888611d0c565b506116ab818686611d1c565b50500161166b565b6116cc915060203d6020116106cc576106bd8183611b0c565b89610ef1565b95509597995095975050508335906001600160401b0382168092036102dc576020816001938293520194019201928e898d9896948f94968b9997611603565b346102dc5760403660031901126102dc5761172a611898565b50604080515f81525f6020820152f35b346102dc576101403660031901126102dc57611754611882565b5060c03660231901126102dc576117696118c4565b506117726118da565b50610124356001600160401b0381116102dc5761040b9036906004016118eb565b346102dc5760603660031901126102dc576040610449604435602435600435611c06565b346102dc5760203660031901126102dc576004356003548110156102dc576117e161012091611852565b50805490600181015490600281015460018060a01b036003830154166004830154600584015491600685015493600860018060a01b0360078801541696015496604051988952602089015260408801526060870152608086015260a085015260c084015260e0830152610100820152f35b60035481101561186e5760035f52600960205f20910201905f90565b634e487b7160e01b5f52603260045260245ffd5b600435906001600160a01b03821682036102dc57565b602435906001600160a01b03821682036102dc57565b60c435906001600160a01b03821682036102dc57565b60e435906001600160a01b03821682036102dc57565b61010435908160020b82036102dc57565b9181601f840112156102dc578235916001600160401b0383116102dc57602083818601950101116102dc57565b60a435906001600160a01b03821682036102dc57565b9181601f840112156102dc578235916001600160401b0383116102dc576020808501948460051b0101116102dc57565b346102dc576101c03660031901126102dc576004356001600160a01b03811681036102dc575060c03660231901126102dc5760803660e31901126102dc576101a4356001600160401b0381116102dc576119bc9036906004016118eb565b5050630a85dc2960e01b5f908152600490fd5b346102dc576101403660031901126102dc576004356001600160a01b03811681036102dc575060c03660231901126102dc57610124356001600160401b0381116102dc576119bc9036906004016118eb565b610100809180518452602081015160208501526040810151604085015260018060a01b0360608201511660608501526080810151608085015260a081015160a085015260c081015160c085015260018060a01b0360e08201511660e08501520151910152565b9081526001600160a01b039091166020820152600291820b604082015291900b6060820152608081019190915260a00190565b61012081019081106001600160401b038211176102c857604052565b60a081019081106001600160401b038211176102c857604052565b60c081019081106001600160401b038211176102c857604052565b90601f801991011681019081106001600160401b038211176102c857604052565b60a09060031901126102dc5760405190611b4682611ad6565b6004358252816024356001600160a01b03811681036102dc5760208201526044358060020b81036102dc5760408201526064358060020b81036102dc5760608201526080608435910152565b346102dc576101803660031901126102dc576004356001600160a01b03811681036102dc575060c03660231901126102dc5760803660e31901126102dc57610164356001600160401b0381116102dc576119bc9036906004016118eb565b91908260409103126102dc576020825192015190565b604080516313d8a71960e31b815260048101929092529093929190846024817f00000000000000000000000000000000000000000000000000000000000000006001600160a01b03165afa9384156106d3575f905f95611c68575b5003920390565b9050611c8491945060403d604011610789576107788183611b0c565b93905f611c61565b908160209103126102dc575180151581036102dc5790565b81835290916001600160fb1b0383116102dc5760209260051b809284830137010190565b15611ccf57565b60405162461bcd60e51b815260206004820152601560248201527464617461206e6f7420726561647920746f2075736560581b6044820152606490fd5b919081101561186e5760051b0190565b919081101561186e5760051b81013590601e19813603018212156102dc5701908135916001600160401b0383116102dc5760200182360381136102dc579190565b6001600160401b0381116102c857601f01601f191660200190565b929192611d8482611d5d565b91611d926040519384611b0c565b8294818452818301116102dc578281602093845f960137010152565b15611db557565b60405162461bcd60e51b81526020600482015260166024820152751a5b9d985b1a590818da5c98dd5a5d081bdd5d1c1d5d60521b6044820152606490fd5b15611dfa57565b60405162461bcd60e51b815260206004820152600e60248201526d34b73b30b634b21031b0b63632b960911b6044820152606490fd5b908160609103126102dc5760405190606082018281106001600160401b038211176102c8576040528051906fffffffffffffffffffffffffffffffff821682036102dc576040918352602081015160208401520151604082015290565b604051637388426b60e01b81529796959460609489948594611eb29460048701611a87565b03817f00000000000000000000000000000000000000000000000000000000000000006001600160a01b03165afa9384156106d3575f94611eff575b506040906020850151039301510390565b6040919450611f1c9060603d6060116107ba576107ab8183611b0c565b9390611eee565b90604051611f3081611aba565b82548152600183015460208201526002830154604082015260038301546001600160a01b03908116606083015260048401546080830152600584015460a0830152600684015460c083015260078401541660e0820152600890920154610100830152565b6001600160401b0381116102c85760051b60200190565b90611fb582611f94565b611fc26040519182611b0c565b8281528092611fd3601f1991611f94565b0190602036910137565b60405190611fea82611af1565b5f60a0838281528260208201528260408201528260608201528260808201520152565b9061201782611f94565b6120246040519182611b0c565b8281528092612035601f1991611f94565b01905f5b82811061204557505050565b602090612050611fdd565b82828501015201612039565b805182101561186e5760209160051b010190565b5f19811461207e5760010190565b634e487b7160e01b5f52601160045260245ffd5b9190820180921161207e57565b6120a7611fdd565b506001600160a01b03165f8181526009602052604090208054919290916120cd81611f94565b926120db6040519485611b0c565b81845260208401905f5260205f205f915b83831061219e57505050505f905f5b835181101561216c5761210e818561205c565b51515f52600a6020528160405f20541461212b575b6001016120fb565b9161216460019161215e61215e61214186611852565b506003868060a01b0391015416612158888a61205c565b5161226a565b90612092565b929050612123565b506040519391925061217d84611af1565b5f84526020840152604083015260608201525f60808201525f60a082015290565b600360206001926040516121b181611ad6565b8554815284860154858060a01b038116848301528060a01c60020b604083015260b81c60020b6060820152600286015460808201528152019201920191906120ec565b3d1561221e573d9061220582611d5d565b916122136040519384611b0c565b82523d5f602084013e565b606090565b5f9182918160405192839283378101838152039082305af1906122446121f4565b91612268575080511561225957602081519101fd5b6314815f4760e31b5f5260045ffd5b565b600492916002825192612328612319602080840160018060a01b038151169060408601916122ad8351890b9a606089019b8c518b0b9060808b0194855193612603565b5f52600b845260405f20998a9360806040519e8f9b8c976122cd89611ad6565b80548099528d60018201549a8b91015201549d60408d019e8f52606060038201549d019c8d5201549e019d8e5288519360018060a01b03905116905160020b915160020b925193611e8d565b95909383519151905191611c06565b93909651908142039242841161207e57515f52600c60205260405f209060018060a01b03165f5260205260405f205480830292830414904214171561207e5760011c94858161238f575050505f5b9381612383575050505f90565b61238c92612650565b90565b61239892612650565b612376565b6040519060408201918083106001600160401b038411176102c8576020926040526001549060ff6001600160401b0383169283835260401c1693849101529190565b92919092600554036125aa579160488304916123fa83611fab565b9261240481611fab565b9461240e82611fab565b935f5b8381106124ec57505050505f925b80518410156124e5576001600160a01b0361243a858361205c565b5116926001600160a01b0361244f868861205c565b51169261245c868361205c565b51965f5b855f52600760205260405f20548110156124d257855f52600660205260405f2090815481101561186e576001915f5260205f208160021b01828101548b10156124ab575b5001612460565b600381015490895f526008602052600260405f209101545f5260205260405f20555f6124a4565b509650600190950194909350915061241f565b5092505050565b60488198969897959702908082046048148115171561207e576014820180831161207e5761252561251f828588886126d0565b906126e8565b60601c612532838961205c565b52602883019081841161207e5761251f8261254e9288886126d0565b60601c61255b838a61205c565b526048830180931161207e576001926125759186866126d0565b90359060208110612599575b5061258c828b61205c565b5201969496959395612411565b5f199060200360031b1b165f612581565b60405162461bcd60e51b815260206004820152600a602482015269696e76616c696420766b60b01b6044820152606490fd5b6002546001600160a01b031633036125f057565b63118cdaa760e01b5f523360045260245ffd5b939192909260405193602085019586526001600160601b03199060601b16604085015260e81b605484015260e81b6057830152605a820152605a815261264a607a82611b0c565b51902090565b91818302915f19818509938380861095039480860395868511156102dc57146126c8579082910981805f03168092046002816003021880820260020302808202600203028082026002030280820260020302808202600203028091026002030293600183805f03040190848311900302920304170290565b505091500490565b909392938483116102dc5784116102dc578101920390565b356bffffffffffffffffffffffff19811692919060148210612708575050565b6bffffffffffffffffffffffff1960149290920360031b82901b16169150565b9061274c575080511561273d57805190602001fd5b630a12f52160e11b5f5260045ffd5b8151158061277d575b61275d575090565b639996b31560e01b5f9081526001600160a01b0391909116600452602490fd5b50803b1561275556fea26469706673582212205c25f56f522170d467d2e66e7f6f7db125a26eac2c72e7b60df2056eea881d4264736f6c634300081a0033","linkReferences":{}},"methodIdentifiers":{"afterAddLiquidity(address,(address,address,address,address,uint24,bytes32),(int24,int24,int256,bytes32),int256,int256,bytes)":"ec370682","afterDonate(address,(address,address,address,address,uint24,bytes32),uint256,uint256,bytes)":"5304d44e","afterInitialize(address,(address,address,address,address,uint24,bytes32),uint160,int24,bytes)":"1ffe6a58","afterRemoveLiquidity(address,(address,address,address,address,uint24,bytes32),(int24,int24,int256,bytes32),int256,int256,bytes)":"36d3cdc6","afterSwap(address,(address,address,address,address,uint24,bytes32),(bool,int256,uint160),int256,bytes)":"6f6657cb","applyBrevisOpResult(bytes32,uint64,bytes32,bytes32,bytes)":"718f6ccd","applyBrevisOpResults(bytes32[],uint64[],bytes32[],bytes32[],bytes[])":"34801657","beforeAddLiquidity(address,(address,address,address,address,uint24,bytes32),(int24,int24,int256,bytes32),bytes)":"fe70c9c9","beforeDonate(address,(address,address,address,address,uint24,bytes32),uint256,uint256,bytes)":"4b6a682d","beforeInitialize(address,(address,address,address,address,uint24,bytes32),uint160,bytes)":"972e19a2","beforeRemoveLiquidity(address,(address,address,address,address,uint24,bytes32),(int24,int24,int256,bytes32),bytes)":"e8246c7f","beforeSwap(address,(address,address,address,address,uint24,bytes32),(bool,int256,uint160),bytes)":"e592dc93","brevisBatchCallback(bytes32[],bytes[])":"3bca02fc","brevisCallback(bytes32,bytes)":"79d6b6a2","brevisOpConfig()":"c1bde0e1","brevisRequest()":"38931a31","calculateRewards((bytes32,address,int24,int24,bytes32),address)":"dd8234ee","campaignIds(bytes32)":"b471ad21","campaigns(uint256)":"141961bc","campaignsCount()":"44c89b65","claimReward(uint256)":"ae169a50","createCampaign(bytes32,uint256,address,uint256,uint256,uint256,address,uint256)":"851ca9d0","getCampaign(uint256)":"5598f8cc","getCampaigns()":"a6b03633","getFeesAccrued(bytes32,address,int24,int24,bytes32,uint256,uint256)":"46c483fa","getFeesAccruedGlobal(bytes32,uint256,uint256)":"15126d34","getHooksRegistrationBitmap()":"f961d1f4","getRewards(bytes32,address)":"30dfa670","lastWithdrawals(bytes32)":"50c399f7","listRewards(address)":"70fbc6e5","listRewards(address,uint256)":"97b71c22","lockAcquired(bytes)":"ab6291fe","owner()":"8da5cb5b","poolManager()":"dc4c90d3","renounceOwnership()":"715018a6","rewards(bytes32,address)":"ed50e1da","setVkHash(bytes32)":"7859f6d9","transferOwnership(address)":"f2fde38b","userPositions(address,uint256)":"5e1b4d99","vault()":"fbfa77cf","vkHash()":"4fe840f5","withdrawRewards((bytes32,address,int24,int24,bytes32),address,address)":"d1083cb1"},"id":59}