{"abi":[{"type":"constructor","inputs":[{"name":"_poolManager","type":"address","internalType":"contract ICLPoolManager"},{"name":"_positionManager","type":"address","internalType":"contract CLPositionManager"},{"name":"_brevisRequest","type":"address","internalType":"address"}],"stateMutability":"nonpayable"},{"type":"function","name":"afterAddLiquidity","inputs":[{"name":"caller","type":"address","internalType":"address"},{"name":"poolKey","type":"tuple","internalType":"struct PoolKey","components":[{"name":"currency0","type":"address","internalType":"Currency"},{"name":"currency1","type":"address","internalType":"Currency"},{"name":"hooks","type":"address","internalType":"contract IHooks"},{"name":"poolManager","type":"address","internalType":"contract IPoolManager"},{"name":"fee","type":"uint24","internalType":"uint24"},{"name":"parameters","type":"bytes32","internalType":"bytes32"}]},{"name":"modLiqParams","type":"tuple","internalType":"struct ICLPoolManager.ModifyLiquidityParams","components":[{"name":"tickLower","type":"int24","internalType":"int24"},{"name":"tickUpper","type":"int24","internalType":"int24"},{"name":"liquidityDelta","type":"int256","internalType":"int256"},{"name":"salt","type":"bytes32","internalType":"bytes32"}]},{"name":"","type":"int256","internalType":"BalanceDelta"},{"name":"","type":"bytes","internalType":"bytes"}],"outputs":[{"name":"","type":"bytes4","internalType":"bytes4"},{"name":"","type":"int256","internalType":"BalanceDelta"}],"stateMutability":"nonpayable"},{"type":"function","name":"afterDonate","inputs":[{"name":"","type":"address","internalType":"address"},{"name":"","type":"tuple","internalType":"struct PoolKey","components":[{"name":"currency0","type":"address","internalType":"Currency"},{"name":"currency1","type":"address","internalType":"Currency"},{"name":"hooks","type":"address","internalType":"contract IHooks"},{"name":"poolManager","type":"address","internalType":"contract IPoolManager"},{"name":"fee","type":"uint24","internalType":"uint24"},{"name":"parameters","type":"bytes32","internalType":"bytes32"}]},{"name":"","type":"uint256","internalType":"uint256"},{"name":"","type":"uint256","internalType":"uint256"},{"name":"","type":"bytes","internalType":"bytes"}],"outputs":[{"name":"","type":"bytes4","internalType":"bytes4"}],"stateMutability":"nonpayable"},{"type":"function","name":"afterInitialize","inputs":[{"name":"","type":"address","internalType":"address"},{"name":"","type":"tuple","internalType":"struct PoolKey","components":[{"name":"currency0","type":"address","internalType":"Currency"},{"name":"currency1","type":"address","internalType":"Currency"},{"name":"hooks","type":"address","internalType":"contract IHooks"},{"name":"poolManager","type":"address","internalType":"contract IPoolManager"},{"name":"fee","type":"uint24","internalType":"uint24"},{"name":"parameters","type":"bytes32","internalType":"bytes32"}]},{"name":"","type":"uint160","internalType":"uint160"},{"name":"","type":"int24","internalType":"int24"},{"name":"","type":"bytes","internalType":"bytes"}],"outputs":[{"name":"","type":"bytes4","internalType":"bytes4"}],"stateMutability":"nonpayable"},{"type":"function","name":"afterRemoveLiquidity","inputs":[{"name":"","type":"address","internalType":"address"},{"name":"","type":"tuple","internalType":"struct PoolKey","components":[{"name":"currency0","type":"address","internalType":"Currency"},{"name":"currency1","type":"address","internalType":"Currency"},{"name":"hooks","type":"address","internalType":"contract IHooks"},{"name":"poolManager","type":"address","internalType":"contract IPoolManager"},{"name":"fee","type":"uint24","internalType":"uint24"},{"name":"parameters","type":"bytes32","internalType":"bytes32"}]},{"name":"","type":"tuple","internalType":"struct ICLPoolManager.ModifyLiquidityParams","components":[{"name":"tickLower","type":"int24","internalType":"int24"},{"name":"tickUpper","type":"int24","internalType":"int24"},{"name":"liquidityDelta","type":"int256","internalType":"int256"},{"name":"salt","type":"bytes32","internalType":"bytes32"}]},{"name":"","type":"int256","internalType":"BalanceDelta"},{"name":"","type":"bytes","internalType":"bytes"}],"outputs":[{"name":"","type":"bytes4","internalType":"bytes4"},{"name":"","type":"int256","internalType":"BalanceDelta"}],"stateMutability":"nonpayable"},{"type":"function","name":"afterSwap","inputs":[{"name":"","type":"address","internalType":"address"},{"name":"","type":"tuple","internalType":"struct PoolKey","components":[{"name":"currency0","type":"address","internalType":"Currency"},{"name":"currency1","type":"address","internalType":"Currency"},{"name":"hooks","type":"address","internalType":"contract IHooks"},{"name":"poolManager","type":"address","internalType":"contract IPoolManager"},{"name":"fee","type":"uint24","internalType":"uint24"},{"name":"parameters","type":"bytes32","internalType":"bytes32"}]},{"name":"","type":"tuple","internalType":"struct ICLPoolManager.SwapParams","components":[{"name":"zeroForOne","type":"bool","internalType":"bool"},{"name":"amountSpecified","type":"int256","internalType":"int256"},{"name":"sqrtPriceLimitX96","type":"uint160","internalType":"uint160"}]},{"name":"","type":"int256","internalType":"BalanceDelta"},{"name":"","type":"bytes","internalType":"bytes"}],"outputs":[{"name":"","type":"bytes4","internalType":"bytes4"},{"name":"","type":"int128","internalType":"int128"}],"stateMutability":"nonpayable"},{"type":"function","name":"applyBrevisOpResult","inputs":[{"name":"_proofId","type":"bytes32","internalType":"bytes32"},{"name":"_nonce","type":"uint64","internalType":"uint64"},{"name":"_appVkHash","type":"bytes32","internalType":"bytes32"},{"name":"_appCommitHash","type":"bytes32","internalType":"bytes32"},{"name":"_appCircuitOutput","type":"bytes","internalType":"bytes"}],"outputs":[],"stateMutability":"nonpayable"},{"type":"function","name":"applyBrevisOpResults","inputs":[{"name":"_proofIds","type":"bytes32[]","internalType":"bytes32[]"},{"name":"_nonces","type":"uint64[]","internalType":"uint64[]"},{"name":"_appVkHashes","type":"bytes32[]","internalType":"bytes32[]"},{"name":"_appCommitHashes","type":"bytes32[]","internalType":"bytes32[]"},{"name":"_appCircuitOutputs","type":"bytes[]","internalType":"bytes[]"}],"outputs":[],"stateMutability":"nonpayable"},{"type":"function","name":"beforeAddLiquidity","inputs":[{"name":"","type":"address","internalType":"address"},{"name":"","type":"tuple","internalType":"struct PoolKey","components":[{"name":"currency0","type":"address","internalType":"Currency"},{"name":"currency1","type":"address","internalType":"Currency"},{"name":"hooks","type":"address","internalType":"contract IHooks"},{"name":"poolManager","type":"address","internalType":"contract IPoolManager"},{"name":"fee","type":"uint24","internalType":"uint24"},{"name":"parameters","type":"bytes32","internalType":"bytes32"}]},{"name":"","type":"tuple","internalType":"struct ICLPoolManager.ModifyLiquidityParams","components":[{"name":"tickLower","type":"int24","internalType":"int24"},{"name":"tickUpper","type":"int24","internalType":"int24"},{"name":"liquidityDelta","type":"int256","internalType":"int256"},{"name":"salt","type":"bytes32","internalType":"bytes32"}]},{"name":"","type":"bytes","internalType":"bytes"}],"outputs":[{"name":"","type":"bytes4","internalType":"bytes4"}],"stateMutability":"nonpayable"},{"type":"function","name":"beforeDonate","inputs":[{"name":"","type":"address","internalType":"address"},{"name":"","type":"tuple","internalType":"struct PoolKey","components":[{"name":"currency0","type":"address","internalType":"Currency"},{"name":"currency1","type":"address","internalType":"Currency"},{"name":"hooks","type":"address","internalType":"contract IHooks"},{"name":"poolManager","type":"address","internalType":"contract IPoolManager"},{"name":"fee","type":"uint24","internalType":"uint24"},{"name":"parameters","type":"bytes32","internalType":"bytes32"}]},{"name":"","type":"uint256","internalType":"uint256"},{"name":"","type":"uint256","internalType":"uint256"},{"name":"","type":"bytes","internalType":"bytes"}],"outputs":[{"name":"","type":"bytes4","internalType":"bytes4"}],"stateMutability":"nonpayable"},{"type":"function","name":"beforeInitialize","inputs":[{"name":"","type":"address","internalType":"address"},{"name":"","type":"tuple","internalType":"struct PoolKey","components":[{"name":"currency0","type":"address","internalType":"Currency"},{"name":"currency1","type":"address","internalType":"Currency"},{"name":"hooks","type":"address","internalType":"contract IHooks"},{"name":"poolManager","type":"address","internalType":"contract IPoolManager"},{"name":"fee","type":"uint24","internalType":"uint24"},{"name":"parameters","type":"bytes32","internalType":"bytes32"}]},{"name":"","type":"uint160","internalType":"uint160"},{"name":"","type":"bytes","internalType":"bytes"}],"outputs":[{"name":"","type":"bytes4","internalType":"bytes4"}],"stateMutability":"nonpayable"},{"type":"function","name":"beforeRemoveLiquidity","inputs":[{"name":"","type":"address","internalType":"address"},{"name":"","type":"tuple","internalType":"struct PoolKey","components":[{"name":"currency0","type":"address","internalType":"Currency"},{"name":"currency1","type":"address","internalType":"Currency"},{"name":"hooks","type":"address","internalType":"contract IHooks"},{"name":"poolManager","type":"address","internalType":"contract IPoolManager"},{"name":"fee","type":"uint24","internalType":"uint24"},{"name":"parameters","type":"bytes32","internalType":"bytes32"}]},{"name":"","type":"tuple","internalType":"struct ICLPoolManager.ModifyLiquidityParams","components":[{"name":"tickLower","type":"int24","internalType":"int24"},{"name":"tickUpper","type":"int24","internalType":"int24"},{"name":"liquidityDelta","type":"int256","internalType":"int256"},{"name":"salt","type":"bytes32","internalType":"bytes32"}]},{"name":"","type":"bytes","internalType":"bytes"}],"outputs":[{"name":"","type":"bytes4","internalType":"bytes4"}],"stateMutability":"pure"},{"type":"function","name":"beforeSwap","inputs":[{"name":"","type":"address","internalType":"address"},{"name":"","type":"tuple","internalType":"struct PoolKey","components":[{"name":"currency0","type":"address","internalType":"Currency"},{"name":"currency1","type":"address","internalType":"Currency"},{"name":"hooks","type":"address","internalType":"contract IHooks"},{"name":"poolManager","type":"address","internalType":"contract IPoolManager"},{"name":"fee","type":"uint24","internalType":"uint24"},{"name":"parameters","type":"bytes32","internalType":"bytes32"}]},{"name":"","type":"tuple","internalType":"struct ICLPoolManager.SwapParams","components":[{"name":"zeroForOne","type":"bool","internalType":"bool"},{"name":"amountSpecified","type":"int256","internalType":"int256"},{"name":"sqrtPriceLimitX96","type":"uint160","internalType":"uint160"}]},{"name":"","type":"bytes","internalType":"bytes"}],"outputs":[{"name":"","type":"bytes4","internalType":"bytes4"},{"name":"","type":"int256","internalType":"BeforeSwapDelta"},{"name":"","type":"uint24","internalType":"uint24"}],"stateMutability":"nonpayable"},{"type":"function","name":"brevisBatchCallback","inputs":[{"name":"_appVkHashes","type":"bytes32[]","internalType":"bytes32[]"},{"name":"_appCircuitOutputs","type":"bytes[]","internalType":"bytes[]"}],"outputs":[],"stateMutability":"nonpayable"},{"type":"function","name":"brevisCallback","inputs":[{"name":"_appVkHash","type":"bytes32","internalType":"bytes32"},{"name":"_appCircuitOutput","type":"bytes","internalType":"bytes"}],"outputs":[],"stateMutability":"nonpayable"},{"type":"function","name":"brevisOpConfig","inputs":[],"outputs":[{"name":"challengeWindow","type":"uint64","internalType":"uint64"},{"name":"sigOption","type":"uint8","internalType":"uint8"}],"stateMutability":"view"},{"type":"function","name":"brevisRequest","inputs":[],"outputs":[{"name":"","type":"address","internalType":"address"}],"stateMutability":"view"},{"type":"function","name":"calculateRewards","inputs":[{"name":"params","type":"tuple","internalType":"struct Catapoolt.PositionParams","components":[{"name":"poolId","type":"bytes32","internalType":"PoolId"},{"name":"owner","type":"address","internalType":"address"},{"name":"tickLower","type":"int24","internalType":"int24"},{"name":"tickUpper","type":"int24","internalType":"int24"},{"name":"salt","type":"bytes32","internalType":"bytes32"}]},{"name":"rewardToken","type":"address","internalType":"contract IERC20"}],"outputs":[{"name":"rewards0","type":"uint256","internalType":"uint256"},{"name":"rewards1","type":"uint256","internalType":"uint256"}],"stateMutability":"view"},{"type":"function","name":"campaignIds","inputs":[{"name":"","type":"bytes32","internalType":"PoolId"}],"outputs":[{"name":"","type":"uint256","internalType":"uint256"}],"stateMutability":"view"},{"type":"function","name":"campaigns","inputs":[{"name":"","type":"uint256","internalType":"uint256"}],"outputs":[{"name":"id","type":"uint256","internalType":"uint256"},{"name":"pool","type":"bytes32","internalType":"PoolId"},{"name":"rewardAmount","type":"uint256","internalType":"uint256"},{"name":"rewardToken","type":"address","internalType":"address"},{"name":"startsAt","type":"uint256","internalType":"uint256"},{"name":"endsAt","type":"uint256","internalType":"uint256"},{"name":"earnedFeesAmount","type":"uint256","internalType":"uint256"},{"name":"feeToken","type":"address","internalType":"address"},{"name":"multiplier","type":"uint256","internalType":"uint256"}],"stateMutability":"view"},{"type":"function","name":"campaignsCount","inputs":[],"outputs":[{"name":"","type":"uint256","internalType":"uint256"}],"stateMutability":"view"},{"type":"function","name":"claimReward","inputs":[{"name":"campaign","type":"uint256","internalType":"uint256"}],"outputs":[],"stateMutability":"nonpayable"},{"type":"function","name":"createCampaign","inputs":[{"name":"_pool","type":"bytes32","internalType":"PoolId"},{"name":"_rewardAmount","type":"uint256","internalType":"uint256"},{"name":"_rewardToken","type":"address","internalType":"address"},{"name":"_startsAt","type":"uint256","internalType":"uint256"},{"name":"_endsAt","type":"uint256","internalType":"uint256"},{"name":"earnedFeesAmount","type":"uint256","internalType":"uint256"},{"name":"feeToken","type":"address","internalType":"address"},{"name":"multiplierPercent","type":"uint256","internalType":"uint256"}],"outputs":[{"name":"","type":"uint256","internalType":"uint256"}],"stateMutability":"nonpayable"},{"type":"function","name":"getCampaign","inputs":[{"name":"id","type":"uint256","internalType":"uint256"}],"outputs":[{"name":"","type":"tuple","internalType":"struct Catapoolt.Campaign","components":[{"name":"id","type":"uint256","internalType":"uint256"},{"name":"pool","type":"bytes32","internalType":"PoolId"},{"name":"rewardAmount","type":"uint256","internalType":"uint256"},{"name":"rewardToken","type":"address","internalType":"address"},{"name":"startsAt","type":"uint256","internalType":"uint256"},{"name":"endsAt","type":"uint256","internalType":"uint256"},{"name":"earnedFeesAmount","type":"uint256","internalType":"uint256"},{"name":"feeToken","type":"address","internalType":"address"},{"name":"multiplier","type":"uint256","internalType":"uint256"}]}],"stateMutability":"view"},{"type":"function","name":"getCampaigns","inputs":[],"outputs":[{"name":"","type":"tuple[]","internalType":"struct Catapoolt.Campaign[]","components":[{"name":"id","type":"uint256","internalType":"uint256"},{"name":"pool","type":"bytes32","internalType":"PoolId"},{"name":"rewardAmount","type":"uint256","internalType":"uint256"},{"name":"rewardToken","type":"address","internalType":"address"},{"name":"startsAt","type":"uint256","internalType":"uint256"},{"name":"endsAt","type":"uint256","internalType":"uint256"},{"name":"earnedFeesAmount","type":"uint256","internalType":"uint256"},{"name":"feeToken","type":"address","internalType":"address"},{"name":"multiplier","type":"uint256","internalType":"uint256"}]}],"stateMutability":"view"},{"type":"function","name":"getFeesAccrued","inputs":[{"name":"poolId","type":"bytes32","internalType":"PoolId"},{"name":"owner","type":"address","internalType":"address"},{"name":"tickLower","type":"int24","internalType":"int24"},{"name":"tickUpper","type":"int24","internalType":"int24"},{"name":"salt","type":"bytes32","internalType":"bytes32"},{"name":"feeGrowthInside0X128LastWithdrawal","type":"uint256","internalType":"uint256"},{"name":"feeGrowthInside1X128LastWithdrawal","type":"uint256","internalType":"uint256"}],"outputs":[{"name":"fees0","type":"uint256","internalType":"uint256"},{"name":"fees1","type":"uint256","internalType":"uint256"}],"stateMutability":"view"},{"type":"function","name":"getFeesAccruedGlobal","inputs":[{"name":"poolId","type":"bytes32","internalType":"PoolId"},{"name":"feesGrowthGlobal0X128LastWithdrawal","type":"uint256","internalType":"uint256"},{"name":"feesGrowthGlobal1X128LastWithdrawal","type":"uint256","internalType":"uint256"}],"outputs":[{"name":"feesGlobal0","type":"uint256","internalType":"uint256"},{"name":"feesGlobal1","type":"uint256","internalType":"uint256"}],"stateMutability":"view"},{"type":"function","name":"getHooksRegistrationBitmap","inputs":[],"outputs":[{"name":"","type":"uint16","internalType":"uint16"}],"stateMutability":"pure"},{"type":"function","name":"getRewards","inputs":[{"name":"pool","type":"bytes32","internalType":"PoolId"},{"name":"rewardToken","type":"address","internalType":"contract IERC20"}],"outputs":[{"name":"","type":"uint256","internalType":"uint256"},{"name":"","type":"uint256","internalType":"uint256"}],"stateMutability":"view"},{"type":"function","name":"lastWithdrawals","inputs":[{"name":"","type":"bytes32","internalType":"bytes32"}],"outputs":[{"name":"feeGrowthInside0X128","type":"uint256","internalType":"uint256"},{"name":"feeGrowthInside1X128","type":"uint256","internalType":"uint256"},{"name":"feesGrowthGlobal0X128","type":"uint256","internalType":"uint256"},{"name":"feesGrowthGlobal1X128","type":"uint256","internalType":"uint256"},{"name":"timestamp","type":"uint256","internalType":"uint256"}],"stateMutability":"view"},{"type":"function","name":"listAllRewards","inputs":[{"name":"user","type":"address","internalType":"address"}],"outputs":[{"name":"","type":"tuple[]","internalType":"struct Catapoolt.Reward[]","components":[{"name":"id","type":"uint256","internalType":"uint256"},{"name":"campaignId","type":"uint256","internalType":"uint256"},{"name":"user","type":"address","internalType":"address"},{"name":"amount","type":"uint256","internalType":"uint256"},{"name":"claimed","type":"bool","internalType":"bool"},{"name":"claimedAt","type":"uint256","internalType":"uint256"}]}],"stateMutability":"view"},{"type":"function","name":"listRewards","inputs":[{"name":"user","type":"address","internalType":"address"},{"name":"campaignId","type":"uint256","internalType":"uint256"}],"outputs":[{"name":"","type":"tuple","internalType":"struct Catapoolt.Reward","components":[{"name":"id","type":"uint256","internalType":"uint256"},{"name":"campaignId","type":"uint256","internalType":"uint256"},{"name":"user","type":"address","internalType":"address"},{"name":"amount","type":"uint256","internalType":"uint256"},{"name":"claimed","type":"bool","internalType":"bool"},{"name":"claimedAt","type":"uint256","internalType":"uint256"}]}],"stateMutability":"view"},{"type":"function","name":"lockAcquired","inputs":[{"name":"data","type":"bytes","internalType":"bytes"}],"outputs":[{"name":"","type":"bytes","internalType":"bytes"}],"stateMutability":"nonpayable"},{"type":"function","name":"ogMultipliers","inputs":[{"name":"","type":"address","internalType":"address"},{"name":"","type":"bytes32","internalType":"PoolId"}],"outputs":[{"name":"","type":"uint256","internalType":"uint256"}],"stateMutability":"view"},{"type":"function","name":"owner","inputs":[],"outputs":[{"name":"","type":"address","internalType":"address"}],"stateMutability":"view"},{"type":"function","name":"poolManager","inputs":[],"outputs":[{"name":"","type":"address","internalType":"contract ICLPoolManager"}],"stateMutability":"view"},{"type":"function","name":"renounceOwnership","inputs":[],"outputs":[],"stateMutability":"nonpayable"},{"type":"function","name":"rewardClaims","inputs":[{"name":"","type":"address","internalType":"address"},{"name":"","type":"uint256","internalType":"uint256"}],"outputs":[{"name":"campaignId","type":"uint256","internalType":"uint256"},{"name":"user","type":"address","internalType":"address"},{"name":"amount","type":"uint256","internalType":"uint256"},{"name":"claimedAt","type":"uint256","internalType":"uint256"}],"stateMutability":"view"},{"type":"function","name":"rewardClaimsCount","inputs":[{"name":"","type":"address","internalType":"address"}],"outputs":[{"name":"","type":"uint256","internalType":"uint256"}],"stateMutability":"view"},{"type":"function","name":"rewards","inputs":[{"name":"","type":"bytes32","internalType":"PoolId"},{"name":"","type":"address","internalType":"contract IERC20"}],"outputs":[{"name":"amountPerSecond","type":"uint256","internalType":"uint256"},{"name":"durationInSeconds","type":"uint256","internalType":"uint256"}],"stateMutability":"view"},{"type":"function","name":"setVkHash","inputs":[{"name":"_vkHash","type":"bytes32","internalType":"bytes32"}],"outputs":[],"stateMutability":"nonpayable"},{"type":"function","name":"transferOwnership","inputs":[{"name":"newOwner","type":"address","internalType":"address"}],"outputs":[],"stateMutability":"nonpayable"},{"type":"function","name":"userPositions","inputs":[{"name":"","type":"address","internalType":"address"},{"name":"","type":"uint256","internalType":"uint256"}],"outputs":[{"name":"poolId","type":"bytes32","internalType":"PoolId"},{"name":"owner","type":"address","internalType":"address"},{"name":"tickLower","type":"int24","internalType":"int24"},{"name":"tickUpper","type":"int24","internalType":"int24"},{"name":"salt","type":"bytes32","internalType":"bytes32"}],"stateMutability":"view"},{"type":"function","name":"vault","inputs":[],"outputs":[{"name":"","type":"address","internalType":"contract IVault"}],"stateMutability":"view"},{"type":"function","name":"vkHash","inputs":[],"outputs":[{"name":"","type":"bytes32","internalType":"bytes32"}],"stateMutability":"view"},{"type":"function","name":"withdrawRewards","inputs":[{"name":"params","type":"tuple","internalType":"struct Catapoolt.PositionParams","components":[{"name":"poolId","type":"bytes32","internalType":"PoolId"},{"name":"owner","type":"address","internalType":"address"},{"name":"tickLower","type":"int24","internalType":"int24"},{"name":"tickUpper","type":"int24","internalType":"int24"},{"name":"salt","type":"bytes32","internalType":"bytes32"}]},{"name":"rewardToken","type":"address","internalType":"contract IERC20"},{"name":"claimer","type":"address","internalType":"address"}],"outputs":[{"name":"rewards0","type":"uint256","internalType":"uint256"},{"name":"rewards1","type":"uint256","internalType":"uint256"}],"stateMutability":"nonpayable"},{"type":"event","name":"CampaignCreated","inputs":[{"name":"id","type":"uint256","indexed":true,"internalType":"uint256"},{"name":"pool","type":"bytes32","indexed":true,"internalType":"PoolId"},{"name":"rewardAmount","type":"uint256","indexed":false,"internalType":"uint256"},{"name":"rewardToken","type":"address","indexed":false,"internalType":"address"},{"name":"startsAt","type":"uint256","indexed":false,"internalType":"uint256"},{"name":"endsAt","type":"uint256","indexed":false,"internalType":"uint256"}],"anonymous":false},{"type":"event","name":"OGProofSubmitted","inputs":[{"name":"wallet","type":"address","indexed":true,"internalType":"address"},{"name":"token","type":"address","indexed":true,"internalType":"address"},{"name":"amount","type":"uint256","indexed":false,"internalType":"uint256"}],"anonymous":false},{"type":"event","name":"OwnershipTransferred","inputs":[{"name":"previousOwner","type":"address","indexed":true,"internalType":"address"},{"name":"newOwner","type":"address","indexed":true,"internalType":"address"}],"anonymous":false},{"type":"error","name":"AddressEmptyCode","inputs":[{"name":"target","type":"address","internalType":"address"}]},{"type":"error","name":"AddressInsufficientBalance","inputs":[{"name":"account","type":"address","internalType":"address"}]},{"type":"error","name":"FailedInnerCall","inputs":[]},{"type":"error","name":"HookNotImplemented","inputs":[]},{"type":"error","name":"InvalidPool","inputs":[]},{"type":"error","name":"LockFailure","inputs":[]},{"type":"error","name":"NotPoolManager","inputs":[]},{"type":"error","name":"NotSelf","inputs":[]},{"type":"error","name":"NotVault","inputs":[]},{"type":"error","name":"OwnableInvalidOwner","inputs":[{"name":"owner","type":"address","internalType":"address"}]},{"type":"error","name":"OwnableUnauthorizedAccount","inputs":[{"name":"account","type":"address","internalType":"address"}]},{"type":"error","name":"SafeERC20FailedOperation","inputs":[{"name":"token","type":"address","internalType":"address"}]}],"bytecode":{"object":"0x60c080604052346101f1576060816131b8803803809161001f8285610208565b8339810103126101f15780516001600160a01b0381168082036101f15760208301516001600160a01b03811693908490036101f157604001516001600160a01b03811692908390036101f15760805260405163fbfa77cf60e01b815290602090829060049082905afa9081156101fd575f916101b7575b5060a052604080519081016001600160401b038111828210176101a3576040526001600160401b0381526001602090910181905280546001600160481b0319166001600160411b031790555f80546001600160a01b03191691909117905533156101905760028054336001600160a01b0319821681179092556040519291906001600160a01b03167f8be0079c531659141344cd1fd0a4f28419497f9722a3daafe3b4186f6b6457e05f80a3600980546001600160a01b031916919091179055612f8c908161022c8239608051818181610571015281816108b7015281816124b60152612745015260a0518181816102790152610e300152f35b631e4fbdf760e01b5f525f60045260245ffd5b634e487b7160e01b5f52604160045260245ffd5b90506020813d6020116101f5575b816101d260209383610208565b810103126101f157516001600160a01b03811681036101f1575f610096565b5f80fd5b3d91506101c5565b6040513d5f823e3d90fd5b601f909101601f19168101906001600160401b038211908210176101a35760405256fe60806040526004361015610011575f80fd5b5f803560e01c8063141961bc14611fdf57806315126d3414611fbb5780631ffe6a5814611f2e57806330dfa67014611f055780633480165714611cea57806338931a3114611cc35780633bca02fc14611c2b57806344c89b6514611c0e57806346c483fa14611bbf5780634b6a682d14611b7c5780634fe840f514611b5f57806350c399f714611b095780635304d44e14611ac75780635309e33d1461186c5780635598f8cc146117a85780635e1b4d991461172d5780636c10f1d1146116e95780636f6657cb14611668578063715018a61461160d578063718f6ccd1461151b578063779682c9146114985780637859f6d91461147757806379d6b6a2146114255780637aa43ce0146113da578063851ca9d0146110b85780638da5cb5b146110905780639246d9c514611058578063972e19a214610fd357806397b71c2214610f62578063a6b0363314610e92578063ab6291fe14610dfd578063ae169a5014610bd0578063b471ad2114610ba6578063c1bde0e114610b76578063d1083cb114610875578063d533c4db146105a0578063dc4c90d31461055c578063dd8234ee14610523578063e592dc9314610492578063e8246c7f1461042d578063ed50e1da146103e0578063f2fde38b1461035a578063f961d1f4146102a8578063fbfa77cf146102635763fe70c9c914610209575f80fd5b346102605760049061021a36612420565b505050505061025460405161023060408261239a565b60128152716265666f72654164644c697175696469747960701b6020820152612c6c565b630a85dc2960e01b8152fd5b80fd5b50346102605780600319360112610260576040517f00000000000000000000000000000000000000000000000000000000000000006001600160a01b03168152602090f35b34610356575f366003190112610356576040516101c081018181106001600160401b038211176103425760409081525f80835260208084018290528284018290526001606085018190526080850183905260a085015260c0840182905260e08401829052610100840182905261012084018290526101408401829052610160840182905261018084018290526101a0909301525160288152f35b634e487b7160e01b5f52604160045260245ffd5b5f80fd5b34610356576020366003190112610356576103736120aa565b61037b612dff565b6001600160a01b031680156103cd57600280546001600160a01b0319811683179091556001600160a01b03167f8be0079c531659141344cd1fd0a4f28419497f9722a3daafe3b4186f6b6457e05f80a3005b631e4fbdf760e01b5f525f60045260245ffd5b34610356576040366003190112610356576103f96120c0565b6004355f52600f60205260405f209060018060a01b03165f526020526040805f206001815491015482519182526020820152f35b346103565761043b36612420565b505050505061048060405161045160408261239a565b602081527f43415441504f4f4c543a206265666f726552656d6f76654c69717569646974796020820152612c6c565b60405163e8246c7f60e01b8152602090f35b3461035657610160366003190112610356576104ac6120aa565b5060c03660231901126103565760603660e319011261035657610144356001600160401b038111610356576104e5903690600401612127565b50506105146040516104f860408261239a565b600a81526906265666f7265537761760b41b6020820152612c6c565b630a85dc2960e01b5f5260045ffd5b346103565760c0366003190112610356576040610550610542366123bb565b61054a612154565b90612b2e565b82519182526020820152f35b34610356575f366003190112610356576040517f00000000000000000000000000000000000000000000000000000000000000006001600160a01b03168152602090f35b34610356576105ae366122c1565b5050509091506040916105f583516105c6858261239a565b601c81527f43415441504f4f4c543a2061667465724164644c6971756964697479000000006020820152612c6c565b60c08136031261035657825161060a8161237f565b610613826120ec565b8152610621602083016120ec565b6020820152818401356001600160a01b0381168103610356578185015260608201356001600160a01b0381168103610356576060820152608082013562ffffff811681036103565760c09260a0916080840152013560a08201522060608201356024602060018060a01b03600954168651928380926331a9108f60e11b82528660048301525afa90811561086b575f91610829575b505f8061070961072788516106cb8a8261239a565b600f81526e2827a9a4aa24a7a71027bbb732b91d60891b6020820152895192839163319af33360e01b60208401528b60248401526064830190612324565b9560018060a01b03169586604483015203601f19810183528261239a565b6020815191016a636f6e736f6c652e6c6f675afa50610751602061074a86612b20565b9501612b20565b85519361075d85612348565b845260208401918083528685019560020b8652606085019160020b8252608085019384525f52600a602052855f208054600160401b811015610342576107a89160018201815561225c565b959095610816579351855590516001850180549451925160b81b62ffffff60b81b1662ffffff60a01b60a09490941b939093166001600160a01b039092166001600160d01b031990951694909417171790915551600290910155805163d533c4db60e01b81525f6020820152f35b634e487b7160e01b5f525f60045260245ffd5b90506020813d602011610863575b816108446020938361239a565b8101031261035657516001600160a01b038116810361035657856106b6565b3d9150610837565b85513d5f823e3d90fd5b346103565760e03660031901126103565761088f366123bb565b610897612154565b906108a06120d6565b916108ab8183612b2e565b91909260018060a01b037f00000000000000000000000000000000000000000000000000000000000000001690805191602082019060018060a01b038251166040840192835160020b95606080870193845160020b9261092760808a01948551906040519c8d958695637388426b60e01b875260048701612275565b0381875afa968715610ac8575f97610b45575b506040865160248251809781936313d8a71960e31b835260048301525afa928315610ac8576004965f955f95610b0d575b5095610991949596519360018060a01b03905116905160020b915160020b925193612e26565b9160406020860151950151604051956109a987612348565b865260208601908152604086019182526060860192835260808601934285525f52600e60205260405f2095518655516001860155516002850155516003840155519101556109f782846128ef565b6040516370a0823160e01b815230600482015290916001600160a01b031690602081602481855afa908115610ac8575f91610ad3575b5090610a7995610a4284602095941015612ac7565b60405163a9059cbb60e01b81526001600160a01b0390911660048201526024810192909252909485919082905f9082906044820190565b03925af1928315610ac857604093610a99575b5082519182526020820152f35b610aba9060203d602011610ac1575b610ab2818361239a565b810190612536565b5083610a8c565b503d610aa8565b6040513d5f823e3d90fd5b929190506020833d602011610b05575b81610af06020938361239a565b81010312610356579151909190610a79610a2d565b3d9150610ae3565b610b35919650610991955060403d604011610b3e575b610b2d818361239a565b81019061247f565b9095909461096b565b503d610b23565b610b6891975060603d606011610b6f575b610b60818361239a565b8101906126bf565b958b61093a565b503d610b56565b34610356575f36600319011261035657604060015460ff8251916001600160401b0381168352831c166020820152f35b34610356576020366003190112610356576004355f52600b602052602060405f2054604051908152f35b3461035657602036600319011261035657600435610bed8161207a565b506001600160a01b0390606090610c039061287e565b0151166060610c1283336128fc565b0190815115610dc2576040516370a0823160e01b815230600482015290602082602481845afa918215610ac8575f92610d8c575b50610c87602091610c5b5f9486511115612ac7565b845160405163a9059cbb60e01b8152336004820152602481019190915293849283919082906044820190565b03925af18015610ac857610d6f575b508051610cb16002610ca78561207a565b5001918254612b13565b9055519060405190608082018281106001600160401b038211176103425760405281526020810191338352604082019081526060820190428252335f52600c60205260405f208054600160401b81101561034257610d14916001820181556122a8565b949094610816579251845591516001840180546001600160a01b0319166001600160a01b0392909216919091179055905160028301555160039190910155335f908152600d602052604090208054610d6b9061285c565b9055005b610d879060203d602011610ac157610ab2818361239a565b610c96565b91506020823d602011610dba575b81610da76020938361239a565b8101031261035657905190610c87610c46565b3d9150610d9a565b60405162461bcd60e51b81526020600482015260136024820152724e6f207265776172647320746f20636c61696d60681b6044820152606490fd5b34610356576020366003190112610356576004356001600160401b03811161035657610e2d903690600401612127565b907f00000000000000000000000000000000000000000000000000000000000000006001600160a01b03163303610e8357610e7f91610e6b91612a80565b604051918291602083526020830190612324565b0390f35b6362df054560e01b5f5260045ffd5b34610356575f36600319011261035657600354610eae816127b2565b90610ebc604051928361239a565b80825260208201908160035f527fc2575a0e9e593c00f959f8c92f12db2869c3395a3b0502d05e2516446f71f85b5f915b838310610f44578486604051918291602083019060208452518091526040830191905f5b818110610f1f575050500390f35b91935091602061012082610f3660019488516121f6565b019401910191849392610f11565b60096020600192610f548561287e565b815201920192019190610eed565b346103565760403660031901126103565760c0610f89610f806120aa565b602435906128fc565b610fd1604051809260a080918051845260208101516020850152600180831b036040820151166040850152606081015160608501526080810151151560808501520151910152565bf35b346103565761012036600319011261035657610fed6120aa565b5060c036602319011261035657611002612100565b50610104356001600160401b03811161035657611023903690600401612127565b505061051460405161103660408261239a565b601081526f6265666f7265496e697469616c697a6560801b6020820152612c6c565b34610356576020366003190112610356576001600160a01b036110796120aa565b165f52600d602052602060405f2054604051908152f35b34610356575f366003190112610356576002546040516001600160a01b039091168152602090f35b3461035657610100366003190112610356576044356024356004356001600160a01b0383168084036103565760643592608435946110f46120d6565b91831561139557858711156113465780156112f1576111565f8060405160208101906323b872dd60e01b82523360248201523060448201528560648201526064815261114160848261239a565b519082895af161114f612a51565b9086612ef8565b80519081151591826112d6575b50506112c357600454956040519761117a89612363565b878952602089019187835260408a019584875260608b0197885260808b019a828c5260a081019184835260c082019060a435825260e083019060018060a01b0316815261010083019160e4358352600354600160401b811015610342578060016111e7920160035561207a565b9590956108165793518555965160018501559851600284015598516003830180546001600160a01b03199081166001600160a01b03938416179091559c51600484015590516005830155935160068201559551600787018054909b169084161790995594516008909401939093555f858152600b60209081526040918290208890558151928352929093168183015291820195909552606081019190915282907f3f1409f785e0e4dbb192a711559a3ce534f2ff9a446f939875de41c66ee4a7eb90608090a36112b860045461285c565b600455604051908152f35b83635274afe760e01b5f5260045260245ffd5b6112e99250602080918301019101612536565b158880611163565b60405162461bcd60e51b815260206004820152602760248201527f52657761726420616d6f756e74206d7573742062652067726561746572207468604482015266616e207a65726f60c81b6064820152608490fd5b60405162461bcd60e51b815260206004820152602160248201527f456e642074696d65206d7573742062652061667465722073746172742074696d6044820152606560f81b6064820152608490fd5b60405162461bcd60e51b815260206004820152601c60248201527f496e76616c69642072657761726420746f6b656e2061646472657373000000006044820152606490fd5b34610356576113e8366122c1565b5050505050506105146040516113ff60408261239a565b6014815273616674657252656d6f76654c697175696469747960601b6020820152612c6c565b34610356576040366003190112610356576024356001600160401b03811161035657611458611475913690600401612127565b9061146d60018060a01b035f54163314612682565b600435612d00565b005b3461035657602036600319011261035657611490612dff565b600435600555005b34610356576040366003190112610356576114b16120aa565b6001600160a01b03165f908152600c60205260409020805460243590811015610356576114dd916122a8565b50805460018201546002830154600390930154604080519384526001600160a01b039092166020840152908201929092526060810191909152608090f35b346103565760a0366003190112610356576024356001600160401b038116809103610356576064356084356001600160401b0381116103565760c4926115676020923690600401612127565b929091611572612cbe565b96909160018060a01b035f541660ff604051998a95869463054eee2f60e41b8652600435600487015260248601528a6044860152604435606486015260848501521660a48301525afa918215610ac8576115da6115e193611475965f916115ee575b50612572565b3691612607565b602081519101201461263d565b611607915060203d602011610ac157610ab2818361239a565b876115d4565b34610356575f36600319011261035657611625612dff565b600280546001600160a01b031981169091555f906001600160a01b03167f8be0079c531659141344cd1fd0a4f28419497f9722a3daafe3b4186f6b6457e08280a3005b3461035657610180366003190112610356576116826120aa565b5060c03660231901126103565760603660e319011261035657610164356001600160401b038111610356576116bb903690600401612127565b50506105146040516116ce60408261239a565b600981526806166746572537761760bc1b6020820152612c6c565b34610356576040366003190112610356576001600160a01b0361170a6120aa565b165f52600860205260405f206024355f52602052602060405f2054604051908152f35b34610356576040366003190112610356576117466120aa565b6001600160a01b03165f908152600a60205260409020805460243590811015610356576117729161225c565b50805490610e7f600260018301549201546040519383859460b81c60020b918160a01c60020b9160018060a01b03169086612275565b34610356576020366003190112610356576004355f6101006040516117cc81612363565b8281528260208201528260408201528260608201528260808201528260a08201528260c08201528260e082015201526003548110156118275761181a6118146101209261207a565b5061287e565b610fd160405180926121f6565b60405162461bcd60e51b815260206004820152601760248201527f43616d706169676e20646f6573206e6f742065786973740000000000000000006044820152606490fd5b34610356576020366003190112610356576118856120aa565b60018060a01b0381165f52600a60205260405f209081546118a5816127b2565b926118b3604051948561239a565b81845260208401905f5260205f205f915b838310611a7157858581516118d8816127b2565b906118e6604051928361239a565b8082526118f5601f19916127b2565b013660208301375f61190784516127f9565b5f5b85518110156119a75761191c8187612848565b51515f52600b60205260405f20545f805b858110611984575b5015611945575b50600101611909565b836119628261197d9361195b600196988a612848565b52886128fc565b61196c8286612848565b526119778185612848565b5061285c565b929061193c565b8261198f8289612848565b511461199d5760010161192d565b5050600188611935565b50906119b2816127f9565b915f5b828110611a4757836040518091602082016020835281518091526020604084019201905f5b8181106119e8575050500390f35b91935091602060c082611a39600194885160a080918051845260208101516020850152600180831b036040820151166040850152606081015160608501526080810151151560808501520151910152565b0194019101918493926119da565b80611a5460019284612848565b51611a5f8287612848565b52611a6a8186612848565b50016119b5565b60036020600192604051611a8481612348565b8554815284860154858060a01b038116848301528060a01c60020b604083015260b81c60020b6060820152600286015460808201528152019201920191906118c4565b3461035657611ad53661219a565b505050505050610514604051611aec60408261239a565b600b81526a6166746572446f6e61746560a81b6020820152612c6c565b34610356576020366003190112610356576004355f52600e60205260a060405f20805490600181015490600281015460046003830154920154926040519485526020850152604084015260608301526080820152f35b34610356575f366003190112610356576020600554604051908152f35b3461035657611b8a3661219a565b505050505050610514604051611ba160408261239a565b600c81526b6265666f7265446f6e61746560a01b6020820152612c6c565b346103565760e036600319011261035657611bd86120c0565b604435908160020b8203610356576064358060020b8103610356576040926105509260c4359260a435926084359260043561271c565b34610356575f366003190112610356576020600454604051908152f35b34610356576040366003190112610356576004356001600160401b03811161035657611c5b90369060040161216a565b6024356001600160401b03811161035657611c7a90369060040161216a565b90611c8f60018060a01b035f54163314612682565b5f5b838110611c9a57005b80611cbd611cab60019387896125b6565b35611cb78387876125c6565b91612d00565b01611c91565b34610356575f366003190112610356575f546040516001600160a01b039091168152602090f35b346103565760a0366003190112610356576004356001600160401b03811161035657611d1a90369060040161216a565b6024356001600160401b03811161035657611d3990369060040161216a565b906044356001600160401b03811161035657611d5990369060040161216a565b9290916064356001600160401b03811161035657611d7b90369060040161216a565b96608435906001600160401b038211610356576004888792611de28a8799988e611daa60c0993690890161216a565b9c909b6020611db7612cbe565b97909860018060a01b035f54169a6040519e8f9d8e63a90f4bd760e01b8152015260c48d019161254e565b8a81036003190160248c01528281520193905f905b808210611ec657505050602098889694611e2560ff95899895611e37956003198b84030160448c015261254e565b8781036003190160648901529161254e565b9260848501521660a483015203915afa8015610ac857611e5d915f91611ea75750612572565b5f5b868110611e6857005b80611e88611e796001938b866125b6565b356115e16115da8489896125c6565b611e938188886125b6565b50611e9f8186866125c6565b505001611e5f565b611ec0915060203d602011610ac157610ab2818361239a565b896115d4565b95509597995095975050508335906001600160401b038216809203610356576020816001938293520194019201928e898d9896948f94968b9997611df7565b3461035657604036600319011261035657611f1e6120c0565b50604080515f81525f6020820152f35b346103565761014036600319011261035657611f486120aa565b5060c036602319011261035657611f5d612100565b50611f66612116565b50610124356001600160401b03811161035657611f87903690600401612127565b5050610514604051611f9a60408261239a565b600f81526e6166746572496e697469616c697a6560881b6020820152612c6c565b34610356576060366003190112610356576040610550604435602435600435612495565b3461035657602036600319011261035657600435600354811015610356576120096101209161207a565b50805490600181015490600281015460018060a01b036003830154166004830154600584015491600685015493600860018060a01b0360078801541696015496604051988952602089015260408801526060870152608086015260a085015260c084015260e0830152610100820152f35b6003548110156120965760035f52600960205f20910201905f90565b634e487b7160e01b5f52603260045260245ffd5b600435906001600160a01b038216820361035657565b602435906001600160a01b038216820361035657565b60c435906001600160a01b038216820361035657565b35906001600160a01b038216820361035657565b60e435906001600160a01b038216820361035657565b61010435908160020b820361035657565b9181601f84011215610356578235916001600160401b038311610356576020838186019501011161035657565b60a435906001600160a01b038216820361035657565b9181601f84011215610356578235916001600160401b038311610356576020808501948460051b01011161035657565b610140600319820112610356576004356001600160a01b0381168103610356579160c06023198301126103565760249160e43591610104359161012435906001600160401b038211610356576121f291600401612127565b9091565b610100809180518452602081015160208501526040810151604085015260018060a01b0360608201511660608501526080810151608085015260a081015160a085015260c081015160c085015260018060a01b0360e08201511660e08501520151910152565b8054821015612096575f52600360205f20910201905f90565b9081526001600160a01b039091166020820152600291820b604082015291900b6060820152608081019190915260a00190565b8054821015612096575f5260205f209060021b01905f90565b6101a0600319820112610356576004356001600160a01b0381168103610356579160c060231983011261035657602491608060e3198201126103565760e491610164359161018435906001600160401b038211610356576121f291600401612127565b805180835260209291819084018484015e5f828201840152601f01601f1916010190565b60a081019081106001600160401b0382111761034257604052565b61012081019081106001600160401b0382111761034257604052565b60c081019081106001600160401b0382111761034257604052565b90601f801991011681019081106001600160401b0382111761034257604052565b60a090600319011261035657604051906123d482612348565b6004358252816024356001600160a01b03811681036103565760208201526044358060020b81036103565760408201526064358060020b81036103565760608201526080608435910152565b90610180600319830112610356576004356001600160a01b0381168103610356579160c060231982011261035657602491608060e3198301126103565760e49161016435906001600160401b038211610356576121f291600401612127565b9190826040910312610356576020825192015190565b604080516313d8a71960e31b815260048101929092529093929190846024817f00000000000000000000000000000000000000000000000000000000000000006001600160a01b03165afa938415610ac8575f905f956124f7575b5003920390565b905061251391945060403d604011610b3e57610b2d818361239a565b93905f6124f0565b6001600160401b03811161034257601f01601f191660200190565b90816020910312610356575180151581036103565790565b81835290916001600160fb1b0383116103565760209260051b809284830137010190565b1561257957565b60405162461bcd60e51b815260206004820152601560248201527464617461206e6f7420726561647920746f2075736560581b6044820152606490fd5b91908110156120965760051b0190565b91908110156120965760051b81013590601e19813603018212156103565701908135916001600160401b038311610356576020018236038113610356579190565b9291926126138261251b565b91612621604051938461239a565b829481845281830111610356578281602093845f960137010152565b1561264457565b60405162461bcd60e51b81526020600482015260166024820152751a5b9d985b1a590818da5c98dd5a5d081bdd5d1c1d5d60521b6044820152606490fd5b1561268957565b60405162461bcd60e51b815260206004820152600e60248201526d34b73b30b634b21031b0b63632b960911b6044820152606490fd5b908160609103126103565760405190606082018281106001600160401b03821117610342576040528051906fffffffffffffffffffffffffffffffff82168203610356576040918352602081015160208401520151604082015290565b604051637388426b60e01b815297969594606094899485946127419460048701612275565b03817f00000000000000000000000000000000000000000000000000000000000000006001600160a01b03165afa938415610ac8575f9461278e575b506040906020850151039301510390565b60409194506127ab9060603d606011610b6f57610b60818361239a565b939061277d565b6001600160401b0381116103425760051b60200190565b604051906127d68261237f565b5f60a0838281528260208201528260408201528260608201528260808201520152565b90612803826127b2565b612810604051918261239a565b8281528092612821601f19916127b2565b01905f5b82811061283157505050565b60209061283c6127c9565b82828501015201612825565b80518210156120965760209160051b010190565b5f19811461286a5760010190565b634e487b7160e01b5f52601160045260245ffd5b9060405161288b81612363565b82548152600183015460208201526002830154604082015260038301546001600160a01b03908116606083015260048401546080830152600584015460a0830152600684015460c083015260078401541660e0820152600890920154610100830152565b9190820180921161286a57565b6129046127c9565b506001600160a01b03165f818152600a6020526040902080549192909161292a816127b2565b92612938604051948561239a565b81845260208401905f5260205f205f915b8383106129fb57505050505f905f5b83518110156129c95761296b8185612848565b51515f52600b6020528160405f205414612988575b600101612958565b916129c16001916129bb6129bb61299e8661207a565b506003868060a01b03910154166129b5888a612848565b51612b2e565b906128ef565b929050612980565b50604051939192506129da8461237f565b5f84526020840152604083015260608201525f60808201525f60a082015290565b60036020600192604051612a0e81612348565b8554815284860154858060a01b038116848301528060a01c60020b604083015260b81c60020b606082015260028601546080820152815201920192019190612949565b3d15612a7b573d90612a628261251b565b91612a70604051938461239a565b82523d5f602084013e565b606090565b5f9182918160405192839283378101838152039082305af190612aa1612a51565b91612ac55750805115612ab657602081519101fd5b6314815f4760e31b5f5260045ffd5b565b15612ace57565b60405162461bcd60e51b815260206004820152601d60248201527f496e73756666696369656e7420636f6e74726163742062616c616e63650000006044820152606490fd5b9190820391821161286a57565b358060020b81036103565790565b9190918051926020820193600160a01b60019003855116926040810195865160020b926060830195865160020b6080850195865192612b6c94612e26565b5f52600e60205260405f209260405197612b8589612348565b845490818a526001860154928360208c015260028701549860408c01998a5260038801549760608d01988952600401549b6080019b8c52865195600160a01b60019003905116925160020b905160020b915192612be19661271c565b94909282519151905190612bf492612495565b939096514290612c0391612b13565b91515f52600f60205260405f2090600160a01b60019003165f5260205260405f20549081810291818304149015171561286a5760011c948581612c5e575050505f5b9381612c52575050505f90565b612c5b92612e78565b90565b612c6792612e78565b612c45565b5f612c99612ca7829360405192839163104c13eb60e21b6020840152602060248401526044830190612324565b03601f19810183528261239a565b6020815191016a636f6e736f6c652e6c6f675afa50565b6040519060408201918083106001600160401b03841117610342576020926040526001549060ff6001600160401b0383169283835260401c1693849101529190565b60055403612dcd578160141161035657803560601c906028831061035657601481013560601c92604811610356576028013582827f0b419c8e88706e335c47ef53387007f9bcb19126b13d9a36c48d050b20137c576020604051858152a35f5b835f52600760205260405f2054811015612dc757600190845f526006602052612d8c8160405f206122a8565b5082810154841015612da0575b5001612d60565b600381015490855f526008602052600260405f209101545f5260205260405f20555f612d99565b50505050565b60405162461bcd60e51b815260206004820152600a602482015269696e76616c696420766b60b01b6044820152606490fd5b6002546001600160a01b03163303612e1357565b63118cdaa760e01b5f523360045260245ffd5b939192909260405193602085019586526bffffffffffffffffffffffff199060601b16604085015260e81b605484015260e81b6057830152605a820152605a8152612e72607a8261239a565b51902090565b91818302915f19818509938380861095039480860395868511156103565714612ef0579082910981805f03168092046002816003021880820260020302808202600203028082026002030280820260020302808202600203028091026002030293600183805f03040190848311900302920304170290565b505091500490565b90612f1c5750805115612f0d57805190602001fd5b630a12f52160e11b5f5260045ffd5b81511580612f4d575b612f2d575090565b639996b31560e01b5f9081526001600160a01b0391909116600452602490fd5b50803b15612f2556fea26469706673582212205e0529d130b40ee17ff2b2073dd5007e9fc4d4a6547386670bbd889dff727b3664736f6c634300081a0033","linkReferences":{}},"methodIdentifiers":{"afterAddLiquidity(address,(address,address,address,address,uint24,bytes32),(int24,int24,int256,bytes32),int256,bytes)":"d533c4db","afterDonate(address,(address,address,address,address,uint24,bytes32),uint256,uint256,bytes)":"5304d44e","afterInitialize(address,(address,address,address,address,uint24,bytes32),uint160,int24,bytes)":"1ffe6a58","afterRemoveLiquidity(address,(address,address,address,address,uint24,bytes32),(int24,int24,int256,bytes32),int256,bytes)":"7aa43ce0","afterSwap(address,(address,address,address,address,uint24,bytes32),(bool,int256,uint160),int256,bytes)":"6f6657cb","applyBrevisOpResult(bytes32,uint64,bytes32,bytes32,bytes)":"718f6ccd","applyBrevisOpResults(bytes32[],uint64[],bytes32[],bytes32[],bytes[])":"34801657","beforeAddLiquidity(address,(address,address,address,address,uint24,bytes32),(int24,int24,int256,bytes32),bytes)":"fe70c9c9","beforeDonate(address,(address,address,address,address,uint24,bytes32),uint256,uint256,bytes)":"4b6a682d","beforeInitialize(address,(address,address,address,address,uint24,bytes32),uint160,bytes)":"972e19a2","beforeRemoveLiquidity(address,(address,address,address,address,uint24,bytes32),(int24,int24,int256,bytes32),bytes)":"e8246c7f","beforeSwap(address,(address,address,address,address,uint24,bytes32),(bool,int256,uint160),bytes)":"e592dc93","brevisBatchCallback(bytes32[],bytes[])":"3bca02fc","brevisCallback(bytes32,bytes)":"79d6b6a2","brevisOpConfig()":"c1bde0e1","brevisRequest()":"38931a31","calculateRewards((bytes32,address,int24,int24,bytes32),address)":"dd8234ee","campaignIds(bytes32)":"b471ad21","campaigns(uint256)":"141961bc","campaignsCount()":"44c89b65","claimReward(uint256)":"ae169a50","createCampaign(bytes32,uint256,address,uint256,uint256,uint256,address,uint256)":"851ca9d0","getCampaign(uint256)":"5598f8cc","getCampaigns()":"a6b03633","getFeesAccrued(bytes32,address,int24,int24,bytes32,uint256,uint256)":"46c483fa","getFeesAccruedGlobal(bytes32,uint256,uint256)":"15126d34","getHooksRegistrationBitmap()":"f961d1f4","getRewards(bytes32,address)":"30dfa670","lastWithdrawals(bytes32)":"50c399f7","listAllRewards(address)":"5309e33d","listRewards(address,uint256)":"97b71c22","lockAcquired(bytes)":"ab6291fe","ogMultipliers(address,bytes32)":"6c10f1d1","owner()":"8da5cb5b","poolManager()":"dc4c90d3","renounceOwnership()":"715018a6","rewardClaims(address,uint256)":"779682c9","rewardClaimsCount(address)":"9246d9c5","rewards(bytes32,address)":"ed50e1da","setVkHash(bytes32)":"7859f6d9","transferOwnership(address)":"f2fde38b","userPositions(address,uint256)":"5e1b4d99","vault()":"fbfa77cf","vkHash()":"4fe840f5","withdrawRewards((bytes32,address,int24,int24,bytes32),address,address)":"d1083cb1"},"id":117}