{"abi":[{"type":"function","name":"campaignId","inputs":[],"outputs":[{"name":"","type":"uint256","internalType":"uint256"}],"stateMutability":"view"},{"type":"function","name":"campaigns","inputs":[{"name":"","type":"uint256","internalType":"uint256"}],"outputs":[{"name":"id","type":"uint256","internalType":"uint256"},{"name":"pool","type":"address","internalType":"address"},{"name":"rewardAmount","type":"uint256","internalType":"uint256"},{"name":"rewardToken","type":"address","internalType":"address"},{"name":"startsAt","type":"uint256","internalType":"uint256"},{"name":"endsAt","type":"uint256","internalType":"uint256"},{"name":"earnedFeesAmount","type":"uint256","internalType":"uint256"},{"name":"feeToken","type":"address","internalType":"address"},{"name":"minFees","type":"uint256","internalType":"uint256"},{"name":"multiplier","type":"uint256","internalType":"uint256"}],"stateMutability":"view"},{"type":"function","name":"claimReward","inputs":[{"name":"rewardId","type":"uint256","internalType":"uint256"}],"outputs":[],"stateMutability":"nonpayable"},{"type":"function","name":"createCampaign","inputs":[{"name":"campaign","type":"tuple","internalType":"struct Catapoolt.Campaign","components":[{"name":"id","type":"uint256","internalType":"uint256"},{"name":"pool","type":"address","internalType":"address"},{"name":"rewardAmount","type":"uint256","internalType":"uint256"},{"name":"rewardToken","type":"address","internalType":"address"},{"name":"startsAt","type":"uint256","internalType":"uint256"},{"name":"endsAt","type":"uint256","internalType":"uint256"},{"name":"earnedFeesAmount","type":"uint256","internalType":"uint256"},{"name":"feeToken","type":"address","internalType":"address"},{"name":"minFees","type":"uint256","internalType":"uint256"},{"name":"multiplier","type":"uint256","internalType":"uint256"}]}],"outputs":[],"stateMutability":"nonpayable"},{"type":"function","name":"getCampaign","inputs":[{"name":"id","type":"uint256","internalType":"uint256"}],"outputs":[{"name":"","type":"tuple","internalType":"struct Catapoolt.Campaign","components":[{"name":"id","type":"uint256","internalType":"uint256"},{"name":"pool","type":"address","internalType":"address"},{"name":"rewardAmount","type":"uint256","internalType":"uint256"},{"name":"rewardToken","type":"address","internalType":"address"},{"name":"startsAt","type":"uint256","internalType":"uint256"},{"name":"endsAt","type":"uint256","internalType":"uint256"},{"name":"earnedFeesAmount","type":"uint256","internalType":"uint256"},{"name":"feeToken","type":"address","internalType":"address"},{"name":"minFees","type":"uint256","internalType":"uint256"},{"name":"multiplier","type":"uint256","internalType":"uint256"}]}],"stateMutability":"view"},{"type":"function","name":"getCampaigns","inputs":[],"outputs":[{"name":"","type":"tuple[]","internalType":"struct Catapoolt.Campaign[]","components":[{"name":"id","type":"uint256","internalType":"uint256"},{"name":"pool","type":"address","internalType":"address"},{"name":"rewardAmount","type":"uint256","internalType":"uint256"},{"name":"rewardToken","type":"address","internalType":"address"},{"name":"startsAt","type":"uint256","internalType":"uint256"},{"name":"endsAt","type":"uint256","internalType":"uint256"},{"name":"earnedFeesAmount","type":"uint256","internalType":"uint256"},{"name":"feeToken","type":"address","internalType":"address"},{"name":"minFees","type":"uint256","internalType":"uint256"},{"name":"multiplier","type":"uint256","internalType":"uint256"}]}],"stateMutability":"view"},{"type":"function","name":"listRewards","inputs":[{"name":"user","type":"address","internalType":"address"}],"outputs":[{"name":"","type":"tuple[]","internalType":"struct Catapoolt.Reward[]","components":[{"name":"id","type":"uint256","internalType":"uint256"},{"name":"campaignId","type":"uint256","internalType":"uint256"},{"name":"user","type":"address","internalType":"address"},{"name":"amount","type":"uint256","internalType":"uint256"},{"name":"claimed","type":"bool","internalType":"bool"},{"name":"claimedAt","type":"uint256","internalType":"uint256"}]}],"stateMutability":"view"}],"bytecode":{"object":"0x6080604052348015600f57600080fd5b50610a1c8061001f6000396000f3fe608060405234801561001057600080fd5b506004361061007d5760003560e01c806370fbc6e51161005b57806370fbc6e5146101295780638ed5b0fc14610149578063a6b0363314610160578063ae169a501461017557600080fd5b8063141961bc146100825780631b5c0763146100f45780635598f8cc14610109575b600080fd5b6100956100903660046106f3565b610186565b604080519a8b526001600160a01b03998a1660208c01528a01979097529487166060890152608088019390935260a087019190915260c086015290921660e0840152610100830191909152610120820152610140015b60405180910390f35b610107610102366004610776565b6101f7565b005b61011c6101173660046106f3565b6103f2565b6040516100eb91906108a9565b61013c6101373660046108be565b61050f565b6040516100eb91906108e0565b61015260015481565b6040519081526020016100eb565b610168610623565b6040516100eb9190610965565b6101076101833660046106f3565b50565b6000818154811061019657600080fd5b60009182526020909120600a909102018054600182015460028301546003840154600485015460058601546006870154600788015460088901546009909901549799506001600160a01b03968716989597948716969395929491931691908a565b60018054825260008054808301825581805283517f290decd9548b62a8d60345a988386fc84ba6bc95484008f6362f93160ef3e563600a9092029182015560208401517f290decd9548b62a8d60345a988386fc84ba6bc95484008f6362f93160ef3e564820180546001600160a01b03199081166001600160a01b039384161790915560408601517f290decd9548b62a8d60345a988386fc84ba6bc95484008f6362f93160ef3e56584015560608601517f290decd9548b62a8d60345a988386fc84ba6bc95484008f6362f93160ef3e56684018054831691841691909117905560808601517f290decd9548b62a8d60345a988386fc84ba6bc95484008f6362f93160ef3e56784015560a08601517f290decd9548b62a8d60345a988386fc84ba6bc95484008f6362f93160ef3e56884015560c08601517f290decd9548b62a8d60345a988386fc84ba6bc95484008f6362f93160ef3e56984015560e08601517f290decd9548b62a8d60345a988386fc84ba6bc95484008f6362f93160ef3e56a8401805490921692169190911790556101008401517f290decd9548b62a8d60345a988386fc84ba6bc95484008f6362f93160ef3e56b8201556101208401517f290decd9548b62a8d60345a988386fc84ba6bc95484008f6362f93160ef3e56c90910155815491906103ea836109a9565b919050555050565b6104636040518061014001604052806000815260200160006001600160a01b031681526020016000815260200160006001600160a01b0316815260200160008152602001600081526020016000815260200160006001600160a01b0316815260200160008152602001600081525090565b60008281548110610476576104766109d0565b60009182526020918290206040805161014081018252600a9093029091018054835260018101546001600160a01b039081169484019490945260028101549183019190915260038101548316606083015260048101546080830152600581015460a0830152600681015460c0830152600781015490921660e0820152600882015461010082015260099091015461012082015292915050565b600080546060919067ffffffffffffffff81111561052f5761052f61070c565b6040519080825280602002602001820160405280156105a457816020015b6105916040518060c00160405280600081526020016000815260200160006001600160a01b0316815260200160008152602001600015158152602001600081525090565b81526020019060019003908161054d5790505b50905060005b60005481101561061c576040518060c00160405280828152602001828152602001856001600160a01b0316815260200168056bc75e2d6310000081526020016000151581526020016000815250828281518110610609576106096109d0565b60209081029190910101526001016105aa565b5092915050565b60606000805480602002602001604051908101604052809291908181526020016000905b828210156106ea5760008481526020908190206040805161014081018252600a8602909201805483526001808201546001600160a01b039081168587015260028301549385019390935260038201548316606085015260048201546080850152600582015460a0850152600682015460c0850152600782015490921660e08401526008810154610100840152600901546101208301529083529092019101610647565b50505050905090565b60006020828403121561070557600080fd5b5035919050565b634e487b7160e01b600052604160045260246000fd5b604051610140810167ffffffffffffffff8111828210171561075457634e487b7160e01b600052604160045260246000fd5b60405290565b80356001600160a01b038116811461077157600080fd5b919050565b600061014082840312801561078a57600080fd5b506000610795610722565b833581526107a56020850161075a565b6020820152604084810135908201526107c06060850161075a565b60608201526080848101359082015260a0808501359082015260c080850135908201526107ef60e0850161075a565b60e082015261010084810135908201526101209384013593810193909352509092915050565b80518252602081015161083360208401826001600160a01b03169052565b5060408101516040830152606081015161085860608401826001600160a01b03169052565b506080810151608083015260a081015160a083015260c081015160c083015260e081015161089160e08401826001600160a01b03169052565b50610100818101519083015261012090810151910152565b61014081016108b88284610815565b92915050565b6000602082840312156108d057600080fd5b6108d98261075a565b9392505050565b602080825282518282018190526000918401906040840190835b8181101561095a57835180518452602080820151818601526040808301516001600160a01b0316908601526060808301519086015260808083015115159086015260a091820151918501919091529093019260c0909201916001016108fa565b509095945050505050565b602080825282518282018190526000918401906040840190835b8181101561095a57610992838551610815565b60209390930192610140929092019160010161097f565b6000600182016109c957634e487b7160e01b600052601160045260246000fd5b5060010190565b634e487b7160e01b600052603260045260246000fdfea264697066735822122032462cfc590860e025a5b07582dadc30366a350dd796b9e28ceda96e0d255cc664736f6c634300081a0033","linkReferences":{}},"methodIdentifiers":{"campaignId()":"8ed5b0fc","campaigns(uint256)":"141961bc","claimReward(uint256)":"ae169a50","createCampaign((uint256,address,uint256,address,uint256,uint256,uint256,address,uint256,uint256))":"1b5c0763","getCampaign(uint256)":"5598f8cc","getCampaigns()":"a6b03633","listRewards(address)":"70fbc6e5"},"id":0}