{"abi":[{"type":"constructor","inputs":[{"name":"_poolManager","type":"address","internalType":"contract ICLPoolManager"},{"name":"_brevisRequest","type":"address","internalType":"address"}],"stateMutability":"nonpayable"},{"type":"function","name":"applyBrevisOpResult","inputs":[{"name":"_proofId","type":"bytes32","internalType":"bytes32"},{"name":"_nonce","type":"uint64","internalType":"uint64"},{"name":"_appVkHash","type":"bytes32","internalType":"bytes32"},{"name":"_appCommitHash","type":"bytes32","internalType":"bytes32"},{"name":"_appCircuitOutput","type":"bytes","internalType":"bytes"}],"outputs":[],"stateMutability":"nonpayable"},{"type":"function","name":"applyBrevisOpResults","inputs":[{"name":"_proofIds","type":"bytes32[]","internalType":"bytes32[]"},{"name":"_nonces","type":"uint64[]","internalType":"uint64[]"},{"name":"_appVkHashes","type":"bytes32[]","internalType":"bytes32[]"},{"name":"_appCommitHashes","type":"bytes32[]","internalType":"bytes32[]"},{"name":"_appCircuitOutputs","type":"bytes[]","internalType":"bytes[]"}],"outputs":[],"stateMutability":"nonpayable"},{"type":"function","name":"brevisBatchCallback","inputs":[{"name":"_appVkHashes","type":"bytes32[]","internalType":"bytes32[]"},{"name":"_appCircuitOutputs","type":"bytes[]","internalType":"bytes[]"}],"outputs":[],"stateMutability":"nonpayable"},{"type":"function","name":"brevisCallback","inputs":[{"name":"_appVkHash","type":"bytes32","internalType":"bytes32"},{"name":"_appCircuitOutput","type":"bytes","internalType":"bytes"}],"outputs":[],"stateMutability":"nonpayable"},{"type":"function","name":"brevisOpConfig","inputs":[],"outputs":[{"name":"challengeWindow","type":"uint64","internalType":"uint64"},{"name":"sigOption","type":"uint8","internalType":"uint8"}],"stateMutability":"view"},{"type":"function","name":"brevisRequest","inputs":[],"outputs":[{"name":"","type":"address","internalType":"address"}],"stateMutability":"view"},{"type":"function","name":"calculateRewards","inputs":[{"name":"params","type":"tuple","internalType":"struct Catapoolt.PositionParams","components":[{"name":"poolId","type":"bytes32","internalType":"PoolId"},{"name":"owner","type":"address","internalType":"address"},{"name":"tickLower","type":"int24","internalType":"int24"},{"name":"tickUpper","type":"int24","internalType":"int24"},{"name":"salt","type":"bytes32","internalType":"bytes32"}]},{"name":"rewardToken","type":"address","internalType":"contract IERC20"}],"outputs":[{"name":"rewards0","type":"uint256","internalType":"uint256"},{"name":"rewards1","type":"uint256","internalType":"uint256"}],"stateMutability":"view"},{"type":"function","name":"campaignIds","inputs":[{"name":"","type":"bytes32","internalType":"PoolId"}],"outputs":[{"name":"","type":"uint256","internalType":"uint256"}],"stateMutability":"view"},{"type":"function","name":"campaigns","inputs":[{"name":"","type":"uint256","internalType":"uint256"}],"outputs":[{"name":"id","type":"uint256","internalType":"uint256"},{"name":"pool","type":"bytes32","internalType":"PoolId"},{"name":"rewardAmount","type":"uint256","internalType":"uint256"},{"name":"rewardToken","type":"address","internalType":"address"},{"name":"startsAt","type":"uint256","internalType":"uint256"},{"name":"endsAt","type":"uint256","internalType":"uint256"},{"name":"earnedFeesAmount","type":"uint256","internalType":"uint256"},{"name":"feeToken","type":"address","internalType":"address"},{"name":"multiplier","type":"uint256","internalType":"uint256"}],"stateMutability":"view"},{"type":"function","name":"campaignsCount","inputs":[],"outputs":[{"name":"","type":"uint256","internalType":"uint256"}],"stateMutability":"view"},{"type":"function","name":"claimReward","inputs":[{"name":"campaign","type":"uint256","internalType":"uint256"}],"outputs":[],"stateMutability":"nonpayable"},{"type":"function","name":"createCampaign","inputs":[{"name":"_pool","type":"bytes32","internalType":"PoolId"},{"name":"_rewardAmount","type":"uint256","internalType":"uint256"},{"name":"_rewardToken","type":"address","internalType":"address"},{"name":"_startsAt","type":"uint256","internalType":"uint256"},{"name":"_endsAt","type":"uint256","internalType":"uint256"},{"name":"earnedFeesAmount","type":"uint256","internalType":"uint256"},{"name":"feeToken","type":"address","internalType":"address"},{"name":"multiplierPercent","type":"uint256","internalType":"uint256"}],"outputs":[],"stateMutability":"nonpayable"},{"type":"function","name":"getCampaign","inputs":[{"name":"id","type":"uint256","internalType":"uint256"}],"outputs":[{"name":"","type":"tuple","internalType":"struct Catapoolt.Campaign","components":[{"name":"id","type":"uint256","internalType":"uint256"},{"name":"pool","type":"bytes32","internalType":"PoolId"},{"name":"rewardAmount","type":"uint256","internalType":"uint256"},{"name":"rewardToken","type":"address","internalType":"address"},{"name":"startsAt","type":"uint256","internalType":"uint256"},{"name":"endsAt","type":"uint256","internalType":"uint256"},{"name":"earnedFeesAmount","type":"uint256","internalType":"uint256"},{"name":"feeToken","type":"address","internalType":"address"},{"name":"multiplier","type":"uint256","internalType":"uint256"}]}],"stateMutability":"view"},{"type":"function","name":"getCampaigns","inputs":[],"outputs":[{"name":"","type":"tuple[]","internalType":"struct Catapoolt.Campaign[]","components":[{"name":"id","type":"uint256","internalType":"uint256"},{"name":"pool","type":"bytes32","internalType":"PoolId"},{"name":"rewardAmount","type":"uint256","internalType":"uint256"},{"name":"rewardToken","type":"address","internalType":"address"},{"name":"startsAt","type":"uint256","internalType":"uint256"},{"name":"endsAt","type":"uint256","internalType":"uint256"},{"name":"earnedFeesAmount","type":"uint256","internalType":"uint256"},{"name":"feeToken","type":"address","internalType":"address"},{"name":"multiplier","type":"uint256","internalType":"uint256"}]}],"stateMutability":"view"},{"type":"function","name":"getFeesAccrued","inputs":[{"name":"poolId","type":"bytes32","internalType":"PoolId"},{"name":"owner","type":"address","internalType":"address"},{"name":"tickLower","type":"int24","internalType":"int24"},{"name":"tickUpper","type":"int24","internalType":"int24"},{"name":"salt","type":"bytes32","internalType":"bytes32"},{"name":"feeGrowthInside0X128LastWithdrawal","type":"uint256","internalType":"uint256"},{"name":"feeGrowthInside1X128LastWithdrawal","type":"uint256","internalType":"uint256"}],"outputs":[{"name":"fees0","type":"uint256","internalType":"uint256"},{"name":"fees1","type":"uint256","internalType":"uint256"}],"stateMutability":"view"},{"type":"function","name":"getFeesAccruedGlobal","inputs":[{"name":"poolId","type":"bytes32","internalType":"PoolId"},{"name":"feesGrowthGlobal0X128LastWithdrawal","type":"uint256","internalType":"uint256"},{"name":"feesGrowthGlobal1X128LastWithdrawal","type":"uint256","internalType":"uint256"}],"outputs":[{"name":"feesGlobal0","type":"uint256","internalType":"uint256"},{"name":"feesGlobal1","type":"uint256","internalType":"uint256"}],"stateMutability":"view"},{"type":"function","name":"getRewards","inputs":[{"name":"pool","type":"bytes32","internalType":"PoolId"},{"name":"rewardToken","type":"address","internalType":"contract IERC20"}],"outputs":[{"name":"","type":"uint256","internalType":"uint256"},{"name":"","type":"uint256","internalType":"uint256"}],"stateMutability":"view"},{"type":"function","name":"lastWithdrawals","inputs":[{"name":"","type":"bytes32","internalType":"bytes32"}],"outputs":[{"name":"feeGrowthInside0X128","type":"uint256","internalType":"uint256"},{"name":"feeGrowthInside1X128","type":"uint256","internalType":"uint256"},{"name":"feesGrowthGlobal0X128","type":"uint256","internalType":"uint256"},{"name":"feesGrowthGlobal1X128","type":"uint256","internalType":"uint256"},{"name":"timestamp","type":"uint256","internalType":"uint256"}],"stateMutability":"view"},{"type":"function","name":"listRewards","inputs":[{"name":"user","type":"address","internalType":"address"}],"outputs":[{"name":"","type":"tuple[]","internalType":"struct Catapoolt.Reward[]","components":[{"name":"id","type":"uint256","internalType":"uint256"},{"name":"campaignId","type":"uint256","internalType":"uint256"},{"name":"user","type":"address","internalType":"address"},{"name":"amount","type":"uint256","internalType":"uint256"},{"name":"claimed","type":"bool","internalType":"bool"},{"name":"claimedAt","type":"uint256","internalType":"uint256"}]}],"stateMutability":"view"},{"type":"function","name":"listRewards","inputs":[{"name":"user","type":"address","internalType":"address"},{"name":"campaignId","type":"uint256","internalType":"uint256"}],"outputs":[{"name":"","type":"tuple","internalType":"struct Catapoolt.Reward","components":[{"name":"id","type":"uint256","internalType":"uint256"},{"name":"campaignId","type":"uint256","internalType":"uint256"},{"name":"user","type":"address","internalType":"address"},{"name":"amount","type":"uint256","internalType":"uint256"},{"name":"claimed","type":"bool","internalType":"bool"},{"name":"claimedAt","type":"uint256","internalType":"uint256"}]}],"stateMutability":"view"},{"type":"function","name":"owner","inputs":[],"outputs":[{"name":"","type":"address","internalType":"address"}],"stateMutability":"view"},{"type":"function","name":"poolManager","inputs":[],"outputs":[{"name":"","type":"address","internalType":"contract ICLPoolManager"}],"stateMutability":"view"},{"type":"function","name":"renounceOwnership","inputs":[],"outputs":[],"stateMutability":"nonpayable"},{"type":"function","name":"rewards","inputs":[{"name":"","type":"bytes32","internalType":"PoolId"},{"name":"","type":"address","internalType":"contract IERC20"}],"outputs":[{"name":"amountPerSecond","type":"uint256","internalType":"uint256"},{"name":"durationInSeconds","type":"uint256","internalType":"uint256"}],"stateMutability":"view"},{"type":"function","name":"setVkHash","inputs":[{"name":"_vkHash","type":"bytes32","internalType":"bytes32"}],"outputs":[],"stateMutability":"nonpayable"},{"type":"function","name":"transferOwnership","inputs":[{"name":"newOwner","type":"address","internalType":"address"}],"outputs":[],"stateMutability":"nonpayable"},{"type":"function","name":"userPositions","inputs":[{"name":"","type":"address","internalType":"address"},{"name":"","type":"uint256","internalType":"uint256"}],"outputs":[{"name":"poolId","type":"bytes32","internalType":"PoolId"},{"name":"owner","type":"address","internalType":"address"},{"name":"tickLower","type":"int24","internalType":"int24"},{"name":"tickUpper","type":"int24","internalType":"int24"},{"name":"salt","type":"bytes32","internalType":"bytes32"}],"stateMutability":"view"},{"type":"function","name":"vkHash","inputs":[],"outputs":[{"name":"","type":"bytes32","internalType":"bytes32"}],"stateMutability":"view"},{"type":"function","name":"withdrawRewards","inputs":[{"name":"params","type":"tuple","internalType":"struct Catapoolt.PositionParams","components":[{"name":"poolId","type":"bytes32","internalType":"PoolId"},{"name":"owner","type":"address","internalType":"address"},{"name":"tickLower","type":"int24","internalType":"int24"},{"name":"tickUpper","type":"int24","internalType":"int24"},{"name":"salt","type":"bytes32","internalType":"bytes32"}]},{"name":"rewardToken","type":"address","internalType":"contract IERC20"},{"name":"claimer","type":"address","internalType":"address"}],"outputs":[{"name":"rewards0","type":"uint256","internalType":"uint256"},{"name":"rewards1","type":"uint256","internalType":"uint256"}],"stateMutability":"nonpayable"},{"type":"event","name":"CampaignCreated","inputs":[{"name":"id","type":"uint256","indexed":true,"internalType":"uint256"},{"name":"pool","type":"bytes32","indexed":true,"internalType":"PoolId"},{"name":"rewardAmount","type":"uint256","indexed":false,"internalType":"uint256"},{"name":"rewardToken","type":"address","indexed":false,"internalType":"address"},{"name":"startsAt","type":"uint256","indexed":false,"internalType":"uint256"},{"name":"endsAt","type":"uint256","indexed":false,"internalType":"uint256"}],"anonymous":false},{"type":"event","name":"OwnershipTransferred","inputs":[{"name":"previousOwner","type":"address","indexed":true,"internalType":"address"},{"name":"newOwner","type":"address","indexed":true,"internalType":"address"}],"anonymous":false},{"type":"error","name":"AddressEmptyCode","inputs":[{"name":"target","type":"address","internalType":"address"}]},{"type":"error","name":"AddressInsufficientBalance","inputs":[{"name":"account","type":"address","internalType":"address"}]},{"type":"error","name":"FailedInnerCall","inputs":[]},{"type":"error","name":"OwnableInvalidOwner","inputs":[{"name":"owner","type":"address","internalType":"address"}]},{"type":"error","name":"OwnableUnauthorizedAccount","inputs":[{"name":"account","type":"address","internalType":"address"}]},{"type":"error","name":"SafeERC20FailedOperation","inputs":[{"name":"token","type":"address","internalType":"address"}]}],"bytecode":{"object":"0x60806040523461016457604051601f61247238819003918201601f19168301916001600160401b0383118484101761014e5780849260409485528339810103126101645780516001600160a01b038116919082900361016457602001516001600160a01b0381169081900361016457604080519081016001600160401b0381118282101761014e576040526001600160401b0381526001602090910181905280546001600160481b0319166001600160411b03179055600080546001600160a01b03191691909117905533156101385760028054336001600160a01b0319821681179092556040519291906001600160a01b03167f8be0079c531659141344cd1fd0a4f28419497f9722a3daafe3b4186f6b6457e0600080a3600980546001600160a01b031916919091179055612308908161016a8239f35b631e4fbdf760e01b600052600060045260246000fd5b634e487b7160e01b600052604160045260246000fd5b600080fdfe6080604052600436101561001257600080fd5b60003560e01c8063141961bc1461146157806315126d341461143d57806330dfa6701461141257806334801657146111f357806338931a31146111ca5780633bca02fc1461113057806344c89b651461111257806346c483fa146110c35780634fe840f5146110a557806350c399f71461104d5780635598f8cc14610f885780635e1b4d9914610f0457806370fbc6e514610cc3578063715018a614610c66578063718f6ccd14610b725780637859f6d914610b5157806379d6b6a214610afe578063851ca9d01461078d5780638da5cb5b1461076457806397b71c22146106f3578063a6b036331461061f578063ae169a501461060c578063b471ad21146105e0578063c1bde0e1146105af578063d1083cb11461029d578063dc4c90d314610274578063dd8234ee1461023b578063ed50e1da146101ea5763f2fde38b1461015b57600080fd5b346101e55760203660031901126101e55761017461158d565b61017c612120565b6001600160a01b031680156101cf57600280546001600160a01b0319811683179091556001600160a01b03167f8be0079c531659141344cd1fd0a4f28419497f9722a3daafe3b4186f6b6457e0600080a3005b631e4fbdf760e01b600052600060045260246000fd5b600080fd5b346101e55760403660031901126101e557610203611531565b600435600052600d60205260406000209060018060a01b03166000526020526040806000206001815491015482519182526020820152f35b346101e55760c03660031901126101e557604061026861025a366116f2565b610262611547565b90611d54565b82519182526020820152f35b346101e55760003660031901126101e5576009546040516001600160a01b039091168152602090f35b346101e55760e03660031901126101e5576102b7366116f2565b6102bf611547565b906102c86115a3565b6102d28383611d54565b91909260018060a01b036009541690805191602082019060018060a01b038251166040840192835160020b95606080870193845160020b9261033060808a01948551906040519c8d958695637388426b60e01b87526004870161161f565b0381875afa9687156104c05760009761057e575b506040865160248251809781936313d8a71960e31b835260048301525afa9283156104c057600496600095600095610546575b509561039d949596519360018060a01b03905116905160020b915160020b925193612149565b9160406020860151950151604051956103b58761169b565b86526020860190815260408601918252606086019283526080860193428552600052600c602052604060002095518655516001860155516002850155516003840155519101556104058284611be7565b6040516370a0823160e01b81523060048201526001600160a01b0390951694602081602481895afa80156104c0578291600091610511575b50106104cc5760405163a9059cbb60e01b81526001600160a01b039092166004830152602482015292602090849060449082906000905af19283156104c057604093610491575b5082519182526020820152f35b6104b29060203d6020116104b9575b6104aa81836116d1565b8101906117d4565b5083610484565b503d6104a0565b6040513d6000823e3d90fd5b60405162461bcd60e51b815260206004820152601d60248201527f496e73756666696369656e7420636f6e74726163742062616c616e63650000006044820152606490fd5b9150506020813d60201161053e575b8161052d602093836116d1565b810103126101e5578190518761043d565b3d9150610520565b61056e91965061039d955060403d604011610577575b61056681836116d1565b810190611757565b90959094610377565b503d61055c565b6105a191975060603d6060116105a8575b61059981836116d1565b810190611979565b958b610344565b503d61058f565b346101e55760003660031901126101e557604060015460ff8251916001600160401b0381168352831c166020820152f35b346101e55760203660031901126101e557600435600052600b6020526020604060002054604051908152f35b346101e55760203660031901126101e557005b346101e55760003660031901126101e55760035461063c81611ae4565b9061064a60405192836116d1565b80825260208201908160036000527fc2575a0e9e593c00f959f8c92f12db2869c3395a3b0502d05e2516446f71f85b6000915b8383106106d55784866040519182916020830190602084525180915260408301919060005b8181106106b0575050500390f35b919350916020610120826106c760019488516115b9565b0194019101918493926106a2565b600960206001926106e585611a73565b81520192019201919061067d565b346101e55760403660031901126101e55760c061071a61071161158d565b60243590611bf4565b610762604051809260a080918051845260208101516020850152600180831b036040820151166040850152606081015160608501526080810151151560808501520151910152565bf35b346101e55760003660031901126101e5576002546040516001600160a01b039091168152602090f35b346101e5576101003660031901126101e5576024356044356001600160a01b03811690600435908290036101e557606435916084356107ca6115a3565b908215610ab95784811115610a6a578515610a155761084e60008060405160208101906323b872dd60e01b82523360248201523060448201528a6064820152606481526108186084826116d1565b519082885af13d15610a0d573d9061082f826118a5565b9161083d60405193846116d1565b82523d6000602084013e5b85612271565b80519081151591826109f2575b50506109dd5760045495604051966108728861167f565b8752602087019185835260408801938285526060890198868a52608081019189835260a082019084825260c0830160a435815260e084019160018060a01b0316825261010084019260e4358452600354680100000000000000008110156109c7578060016108e392016003556114fc565b9690966109b1576109ac9e7f3f1409f785e0e4dbb192a711559a3ce534f2ff9a446f939875de41c66ee4a7eb9b60809b600898518a555160018a015551600289015560018060a01b03905116600388019060018060a01b03166001600160601b0360a01b82541617905551600487015551600586015551600685015560018060a01b03905116600784019060018060a01b03166001600160601b0360a01b82541617905551910155600454968795604051938452602084015260408301526060820152a3611bc2565b600455005b634e487b7160e01b600052600060045260246000fd5b634e487b7160e01b600052604160045260246000fd5b82635274afe760e01b60005260045260246000fd5b610a0592506020809183010191016117d4565b15878061085b565b606090610848565b60405162461bcd60e51b815260206004820152602760248201527f52657761726420616d6f756e74206d7573742062652067726561746572207468604482015266616e207a65726f60c81b6064820152608490fd5b60405162461bcd60e51b815260206004820152602160248201527f456e642074696d65206d7573742062652061667465722073746172742074696d6044820152606560f81b6064820152608490fd5b60405162461bcd60e51b815260206004820152601c60248201527f496e76616c69642072657761726420746f6b656e2061646472657373000000006044820152606490fd5b346101e55760403660031901126101e5576024356001600160401b0381116101e557610b31610b4f913690600401611652565b90610b4760018060a01b0360005416331461193c565b600435611ed1565b005b346101e55760203660031901126101e557610b6a612120565b600435600555005b346101e55760a03660031901126101e5576024356001600160401b0381168091036101e5576064356084356001600160401b0381116101e55760c492610bbe6020923690600401611652565b929091610bc9611e8f565b96909160018060a01b036000541660ff604051998a95869463054eee2f60e41b8652600435600487015260248601528a6044860152604435606486015260848501521660a48301525afa9182156104c057610c33610c3a93610b4f96600091610c47575b50611810565b36916118c0565b60208151910120146118f7565b610c60915060203d6020116104b9576104aa81836116d1565b87610c2d565b346101e55760003660031901126101e557610c7f612120565b600280546001600160a01b031981169091556000906001600160a01b03167f8be0079c531659141344cd1fd0a4f28419497f9722a3daafe3b4186f6b6457e08280a3005b346101e55760203660031901126101e557610cdc61158d565b60018060a01b038116600052600a6020526040600020908154610cfe81611ae4565b92610d0c60405194856116d1565b818452602084019060005260206000206000915b838310610eae578585610d338251611afb565b6000610d3f8451611b5e565b815b8551811015610de257610d548187611bae565b5151600052600b6020526040600020546000805b858110610dbf575b5015610d80575b50600101610d41565b83610d9d82610db893610d96600196988a611bae565b5288611bf4565b610da78286611bae565b52610db28185611bae565b50611bc2565b9290610d77565b82610dca8289611bae565b5114610dd857600101610d68565b5050600188610d70565b5090610ded81611b5e565b9160005b828110610e84578360405180916020820160208352815180915260206040840192019060005b818110610e25575050500390f35b91935091602060c082610e76600194885160a080918051845260208101516020850152600180831b036040820151166040850152606081015160608501526080810151151560808501520151910152565b019401910191849392610e17565b80610e9160019284611bae565b51610e9c8287611bae565b52610ea78186611bae565b5001610df1565b60036020600192604051610ec18161169b565b8554815284860154858060a01b038116848301528060a01c60020b604083015260b81c60020b606082015260028601546080820152815201920192019190610d20565b346101e55760403660031901126101e557610f1d61158d565b6001600160a01b03166000908152600a60205260409020805460243591908210156101e55760005260036020600020910201805490610f84600260018301549201546040519383859460b81c60020b918160a01c60020b9160018060a01b0316908661161f565b0390f35b346101e55760203660031901126101e5576004356000610100604051610fad8161167f565b8281528260208201528260408201528260608201528260808201528260a08201528260c08201528260e0820152015260035481101561100857610ffb610ff5610120926114fc565b50611a73565b61076260405180926115b9565b60405162461bcd60e51b815260206004820152601760248201527f43616d706169676e20646f6573206e6f742065786973740000000000000000006044820152606490fd5b346101e55760203660031901126101e557600435600052600c60205260a06040600020805490600181015490600281015460046003830154920154926040519485526020850152604084015260608301526080820152f35b346101e55760003660031901126101e5576020600554604051908152f35b346101e55760e03660031901126101e5576110dc611531565b604435908160020b82036101e5576064358060020b81036101e5576040926102689260c4359260a43592608435926004356119f1565b346101e55760003660031901126101e5576020600454604051908152f35b346101e55760403660031901126101e5576004356001600160401b0381116101e55761116090369060040161155d565b6024356001600160401b0381116101e55761117f90369060040161155d565b9061119560018060a01b0360005416331461193c565b60005b8381106111a157005b806111c46111b26001938789611854565b356111be838787611864565b91611ed1565b01611198565b346101e55760003660031901126101e5576000546040516001600160a01b039091168152602090f35b346101e55760a03660031901126101e5576004356001600160401b0381116101e55761122390369060040161155d565b6024356001600160401b0381116101e55761124290369060040161155d565b906044356001600160401b0381116101e55761126290369060040161155d565b9290916064356001600160401b0381116101e55761128490369060040161155d565b96608435906001600160401b0382116101e55760048887926112ec8a8799988e6112b360c0993690890161155d565b9c909b60206112c0611e8f565b97909860018060a01b03600054169a6040519e8f9d8e63a90f4bd760e01b8152015260c48d01916117ec565b8a81036003190160248c01528281520193906000905b8082106113d35750505060209888969461133060ff95899895611342956003198b84030160448c01526117ec565b878103600319016064890152916117ec565b9260848501521660a483015203915afa80156104c057611369916000916113b45750611810565b60005b86811061137557005b806113956113866001938b86611854565b35610c3a610c33848989611864565b6113a0818888611854565b506113ac818686611864565b50500161136c565b6113cd915060203d6020116104b9576104aa81836116d1565b89610c2d565b95509597995095975050508335906001600160401b0382168092036101e5576020816001938293520194019201928e898d9896948f94968b9997611302565b346101e55760403660031901126101e55761142b611531565b50604080516000815260006020820152f35b346101e55760603660031901126101e557604061026860443560243560043561176d565b346101e55760203660031901126101e5576004356003548110156101e55761148b610120916114fc565b50805490600181015490600281015460018060a01b036003830154166004830154600584015491600685015493600860018060a01b0360078801541696015496604051988952602089015260408801526060870152608086015260a085015260c084015260e0830152610100820152f35b60035481101561151b5760036000526009602060002091020190600090565b634e487b7160e01b600052603260045260246000fd5b602435906001600160a01b03821682036101e557565b60a435906001600160a01b03821682036101e557565b9181601f840112156101e5578235916001600160401b0383116101e5576020808501948460051b0101116101e557565b600435906001600160a01b03821682036101e557565b60c435906001600160a01b03821682036101e557565b610100809180518452602081015160208501526040810151604085015260018060a01b0360608201511660608501526080810151608085015260a081015160a085015260c081015160c085015260018060a01b0360e08201511660e08501520151910152565b9081526001600160a01b039091166020820152600291820b604082015291900b6060820152608081019190915260a00190565b9181601f840112156101e5578235916001600160401b0383116101e557602083818601950101116101e557565b61012081019081106001600160401b038211176109c757604052565b60a081019081106001600160401b038211176109c757604052565b60c081019081106001600160401b038211176109c757604052565b90601f801991011681019081106001600160401b038211176109c757604052565b60a09060031901126101e5576040519061170b8261169b565b6004358252816024356001600160a01b03811681036101e55760208201526044358060020b81036101e55760408201526064358060020b81036101e55760608201526080608435910152565b91908260409103126101e5576020825192015190565b929190604060018060a01b03600954169460248251809781936313d8a71960e31b835260048301525afa9384156104c0576000906000956117b0575b5003920390565b90506117cc91945060403d6040116105775761056681836116d1565b9390386117a9565b908160209103126101e5575180151581036101e55790565b81835290916001600160fb1b0383116101e55760209260051b809284830137010190565b1561181757565b60405162461bcd60e51b815260206004820152601560248201527464617461206e6f7420726561647920746f2075736560581b6044820152606490fd5b919081101561151b5760051b0190565b919081101561151b5760051b81013590601e19813603018212156101e55701908135916001600160401b0383116101e55760200182360381136101e5579190565b6001600160401b0381116109c757601f01601f191660200190565b9291926118cc826118a5565b916118da60405193846116d1565b8294818452818301116101e5578281602093846000960137010152565b156118fe57565b60405162461bcd60e51b81526020600482015260166024820152751a5b9d985b1a590818da5c98dd5a5d081bdd5d1c1d5d60521b6044820152606490fd5b1561194357565b60405162461bcd60e51b815260206004820152600e60248201526d34b73b30b634b21031b0b63632b960911b6044820152606490fd5b908160609103126101e557604051906000606083016001600160401b038111848210176119dd576040528151906fffffffffffffffffffffffffffffffff821682036119da5750906040918352602081015160208401520151604082015290565b80fd5b634e487b7160e01b82526041600452602482fd5b600954604051637388426b60e01b8152989796956060958a956001600160a01b039093169486948594611a2b94939290916004870161161f565b03915afa9384156104c057600094611a4f575b506040906020850151039301510390565b6040919450611a6c9060603d6060116105a85761059981836116d1565b9390611a3e565b90604051611a808161167f565b82548152600183015460208201526002830154604082015260038301546001600160a01b03908116606083015260048401546080830152600584015460a0830152600684015460c083015260078401541660e0820152600890920154610100830152565b6001600160401b0381116109c75760051b60200190565b90611b0582611ae4565b611b1260405191826116d1565b8281528092611b23601f1991611ae4565b0190602036910137565b60405190611b3a826116b6565b600060a0838281528260208201528260408201528260608201528260808201520152565b90611b6882611ae4565b611b7560405191826116d1565b8281528092611b86601f1991611ae4565b019060005b828110611b9757505050565b602090611ba2611b2d565b82828501015201611b8b565b805182101561151b5760209160051b010190565b6000198114611bd15760010190565b634e487b7160e01b600052601160045260246000fd5b91908201809211611bd157565b611bfc611b2d565b506001600160a01b03166000818152600a60205260409020805491929091611c2381611ae4565b92611c3160405194856116d1565b818452602084019060005260206000206000915b838310611cfe575050505060009060005b8351811015611cc957611c698185611bae565b5151600052600b6020528160406000205414611c88575b600101611c56565b91611cc1600191611cbb611cbb611c9e866114fc565b506003868060a01b0391015416611cb5888a611bae565b51611d54565b90611be7565b929050611c80565b5060405193919250611cda846116b6565b6000845260208401526040830152606082015260006080820152600060a082015290565b60036020600192604051611d118161169b565b8554815284860154858060a01b038116848301528060a01c60020b604083015260b81c60020b606082015260028601546080820152815201920192019190611c45565b600492916002825192611e14611e05602080840160018060a01b03815116906040860191611d978351890b9a606089019b8c518b0b9060808b0194855193612149565b600052600c84526040600020998a9360806040519e8f9b8c97611db98961169b565b80548099528d60018201549a8b91015201549d60408d019e8f52606060038201549d019c8d5201549e019d8e5288519360018060a01b03905116905160020b915160020b9251936119f1565b9590938351915190519161176d565b939096519081420392428411611bd15751600052600d60205260406000209060018060a01b0316600052602052604060002054808302928304149042141715611bd15760011c948581611e815750505060005b9381611e7557505050600090565b611e7e92612196565b90565b611e8a92612196565b611e67565b6040519060408201918083106001600160401b038411176109c7576020926040526001549060ff6001600160401b0383169283835260401c1693849101529190565b929192600554036120ee57916048810491611eeb83611afb565b92611ef581611afb565b94611eff82611afb565b9360005b838110611fea57505050506000925b8051841015611fe3576001600160a01b03611f2d8583611bae565b5116926001600160a01b03611f428688611bae565b511692611f4f8683611bae565b519660005b856000526007602052604060002054811015611fd057856000526006602052604060002090815481101561151b5760019160005260206000208160021b01828101548b1015611fa5575b5001611f54565b6003810154908960005260086020526002604060002091015460005260205260406000205538611f9e565b5096506001909501949093509150611f12565b5092505050565b6048819896989795970281810460481482151715611bd157601481019060008282116120da5761202561201f8484888a612219565b90612231565b60601c612032858a611bae565b525060009160288201908183116120c65761201f8261205292888a612219565b60601c61205f858b611bae565b52604882018092116120b257600193929161207b918688612219565b91503590602081106120a0575b50612093828b611bae565b5201969496959395611f03565b6000199060200360031b1b1638612088565b634e487b7160e01b83526011600452602483fd5b634e487b7160e01b84526011600452602484fd5b634e487b7160e01b81526011600452602490fd5b60405162461bcd60e51b815260206004820152600a602482015269696e76616c696420766b60b01b6044820152606490fd5b6002546001600160a01b0316330361213457565b63118cdaa760e01b6000523360045260246000fd5b939192909260405193602085019586526001600160601b03199060601b16604085015260e81b605484015260e81b6057830152605a820152605a8152612190607a826116d1565b51902090565b9181830291600019818509938380861095039480860395868511156101e557146122115790829109818060000316809204600281600302188082026002030280820260020302808202600203028082026002030280820260020302809102600203029360018380600003040190848311900302920304170290565b505091500490565b909392938483116101e55784116101e5578101920390565b356bffffffffffffffffffffffff19811692919060148210612251575050565b6bffffffffffffffffffffffff1960149290920360031b82901b16169150565b90612297575080511561228657805190602001fd5b630a12f52160e11b60005260046000fd5b815115806122c9575b6122a8575090565b639996b31560e01b60009081526001600160a01b0391909116600452602490fd5b50803b156122a056fea2646970667358221220fbe3b4a0db7c106967b5d53fedd19520868c30047cc1dbc86a7b02013dfddd5464736f6c634300081a0033","linkReferences":{}},"methodIdentifiers":{"applyBrevisOpResult(bytes32,uint64,bytes32,bytes32,bytes)":"718f6ccd","applyBrevisOpResults(bytes32[],uint64[],bytes32[],bytes32[],bytes[])":"34801657","brevisBatchCallback(bytes32[],bytes[])":"3bca02fc","brevisCallback(bytes32,bytes)":"79d6b6a2","brevisOpConfig()":"c1bde0e1","brevisRequest()":"38931a31","calculateRewards((bytes32,address,int24,int24,bytes32),address)":"dd8234ee","campaignIds(bytes32)":"b471ad21","campaigns(uint256)":"141961bc","campaignsCount()":"44c89b65","claimReward(uint256)":"ae169a50","createCampaign(bytes32,uint256,address,uint256,uint256,uint256,address,uint256)":"851ca9d0","getCampaign(uint256)":"5598f8cc","getCampaigns()":"a6b03633","getFeesAccrued(bytes32,address,int24,int24,bytes32,uint256,uint256)":"46c483fa","getFeesAccruedGlobal(bytes32,uint256,uint256)":"15126d34","getRewards(bytes32,address)":"30dfa670","lastWithdrawals(bytes32)":"50c399f7","listRewards(address)":"70fbc6e5","listRewards(address,uint256)":"97b71c22","owner()":"8da5cb5b","poolManager()":"dc4c90d3","renounceOwnership()":"715018a6","rewards(bytes32,address)":"ed50e1da","setVkHash(bytes32)":"7859f6d9","transferOwnership(address)":"f2fde38b","userPositions(address,uint256)":"5e1b4d99","vkHash()":"4fe840f5","withdrawRewards((bytes32,address,int24,int24,bytes32),address,address)":"d1083cb1"},"id":59}