{"abi":[{"type":"constructor","inputs":[{"name":"_poolManager","type":"address","internalType":"contract ICLPoolManager"},{"name":"_positionManager","type":"address","internalType":"contract CLPositionManager"},{"name":"_brevisRequest","type":"address","internalType":"address"}],"stateMutability":"nonpayable"},{"type":"function","name":"afterAddLiquidity","inputs":[{"name":"","type":"address","internalType":"address"},{"name":"poolKey","type":"tuple","internalType":"struct PoolKey","components":[{"name":"currency0","type":"address","internalType":"Currency"},{"name":"currency1","type":"address","internalType":"Currency"},{"name":"hooks","type":"address","internalType":"contract IHooks"},{"name":"poolManager","type":"address","internalType":"contract IPoolManager"},{"name":"fee","type":"uint24","internalType":"uint24"},{"name":"parameters","type":"bytes32","internalType":"bytes32"}]},{"name":"modLiqParams","type":"tuple","internalType":"struct ICLPoolManager.ModifyLiquidityParams","components":[{"name":"tickLower","type":"int24","internalType":"int24"},{"name":"tickUpper","type":"int24","internalType":"int24"},{"name":"liquidityDelta","type":"int256","internalType":"int256"},{"name":"salt","type":"bytes32","internalType":"bytes32"}]},{"name":"","type":"int256","internalType":"BalanceDelta"},{"name":"","type":"bytes","internalType":"bytes"}],"outputs":[{"name":"","type":"bytes4","internalType":"bytes4"},{"name":"","type":"int256","internalType":"BalanceDelta"}],"stateMutability":"nonpayable"},{"type":"function","name":"afterDonate","inputs":[{"name":"","type":"address","internalType":"address"},{"name":"","type":"tuple","internalType":"struct PoolKey","components":[{"name":"currency0","type":"address","internalType":"Currency"},{"name":"currency1","type":"address","internalType":"Currency"},{"name":"hooks","type":"address","internalType":"contract IHooks"},{"name":"poolManager","type":"address","internalType":"contract IPoolManager"},{"name":"fee","type":"uint24","internalType":"uint24"},{"name":"parameters","type":"bytes32","internalType":"bytes32"}]},{"name":"","type":"uint256","internalType":"uint256"},{"name":"","type":"uint256","internalType":"uint256"},{"name":"","type":"bytes","internalType":"bytes"}],"outputs":[{"name":"","type":"bytes4","internalType":"bytes4"}],"stateMutability":"nonpayable"},{"type":"function","name":"afterInitialize","inputs":[{"name":"","type":"address","internalType":"address"},{"name":"","type":"tuple","internalType":"struct PoolKey","components":[{"name":"currency0","type":"address","internalType":"Currency"},{"name":"currency1","type":"address","internalType":"Currency"},{"name":"hooks","type":"address","internalType":"contract IHooks"},{"name":"poolManager","type":"address","internalType":"contract IPoolManager"},{"name":"fee","type":"uint24","internalType":"uint24"},{"name":"parameters","type":"bytes32","internalType":"bytes32"}]},{"name":"","type":"uint160","internalType":"uint160"},{"name":"","type":"int24","internalType":"int24"},{"name":"","type":"bytes","internalType":"bytes"}],"outputs":[{"name":"","type":"bytes4","internalType":"bytes4"}],"stateMutability":"nonpayable"},{"type":"function","name":"afterRemoveLiquidity","inputs":[{"name":"","type":"address","internalType":"address"},{"name":"","type":"tuple","internalType":"struct PoolKey","components":[{"name":"currency0","type":"address","internalType":"Currency"},{"name":"currency1","type":"address","internalType":"Currency"},{"name":"hooks","type":"address","internalType":"contract IHooks"},{"name":"poolManager","type":"address","internalType":"contract IPoolManager"},{"name":"fee","type":"uint24","internalType":"uint24"},{"name":"parameters","type":"bytes32","internalType":"bytes32"}]},{"name":"","type":"tuple","internalType":"struct ICLPoolManager.ModifyLiquidityParams","components":[{"name":"tickLower","type":"int24","internalType":"int24"},{"name":"tickUpper","type":"int24","internalType":"int24"},{"name":"liquidityDelta","type":"int256","internalType":"int256"},{"name":"salt","type":"bytes32","internalType":"bytes32"}]},{"name":"delta","type":"int256","internalType":"BalanceDelta"},{"name":"","type":"bytes","internalType":"bytes"}],"outputs":[{"name":"","type":"bytes4","internalType":"bytes4"},{"name":"","type":"int256","internalType":"BalanceDelta"}],"stateMutability":"pure"},{"type":"function","name":"afterSwap","inputs":[{"name":"","type":"address","internalType":"address"},{"name":"","type":"tuple","internalType":"struct PoolKey","components":[{"name":"currency0","type":"address","internalType":"Currency"},{"name":"currency1","type":"address","internalType":"Currency"},{"name":"hooks","type":"address","internalType":"contract IHooks"},{"name":"poolManager","type":"address","internalType":"contract IPoolManager"},{"name":"fee","type":"uint24","internalType":"uint24"},{"name":"parameters","type":"bytes32","internalType":"bytes32"}]},{"name":"","type":"tuple","internalType":"struct ICLPoolManager.SwapParams","components":[{"name":"zeroForOne","type":"bool","internalType":"bool"},{"name":"amountSpecified","type":"int256","internalType":"int256"},{"name":"sqrtPriceLimitX96","type":"uint160","internalType":"uint160"}]},{"name":"","type":"int256","internalType":"BalanceDelta"},{"name":"","type":"bytes","internalType":"bytes"}],"outputs":[{"name":"","type":"bytes4","internalType":"bytes4"},{"name":"","type":"int128","internalType":"int128"}],"stateMutability":"nonpayable"},{"type":"function","name":"applyBrevisOpResult","inputs":[{"name":"_proofId","type":"bytes32","internalType":"bytes32"},{"name":"_nonce","type":"uint64","internalType":"uint64"},{"name":"_appVkHash","type":"bytes32","internalType":"bytes32"},{"name":"_appCommitHash","type":"bytes32","internalType":"bytes32"},{"name":"_appCircuitOutput","type":"bytes","internalType":"bytes"}],"outputs":[],"stateMutability":"nonpayable"},{"type":"function","name":"applyBrevisOpResults","inputs":[{"name":"_proofIds","type":"bytes32[]","internalType":"bytes32[]"},{"name":"_nonces","type":"uint64[]","internalType":"uint64[]"},{"name":"_appVkHashes","type":"bytes32[]","internalType":"bytes32[]"},{"name":"_appCommitHashes","type":"bytes32[]","internalType":"bytes32[]"},{"name":"_appCircuitOutputs","type":"bytes[]","internalType":"bytes[]"}],"outputs":[],"stateMutability":"nonpayable"},{"type":"function","name":"beforeAddLiquidity","inputs":[{"name":"","type":"address","internalType":"address"},{"name":"","type":"tuple","internalType":"struct PoolKey","components":[{"name":"currency0","type":"address","internalType":"Currency"},{"name":"currency1","type":"address","internalType":"Currency"},{"name":"hooks","type":"address","internalType":"contract IHooks"},{"name":"poolManager","type":"address","internalType":"contract IPoolManager"},{"name":"fee","type":"uint24","internalType":"uint24"},{"name":"parameters","type":"bytes32","internalType":"bytes32"}]},{"name":"","type":"tuple","internalType":"struct ICLPoolManager.ModifyLiquidityParams","components":[{"name":"tickLower","type":"int24","internalType":"int24"},{"name":"tickUpper","type":"int24","internalType":"int24"},{"name":"liquidityDelta","type":"int256","internalType":"int256"},{"name":"salt","type":"bytes32","internalType":"bytes32"}]},{"name":"","type":"bytes","internalType":"bytes"}],"outputs":[{"name":"","type":"bytes4","internalType":"bytes4"}],"stateMutability":"nonpayable"},{"type":"function","name":"beforeDonate","inputs":[{"name":"","type":"address","internalType":"address"},{"name":"","type":"tuple","internalType":"struct PoolKey","components":[{"name":"currency0","type":"address","internalType":"Currency"},{"name":"currency1","type":"address","internalType":"Currency"},{"name":"hooks","type":"address","internalType":"contract IHooks"},{"name":"poolManager","type":"address","internalType":"contract IPoolManager"},{"name":"fee","type":"uint24","internalType":"uint24"},{"name":"parameters","type":"bytes32","internalType":"bytes32"}]},{"name":"","type":"uint256","internalType":"uint256"},{"name":"","type":"uint256","internalType":"uint256"},{"name":"","type":"bytes","internalType":"bytes"}],"outputs":[{"name":"","type":"bytes4","internalType":"bytes4"}],"stateMutability":"nonpayable"},{"type":"function","name":"beforeInitialize","inputs":[{"name":"","type":"address","internalType":"address"},{"name":"","type":"tuple","internalType":"struct PoolKey","components":[{"name":"currency0","type":"address","internalType":"Currency"},{"name":"currency1","type":"address","internalType":"Currency"},{"name":"hooks","type":"address","internalType":"contract IHooks"},{"name":"poolManager","type":"address","internalType":"contract IPoolManager"},{"name":"fee","type":"uint24","internalType":"uint24"},{"name":"parameters","type":"bytes32","internalType":"bytes32"}]},{"name":"","type":"uint160","internalType":"uint160"},{"name":"","type":"bytes","internalType":"bytes"}],"outputs":[{"name":"","type":"bytes4","internalType":"bytes4"}],"stateMutability":"nonpayable"},{"type":"function","name":"beforeRemoveLiquidity","inputs":[{"name":"","type":"address","internalType":"address"},{"name":"","type":"tuple","internalType":"struct PoolKey","components":[{"name":"currency0","type":"address","internalType":"Currency"},{"name":"currency1","type":"address","internalType":"Currency"},{"name":"hooks","type":"address","internalType":"contract IHooks"},{"name":"poolManager","type":"address","internalType":"contract IPoolManager"},{"name":"fee","type":"uint24","internalType":"uint24"},{"name":"parameters","type":"bytes32","internalType":"bytes32"}]},{"name":"","type":"tuple","internalType":"struct ICLPoolManager.ModifyLiquidityParams","components":[{"name":"tickLower","type":"int24","internalType":"int24"},{"name":"tickUpper","type":"int24","internalType":"int24"},{"name":"liquidityDelta","type":"int256","internalType":"int256"},{"name":"salt","type":"bytes32","internalType":"bytes32"}]},{"name":"","type":"bytes","internalType":"bytes"}],"outputs":[{"name":"","type":"bytes4","internalType":"bytes4"}],"stateMutability":"pure"},{"type":"function","name":"beforeSwap","inputs":[{"name":"","type":"address","internalType":"address"},{"name":"","type":"tuple","internalType":"struct PoolKey","components":[{"name":"currency0","type":"address","internalType":"Currency"},{"name":"currency1","type":"address","internalType":"Currency"},{"name":"hooks","type":"address","internalType":"contract IHooks"},{"name":"poolManager","type":"address","internalType":"contract IPoolManager"},{"name":"fee","type":"uint24","internalType":"uint24"},{"name":"parameters","type":"bytes32","internalType":"bytes32"}]},{"name":"","type":"tuple","internalType":"struct ICLPoolManager.SwapParams","components":[{"name":"zeroForOne","type":"bool","internalType":"bool"},{"name":"amountSpecified","type":"int256","internalType":"int256"},{"name":"sqrtPriceLimitX96","type":"uint160","internalType":"uint160"}]},{"name":"","type":"bytes","internalType":"bytes"}],"outputs":[{"name":"","type":"bytes4","internalType":"bytes4"},{"name":"","type":"int256","internalType":"BeforeSwapDelta"},{"name":"","type":"uint24","internalType":"uint24"}],"stateMutability":"nonpayable"},{"type":"function","name":"brevisBatchCallback","inputs":[{"name":"_appVkHashes","type":"bytes32[]","internalType":"bytes32[]"},{"name":"_appCircuitOutputs","type":"bytes[]","internalType":"bytes[]"}],"outputs":[],"stateMutability":"nonpayable"},{"type":"function","name":"brevisCallback","inputs":[{"name":"_appVkHash","type":"bytes32","internalType":"bytes32"},{"name":"_appCircuitOutput","type":"bytes","internalType":"bytes"}],"outputs":[],"stateMutability":"nonpayable"},{"type":"function","name":"brevisOpConfig","inputs":[],"outputs":[{"name":"challengeWindow","type":"uint64","internalType":"uint64"},{"name":"sigOption","type":"uint8","internalType":"uint8"}],"stateMutability":"view"},{"type":"function","name":"brevisRequest","inputs":[],"outputs":[{"name":"","type":"address","internalType":"address"}],"stateMutability":"view"},{"type":"function","name":"calculateRewards","inputs":[{"name":"params","type":"tuple","internalType":"struct Catapoolt.PositionParams","components":[{"name":"poolId","type":"bytes32","internalType":"PoolId"},{"name":"owner","type":"address","internalType":"address"},{"name":"tickLower","type":"int24","internalType":"int24"},{"name":"tickUpper","type":"int24","internalType":"int24"},{"name":"salt","type":"bytes32","internalType":"bytes32"}]},{"name":"rewardToken","type":"address","internalType":"contract IERC20"}],"outputs":[{"name":"rewards0","type":"uint256","internalType":"uint256"},{"name":"rewards1","type":"uint256","internalType":"uint256"}],"stateMutability":"view"},{"type":"function","name":"campaignIds","inputs":[{"name":"","type":"bytes32","internalType":"PoolId"}],"outputs":[{"name":"","type":"uint256","internalType":"uint256"}],"stateMutability":"view"},{"type":"function","name":"campaigns","inputs":[{"name":"","type":"uint256","internalType":"uint256"}],"outputs":[{"name":"id","type":"uint256","internalType":"uint256"},{"name":"pool","type":"bytes32","internalType":"PoolId"},{"name":"rewardAmount","type":"uint256","internalType":"uint256"},{"name":"rewardToken","type":"address","internalType":"address"},{"name":"startsAt","type":"uint256","internalType":"uint256"},{"name":"endsAt","type":"uint256","internalType":"uint256"},{"name":"earnedFeesAmount","type":"uint256","internalType":"uint256"},{"name":"feeToken","type":"address","internalType":"address"},{"name":"multiplier","type":"uint256","internalType":"uint256"}],"stateMutability":"view"},{"type":"function","name":"campaignsCount","inputs":[],"outputs":[{"name":"","type":"uint256","internalType":"uint256"}],"stateMutability":"view"},{"type":"function","name":"claimReward","inputs":[{"name":"campaign","type":"uint256","internalType":"uint256"}],"outputs":[],"stateMutability":"nonpayable"},{"type":"function","name":"createCampaign","inputs":[{"name":"_pool","type":"bytes32","internalType":"PoolId"},{"name":"_rewardAmount","type":"uint256","internalType":"uint256"},{"name":"_rewardToken","type":"address","internalType":"address"},{"name":"_startsAt","type":"uint256","internalType":"uint256"},{"name":"_endsAt","type":"uint256","internalType":"uint256"},{"name":"earnedFeesAmount","type":"uint256","internalType":"uint256"},{"name":"feeToken","type":"address","internalType":"address"},{"name":"multiplierPercent","type":"uint256","internalType":"uint256"}],"outputs":[{"name":"","type":"uint256","internalType":"uint256"}],"stateMutability":"nonpayable"},{"type":"function","name":"getCampaign","inputs":[{"name":"id","type":"uint256","internalType":"uint256"}],"outputs":[{"name":"","type":"tuple","internalType":"struct Catapoolt.Campaign","components":[{"name":"id","type":"uint256","internalType":"uint256"},{"name":"pool","type":"bytes32","internalType":"PoolId"},{"name":"rewardAmount","type":"uint256","internalType":"uint256"},{"name":"rewardToken","type":"address","internalType":"address"},{"name":"startsAt","type":"uint256","internalType":"uint256"},{"name":"endsAt","type":"uint256","internalType":"uint256"},{"name":"earnedFeesAmount","type":"uint256","internalType":"uint256"},{"name":"feeToken","type":"address","internalType":"address"},{"name":"multiplier","type":"uint256","internalType":"uint256"}]}],"stateMutability":"view"},{"type":"function","name":"getCampaigns","inputs":[],"outputs":[{"name":"","type":"tuple[]","internalType":"struct Catapoolt.Campaign[]","components":[{"name":"id","type":"uint256","internalType":"uint256"},{"name":"pool","type":"bytes32","internalType":"PoolId"},{"name":"rewardAmount","type":"uint256","internalType":"uint256"},{"name":"rewardToken","type":"address","internalType":"address"},{"name":"startsAt","type":"uint256","internalType":"uint256"},{"name":"endsAt","type":"uint256","internalType":"uint256"},{"name":"earnedFeesAmount","type":"uint256","internalType":"uint256"},{"name":"feeToken","type":"address","internalType":"address"},{"name":"multiplier","type":"uint256","internalType":"uint256"}]}],"stateMutability":"view"},{"type":"function","name":"getFeesAccrued","inputs":[{"name":"salt","type":"bytes32","internalType":"bytes32"},{"name":"feeGrowthInside0X128LastWithdrawal","type":"uint256","internalType":"uint256"},{"name":"feeGrowthInside1X128LastWithdrawal","type":"uint256","internalType":"uint256"}],"outputs":[{"name":"fees0","type":"uint256","internalType":"uint256"},{"name":"fees1","type":"uint256","internalType":"uint256"}],"stateMutability":"view"},{"type":"function","name":"getFeesAccruedGlobal","inputs":[{"name":"poolId","type":"bytes32","internalType":"PoolId"},{"name":"feesGrowthGlobal0X128LastWithdrawal","type":"uint256","internalType":"uint256"},{"name":"feesGrowthGlobal1X128LastWithdrawal","type":"uint256","internalType":"uint256"}],"outputs":[{"name":"feesGlobal0","type":"uint256","internalType":"uint256"},{"name":"feesGlobal1","type":"uint256","internalType":"uint256"}],"stateMutability":"view"},{"type":"function","name":"getHooksRegistrationBitmap","inputs":[],"outputs":[{"name":"","type":"uint16","internalType":"uint16"}],"stateMutability":"pure"},{"type":"function","name":"getRewards","inputs":[{"name":"pool","type":"bytes32","internalType":"PoolId"},{"name":"rewardToken","type":"address","internalType":"contract IERC20"}],"outputs":[{"name":"","type":"uint256","internalType":"uint256"},{"name":"","type":"uint256","internalType":"uint256"}],"stateMutability":"view"},{"type":"function","name":"lastWithdrawals","inputs":[{"name":"","type":"bytes32","internalType":"bytes32"}],"outputs":[{"name":"feeGrowthInside0X128","type":"uint256","internalType":"uint256"},{"name":"feeGrowthInside1X128","type":"uint256","internalType":"uint256"},{"name":"feesGrowthGlobal0X128","type":"uint256","internalType":"uint256"},{"name":"feesGrowthGlobal1X128","type":"uint256","internalType":"uint256"},{"name":"timestamp","type":"uint256","internalType":"uint256"}],"stateMutability":"view"},{"type":"function","name":"listAllRewards","inputs":[{"name":"user","type":"address","internalType":"address"}],"outputs":[{"name":"","type":"tuple[]","internalType":"struct Catapoolt.Reward[]","components":[{"name":"id","type":"uint256","internalType":"uint256"},{"name":"campaignId","type":"uint256","internalType":"uint256"},{"name":"user","type":"address","internalType":"address"},{"name":"amount","type":"uint256","internalType":"uint256"},{"name":"claimed","type":"bool","internalType":"bool"},{"name":"claimedAt","type":"uint256","internalType":"uint256"}]}],"stateMutability":"view"},{"type":"function","name":"listRewards","inputs":[{"name":"user","type":"address","internalType":"address"},{"name":"campaignId","type":"uint256","internalType":"uint256"}],"outputs":[{"name":"","type":"tuple","internalType":"struct Catapoolt.Reward","components":[{"name":"id","type":"uint256","internalType":"uint256"},{"name":"campaignId","type":"uint256","internalType":"uint256"},{"name":"user","type":"address","internalType":"address"},{"name":"amount","type":"uint256","internalType":"uint256"},{"name":"claimed","type":"bool","internalType":"bool"},{"name":"claimedAt","type":"uint256","internalType":"uint256"}]}],"stateMutability":"view"},{"type":"function","name":"lockAcquired","inputs":[{"name":"data","type":"bytes","internalType":"bytes"}],"outputs":[{"name":"","type":"bytes","internalType":"bytes"}],"stateMutability":"nonpayable"},{"type":"function","name":"ogMultipliers","inputs":[{"name":"","type":"address","internalType":"address"},{"name":"","type":"bytes32","internalType":"PoolId"}],"outputs":[{"name":"","type":"uint256","internalType":"uint256"}],"stateMutability":"view"},{"type":"function","name":"owner","inputs":[],"outputs":[{"name":"","type":"address","internalType":"address"}],"stateMutability":"view"},{"type":"function","name":"poolManager","inputs":[],"outputs":[{"name":"","type":"address","internalType":"contract ICLPoolManager"}],"stateMutability":"view"},{"type":"function","name":"renounceOwnership","inputs":[],"outputs":[],"stateMutability":"nonpayable"},{"type":"function","name":"rewardClaims","inputs":[{"name":"","type":"address","internalType":"address"},{"name":"","type":"uint256","internalType":"uint256"}],"outputs":[{"name":"campaignId","type":"uint256","internalType":"uint256"},{"name":"user","type":"address","internalType":"address"},{"name":"amount","type":"uint256","internalType":"uint256"},{"name":"claimedAt","type":"uint256","internalType":"uint256"}],"stateMutability":"view"},{"type":"function","name":"rewardClaimsCount","inputs":[{"name":"","type":"address","internalType":"address"}],"outputs":[{"name":"","type":"uint256","internalType":"uint256"}],"stateMutability":"view"},{"type":"function","name":"rewards","inputs":[{"name":"","type":"bytes32","internalType":"PoolId"},{"name":"","type":"address","internalType":"contract IERC20"}],"outputs":[{"name":"amountPerSecond","type":"uint256","internalType":"uint256"},{"name":"durationInSeconds","type":"uint256","internalType":"uint256"}],"stateMutability":"view"},{"type":"function","name":"setVkHash","inputs":[{"name":"_vkHash","type":"bytes32","internalType":"bytes32"}],"outputs":[],"stateMutability":"nonpayable"},{"type":"function","name":"transferOwnership","inputs":[{"name":"newOwner","type":"address","internalType":"address"}],"outputs":[],"stateMutability":"nonpayable"},{"type":"function","name":"userPositions","inputs":[{"name":"","type":"address","internalType":"address"},{"name":"","type":"uint256","internalType":"uint256"}],"outputs":[{"name":"poolId","type":"bytes32","internalType":"PoolId"},{"name":"owner","type":"address","internalType":"address"},{"name":"tickLower","type":"int24","internalType":"int24"},{"name":"tickUpper","type":"int24","internalType":"int24"},{"name":"salt","type":"bytes32","internalType":"bytes32"}],"stateMutability":"view"},{"type":"function","name":"vault","inputs":[],"outputs":[{"name":"","type":"address","internalType":"contract IVault"}],"stateMutability":"view"},{"type":"function","name":"vkHash","inputs":[],"outputs":[{"name":"","type":"bytes32","internalType":"bytes32"}],"stateMutability":"view"},{"type":"function","name":"withdrawRewards","inputs":[{"name":"params","type":"tuple","internalType":"struct Catapoolt.PositionParams","components":[{"name":"poolId","type":"bytes32","internalType":"PoolId"},{"name":"owner","type":"address","internalType":"address"},{"name":"tickLower","type":"int24","internalType":"int24"},{"name":"tickUpper","type":"int24","internalType":"int24"},{"name":"salt","type":"bytes32","internalType":"bytes32"}]},{"name":"rewardToken","type":"address","internalType":"contract IERC20"},{"name":"claimer","type":"address","internalType":"address"}],"outputs":[{"name":"rewards0","type":"uint256","internalType":"uint256"},{"name":"rewards1","type":"uint256","internalType":"uint256"}],"stateMutability":"nonpayable"},{"type":"event","name":"CampaignCreated","inputs":[{"name":"id","type":"uint256","indexed":true,"internalType":"uint256"},{"name":"pool","type":"bytes32","indexed":true,"internalType":"PoolId"},{"name":"rewardAmount","type":"uint256","indexed":false,"internalType":"uint256"},{"name":"rewardToken","type":"address","indexed":false,"internalType":"address"},{"name":"startsAt","type":"uint256","indexed":false,"internalType":"uint256"},{"name":"endsAt","type":"uint256","indexed":false,"internalType":"uint256"}],"anonymous":false},{"type":"event","name":"OGProofSubmitted","inputs":[{"name":"wallet","type":"address","indexed":true,"internalType":"address"},{"name":"token","type":"address","indexed":true,"internalType":"address"},{"name":"amount","type":"uint256","indexed":false,"internalType":"uint256"}],"anonymous":false},{"type":"event","name":"OwnershipTransferred","inputs":[{"name":"previousOwner","type":"address","indexed":true,"internalType":"address"},{"name":"newOwner","type":"address","indexed":true,"internalType":"address"}],"anonymous":false},{"type":"error","name":"AddressEmptyCode","inputs":[{"name":"target","type":"address","internalType":"address"}]},{"type":"error","name":"AddressInsufficientBalance","inputs":[{"name":"account","type":"address","internalType":"address"}]},{"type":"error","name":"FailedInnerCall","inputs":[]},{"type":"error","name":"HookNotImplemented","inputs":[]},{"type":"error","name":"InvalidPool","inputs":[]},{"type":"error","name":"LockFailure","inputs":[]},{"type":"error","name":"NotPoolManager","inputs":[]},{"type":"error","name":"NotSelf","inputs":[]},{"type":"error","name":"NotVault","inputs":[]},{"type":"error","name":"OwnableInvalidOwner","inputs":[{"name":"owner","type":"address","internalType":"address"}]},{"type":"error","name":"OwnableUnauthorizedAccount","inputs":[{"name":"account","type":"address","internalType":"address"}]},{"type":"error","name":"SafeERC20FailedOperation","inputs":[{"name":"token","type":"address","internalType":"address"}]}],"bytecode":{"object":"0x60c080604052346101ea57606081613140803803809161001f8285610201565b8339810103126101ea5780516001600160a01b0381168082036101ea5760208301516001600160a01b03811693908490036101ea57604001516001600160a01b03811692908390036101ea5760805260405163fbfa77cf60e01b815290602090829060049082905afa9081156101f6575f916101b0575b5060a052604080519081016001600160401b0381118282101761019c576040526001600160401b0381526001602090910181905280546001600160481b0319166001600160411b031790555f80546001600160a01b03191691909117905533156101895760028054336001600160a01b0319821681179092556040519291906001600160a01b03167f8be0079c531659141344cd1fd0a4f28419497f9722a3daafe3b4186f6b6457e05f80a3600980546001600160a01b031916919091179055612f1b908161022582396080518181816105280152818161080a015261240e015260a0518181816102790152610d6c0152f35b631e4fbdf760e01b5f525f60045260245ffd5b634e487b7160e01b5f52604160045260245ffd5b90506020813d6020116101ee575b816101cb60209383610201565b810103126101ea57516001600160a01b03811681036101ea575f610096565b5f80fd5b3d91506101be565b6040513d5f823e3d90fd5b601f909101601f19168101906001600160401b0382119082101761019c5760405256fe60806040526004361015610011575f80fd5b5f803560e01c8063141961bc14611f4f57806315126d3414611f2b5780631ffe6a5814611e9e57806330dfa67014611e755780633480165714611c5a57806338931a3114611c335780633bca02fc14611b9b57806344c89b6514611b7e5780634b6a682d14611b3b5780634cefe0fe14611b175780634fe840f514611afa57806350c399f714611aa45780635304d44e14611a625780635309e33d146118075780635598f8cc146117435780635e1b4d99146116b45780636c10f1d1146116705780636f6657cb146115ef578063715018a614611594578063718f6ccd146114a2578063779682c91461141f5780637859f6d9146113fe57806379d6b6a2146113ac5780637aa43ce014611382578063851ca9d014610ff45780638da5cb5b14610fcc5780639246d9c514610f94578063972e19a214610f0f57806397b71c2214610e9e578063a6b0363314610dce578063ab6291fe14610d39578063ae169a5014610b0c578063b471ad2114610ae2578063c1bde0e114610ab2578063d1083cb11461076f578063d533c4db14610557578063dc4c90d314610513578063dd8234ee146104da578063e592dc9314610449578063e8246c7f14610425578063ed50e1da146103d8578063f2fde38b14610352578063f961d1f4146102a8578063fbfa77cf146102635763fe70c9c914610209575f80fd5b346102605760049061021a36612378565b50505050506102546040516102306040826122f2565b60128152716265666f72654164644c697175696469747960701b6020820152612c11565b630a85dc2960e01b8152fd5b80fd5b50346102605780600319360112610260576040517f00000000000000000000000000000000000000000000000000000000000000006001600160a01b03168152602090f35b3461034e575f36600319011261034e576040516101c081018181106001600160401b0382111761033a575f916101a09160405282815282602082015282604082015260016060820152826080820152600160a08201528260c08201528260e082015282610100820152826101208201528261014082015282610160820152826101808201520152602060405160288152f35b634e487b7160e01b5f52604160045260245ffd5b5f80fd5b3461034e57602036600319011261034e5761036b61201a565b610373612d8e565b6001600160a01b031680156103c557600280546001600160a01b0319811683179091556001600160a01b03167f8be0079c531659141344cd1fd0a4f28419497f9722a3daafe3b4186f6b6457e05f80a3005b631e4fbdf760e01b5f525f60045260245ffd5b3461034e57604036600319011261034e576103f16120ae565b6004355f52600f60205260405f209060018060a01b03165f526020526040805f206001815491015482519182526020820152f35b3461034e5761043336612378565b5050505050602060405163e8246c7f60e01b8152f35b3461034e5761016036600319011261034e5761046361201a565b5060c036602319011261034e5760603660e319011261034e57610144356001600160401b03811161034e5761049c903690600401612081565b50506104cb6040516104af6040826122f2565b600a81526906265666f7265537761760b41b6020820152612c11565b630a85dc2960e01b5f5260045ffd5b3461034e5760c036600319011261034e5760406105076104f936612313565b6105016120c4565b90612afd565b82519182526020820152f35b3461034e575f36600319011261034e576040517f00000000000000000000000000000000000000000000000000000000000000006001600160a01b03168152602090f35b3461034e57610565366121fe565b505050915060c08136031261034e57604051610580816122d7565b61058982612046565b815261059760208301612046565b602082015260408201356001600160a01b038116810361034e57604082015260608201356001600160a01b038116810361034e576060820152608082013562ffffff8116810361034e5760c09260a0916080840152013560a08201522060608201356024602060018060a01b0360095416604051928380926331a9108f60e11b82528660048301525afa908115610764575f9161072a575b50610645602061063e86612aef565b9501612aef565b6040519361065285612285565b8452602084019160018060a01b0316808352604085019560020b8652606085019160020b8252608085019384525f52600a60205260405f208054600160401b81101561033a576106a7916001820181556121cc565b959095610717579351855590516001850180549451925160b81b62ffffff60b81b1662ffffff60a01b60a09490941b939093166001600160a01b039092166001600160d01b0319909516949094171717909155516002909101556040805163d533c4db60e01b81525f6020820152f35b634e487b7160e01b5f525f60045260245ffd5b90506020813d60201161075c575b81610745602093836122f2565b8101031261034e5761075690612617565b8461062f565b3d9150610738565b6040513d5f823e3d90fd5b3461034e5760e036600319011261034e5761078936612313565b6107916120c4565b9061079a612030565b916107a58183612afd565b8351602085018051604080880180516060808b01805160808d0180519651637388426b60e01b8152600481019a909a526001600160a01b0397881660248b0152600294850b60448b0152930b60648901526084880194909452979996989795969591947f000000000000000000000000000000000000000000000000000000000000000090941693918760a481875afa968715610764575f97610a43575b506040865160248251809781936313d8a71960e31b835260048301525afa928315610764576004965f955f95610a0b575b509561089a949596519360018060a01b03905116905160020b915160020b925193612db5565b9160406020860151950151604051956108b287612285565b865260208601908152604086019182526060860192835260808601934285525f52600e60205260405f20955186555160018601555160028501555160038401555191015561090082846128cb565b6040516370a0823160e01b815230600482015290916001600160a01b031690602081602481855afa908115610764575f916109d1575b50906109829561094b84602095941015612aa3565b60405163a9059cbb60e01b81526001600160a01b0390911660048201526024810192909252909485919082905f9082906044820190565b03925af1928315610764576040936109a2575b5082519182526020820152f35b6109c39060203d6020116109ca575b6109bb81836122f2565b81019061248e565b5083610995565b503d6109b1565b929190506020833d602011610a03575b816109ee602093836122f2565b8101031261034e579151909190610982610936565b3d91506109e1565b610a3391965061089a955060403d604011610a3c575b610a2b81836122f2565b8101906123d7565b90959094610874565b503d610a21565b9096506060813d606011610aaa575b81610a5f606093836122f2565b8101031261034e576040519060608201908282106001600160401b0383111761033a576040918252610a9081612639565b83526020810151602084015201516040820152958b610843565b3d9150610a52565b3461034e575f36600319011261034e57604060015460ff8251916001600160401b0381168352831c166020820152f35b3461034e57602036600319011261034e576004355f52600b602052602060405f2054604051908152f35b3461034e57602036600319011261034e57600435610b2981611fea565b506001600160a01b0390606090610b3f9061284d565b0151166060610b4e83336128d8565b0190815115610cfe576040516370a0823160e01b815230600482015290602082602481845afa918215610764575f92610cc8575b50610bc3602091610b975f9486511115612aa3565b845160405163a9059cbb60e01b8152336004820152602481019190915293849283919082906044820190565b03925af1801561076457610cab575b508051610bed6002610be385611fea565b50019182546128be565b9055519060405190608082018281106001600160401b0382111761033a5760405281526020810191338352604082019081526060820190428252335f52600c60205260405f208054600160401b81101561033a57610c50916001820181556121e5565b949094610717579251845591516001840180546001600160a01b0319166001600160a01b0392909216919091179055905160028301555160039190910155335f908152600d602052604090208054610ca79061282b565b9055005b610cc39060203d6020116109ca576109bb81836122f2565b610bd2565b91506020823d602011610cf6575b81610ce3602093836122f2565b8101031261034e57905190610bc3610b82565b3d9150610cd6565b60405162461bcd60e51b81526020600482015260136024820152724e6f207265776172647320746f20636c61696d60681b6044820152606490fd5b3461034e57602036600319011261034e576004356001600160401b03811161034e57610d69903690600401612081565b907f00000000000000000000000000000000000000000000000000000000000000006001600160a01b03163303610dbf57610dbb91610da791612a5c565b604051918291602083526020830190612261565b0390f35b6362df054560e01b5f5260045ffd5b3461034e575f36600319011261034e57600354610dea81612781565b90610df860405192836122f2565b80825260208201908160035f527fc2575a0e9e593c00f959f8c92f12db2869c3395a3b0502d05e2516446f71f85b5f915b838310610e80578486604051918291602083019060208452518091526040830191905f5b818110610e5b575050500390f35b91935091602061012082610e726001948851612166565b019401910191849392610e4d565b60096020600192610e908561284d565b815201920192019190610e29565b3461034e57604036600319011261034e5760c0610ec5610ebc61201a565b602435906128d8565b610f0d604051809260a080918051845260208101516020850152600180831b036040820151166040850152606081015160608501526080810151151560808501520151910152565bf35b3461034e5761012036600319011261034e57610f2961201a565b5060c036602319011261034e57610f3e61205a565b50610104356001600160401b03811161034e57610f5f903690600401612081565b50506104cb604051610f726040826122f2565b601081526f6265666f7265496e697469616c697a6560801b6020820152612c11565b3461034e57602036600319011261034e576001600160a01b03610fb561201a565b165f52600d602052602060405f2054604051908152f35b3461034e575f36600319011261034e576002546040516001600160a01b039091168152602090f35b3461034e5761010036600319011261034e576044356001600160a01b03811690602435906004359083810361034e576064359260843591611033612030565b91861561133d57858411156112ee578015611299576110955f8060405160208101906323b872dd60e01b8252336024820152306044820152856064820152606481526110806084826122f2565b5190828c5af161108e612a2d565b9089612e87565b805190811515918261127e575b505061126b5760045495604051946110b9866122a0565b8786526020860191878352604087019584875260608801978b8952608081019b838d5260a082019285845260c0830160a435815260e084019160018060a01b0316825261010084019260e435845261111187896128be565b90811561125757818f92916001928d04936040519461112f866122bc565b8552602085019283525f52600f60205260405f2090838060a01b03165f5260205260405f209251835551910155600354600160401b81101561033a5780600161117b9201600355611fea565b9590956107175793518555965160018501559851600284015598516003830180546001600160a01b03199081166001600160a01b03938416179091559c51600484015590516005830155935160068201559551600787018054909b169084161790995594516008909401939093555f858152600b60209081526040918290208890558151928352929093168183015291820195909552606081019190915282907f3f1409f785e0e4dbb192a711559a3ce534f2ff9a446f939875de41c66ee4a7eb90608090a361124c60045461282b565b600455604051908152f35b634e487b7160e01b5f52601260045260245ffd5b86635274afe760e01b5f5260045260245ffd5b611291925060208091830101910161248e565b1588806110a2565b60405162461bcd60e51b815260206004820152602760248201527f52657761726420616d6f756e74206d7573742062652067726561746572207468604482015266616e207a65726f60c81b6064820152608490fd5b60405162461bcd60e51b815260206004820152602160248201527f456e642074696d65206d7573742062652061667465722073746172742074696d6044820152606560f81b6064820152608490fd5b60405162461bcd60e51b815260206004820152601c60248201527f496e76616c69642072657761726420746f6b656e2061646472657373000000006044820152606490fd5b3461034e576040611392366121fe565b5050925050508151906303d521e760e51b82526020820152f35b3461034e57604036600319011261034e576024356001600160401b03811161034e576113df6113fc913690600401612081565b906113f460018060a01b035f541633146125da565b600435612c8f565b005b3461034e57602036600319011261034e57611417612d8e565b600435600555005b3461034e57604036600319011261034e5761143861201a565b6001600160a01b03165f908152600c6020526040902080546024359081101561034e57611464916121e5565b50805460018201546002830154600390930154604080519384526001600160a01b039092166020840152908201929092526060810191909152608090f35b3461034e5760a036600319011261034e576024356001600160401b03811680910361034e576064356084356001600160401b03811161034e5760c4926114ee6020923690600401612081565b9290916114f9612c5f565b96909160018060a01b035f541660ff604051998a95869463054eee2f60e41b8652600435600487015260248601528a6044860152604435606486015260848501521660a48301525afa91821561076457611561611568936113fc965f91611575575b506124ca565b369161255f565b6020815191012014612595565b61158e915060203d6020116109ca576109bb81836122f2565b8761155b565b3461034e575f36600319011261034e576115ac612d8e565b600280546001600160a01b031981169091555f906001600160a01b03167f8be0079c531659141344cd1fd0a4f28419497f9722a3daafe3b4186f6b6457e08280a3005b3461034e5761018036600319011261034e5761160961201a565b5060c036602319011261034e5760603660e319011261034e57610164356001600160401b03811161034e57611642903690600401612081565b50506104cb6040516116556040826122f2565b600981526806166746572537761760bc1b6020820152612c11565b3461034e57604036600319011261034e576001600160a01b0361169161201a565b165f52600860205260405f206024355f52602052602060405f2054604051908152f35b3461034e57604036600319011261034e576116cd61201a565b6001600160a01b03165f908152600a6020526040902080546024359081101561034e576116f9916121cc565b5080546001820154600292830154604080519384526001600160a01b038316602085015260a083811c860b9185019190915260b89290921c90930b60608301526080820192909252f35b3461034e57602036600319011261034e576004355f610100604051611767816122a0565b8281528260208201528260408201528260608201528260808201528260a08201528260c08201528260e082015201526003548110156117c2576117b56117af61012092611fea565b5061284d565b610f0d6040518092612166565b60405162461bcd60e51b815260206004820152601760248201527f43616d706169676e20646f6573206e6f742065786973740000000000000000006044820152606490fd5b3461034e57602036600319011261034e5761182061201a565b60018060a01b0381165f52600a60205260405f2090815461184081612781565b9261184e60405194856122f2565b81845260208401905f5260205f205f915b838310611a0c578585815161187381612781565b9061188160405192836122f2565b808252611890601f1991612781565b013660208301375f6118a284516127c8565b5f5b8551811015611942576118b78187612817565b51515f52600b60205260405f20545f805b85811061191f575b50156118e0575b506001016118a4565b836118fd82611918936118f6600196988a612817565b52886128d8565b6119078286612817565b526119128185612817565b5061282b565b92906118d7565b8261192a8289612817565b5114611938576001016118c8565b50506001886118d0565b509061194d816127c8565b915f5b8281106119e257836040518091602082016020835281518091526020604084019201905f5b818110611983575050500390f35b91935091602060c0826119d4600194885160a080918051845260208101516020850152600180831b036040820151166040850152606081015160608501526080810151151560808501520151910152565b019401910191849392611975565b806119ef60019284612817565b516119fa8287612817565b52611a058186612817565b5001611950565b60036020600192604051611a1f81612285565b8554815284860154858060a01b038116848301528060a01c60020b604083015260b81c60020b60608201526002860154608082015281520192019201919061185f565b3461034e57611a703661210a565b5050505050506104cb604051611a876040826122f2565b600b81526a6166746572446f6e61746560a81b6020820152612c11565b3461034e57602036600319011261034e576004355f52600e60205260a060405f20805490600181015490600281015460046003830154920154926040519485526020850152604084015260608301526080820152f35b3461034e575f36600319011261034e576020600554604051908152f35b3461034e57606036600319011261034e576040610507604435602435600435612656565b3461034e57611b493661210a565b5050505050506104cb604051611b606040826122f2565b600c81526b6265666f7265446f6e61746560a01b6020820152612c11565b3461034e575f36600319011261034e576020600454604051908152f35b3461034e57604036600319011261034e576004356001600160401b03811161034e57611bcb9036906004016120da565b6024356001600160401b03811161034e57611bea9036906004016120da565b90611bff60018060a01b035f541633146125da565b5f5b838110611c0a57005b80611c2d611c1b600193878961250e565b35611c2783878761251e565b91612c8f565b01611c01565b3461034e575f36600319011261034e575f546040516001600160a01b039091168152602090f35b3461034e5760a036600319011261034e576004356001600160401b03811161034e57611c8a9036906004016120da565b6024356001600160401b03811161034e57611ca99036906004016120da565b906044356001600160401b03811161034e57611cc99036906004016120da565b9290916064356001600160401b03811161034e57611ceb9036906004016120da565b96608435906001600160401b03821161034e576004888792611d528a8799988e611d1a60c099369089016120da565b9c909b6020611d27612c5f565b97909860018060a01b035f54169a6040519e8f9d8e63a90f4bd760e01b8152015260c48d01916124a6565b8a81036003190160248c01528281520193905f905b808210611e3657505050602098889694611d9560ff95899895611da7956003198b84030160448c01526124a6565b878103600319016064890152916124a6565b9260848501521660a483015203915afa801561076457611dcd915f91611e1757506124ca565b5f5b868110611dd857005b80611df8611de96001938b8661250e565b3561156861156184898961251e565b611e0381888861250e565b50611e0f81868661251e565b505001611dcf565b611e30915060203d6020116109ca576109bb81836122f2565b8961155b565b95509597995095975050508335906001600160401b03821680920361034e576020816001938293520194019201928e898d9896948f94968b9997611d67565b3461034e57604036600319011261034e57611e8e6120ae565b50604080515f81525f6020820152f35b3461034e5761014036600319011261034e57611eb861201a565b5060c036602319011261034e57611ecd61205a565b50611ed6612070565b50610124356001600160401b03811161034e57611ef7903690600401612081565b50506104cb604051611f0a6040826122f2565b600f81526e6166746572496e697469616c697a6560881b6020820152612c11565b3461034e57606036600319011261034e5760406105076044356024356004356123ed565b3461034e57602036600319011261034e5760043560035481101561034e57611f7961012091611fea565b50805490600181015490600281015460018060a01b036003830154166004830154600584015491600685015493600860018060a01b0360078801541696015496604051988952602089015260408801526060870152608086015260a085015260c084015260e0830152610100820152f35b6003548110156120065760035f52600960205f20910201905f90565b634e487b7160e01b5f52603260045260245ffd5b600435906001600160a01b038216820361034e57565b60c435906001600160a01b038216820361034e57565b35906001600160a01b038216820361034e57565b60e435906001600160a01b038216820361034e57565b61010435908160020b820361034e57565b9181601f8401121561034e578235916001600160401b03831161034e576020838186019501011161034e57565b602435906001600160a01b038216820361034e57565b60a435906001600160a01b038216820361034e57565b9181601f8401121561034e578235916001600160401b03831161034e576020808501948460051b01011161034e57565b61014060031982011261034e576004356001600160a01b038116810361034e579160c060231983011261034e5760249160e43591610104359161012435906001600160401b03821161034e5761216291600401612081565b9091565b610100809180518452602081015160208501526040810151604085015260018060a01b0360608201511660608501526080810151608085015260a081015160a085015260c081015160c085015260018060a01b0360e08201511660e08501520151910152565b8054821015612006575f52600360205f20910201905f90565b8054821015612006575f5260205f209060021b01905f90565b6101a060031982011261034e576004356001600160a01b038116810361034e579160c060231983011261034e57602491608060e31982011261034e5760e491610164359161018435906001600160401b03821161034e5761216291600401612081565b805180835260209291819084018484015e5f828201840152601f01601f1916010190565b60a081019081106001600160401b0382111761033a57604052565b61012081019081106001600160401b0382111761033a57604052565b604081019081106001600160401b0382111761033a57604052565b60c081019081106001600160401b0382111761033a57604052565b90601f801991011681019081106001600160401b0382111761033a57604052565b60a090600319011261034e576040519061232c82612285565b6004358252816024356001600160a01b038116810361034e5760208201526044358060020b810361034e5760408201526064358060020b810361034e5760608201526080608435910152565b9061018060031983011261034e576004356001600160a01b038116810361034e579160c060231982011261034e57602491608060e31983011261034e5760e49161016435906001600160401b03821161034e5761216291600401612081565b919082604091031261034e576020825192015190565b604080516313d8a71960e31b815260048101929092529093929190846024817f00000000000000000000000000000000000000000000000000000000000000006001600160a01b03165afa938415610764575f905f9561244f575b5003920390565b905061246b91945060403d604011610a3c57610a2b81836122f2565b93905f612448565b6001600160401b03811161033a57601f01601f191660200190565b9081602091031261034e5751801515810361034e5790565b81835290916001600160fb1b03831161034e5760209260051b809284830137010190565b156124d157565b60405162461bcd60e51b815260206004820152601560248201527464617461206e6f7420726561647920746f2075736560581b6044820152606490fd5b91908110156120065760051b0190565b91908110156120065760051b81013590601e198136030182121561034e5701908135916001600160401b03831161034e57602001823603811361034e579190565b92919261256b82612473565b9161257960405193846122f2565b82948184528183011161034e578281602093845f960137010152565b1561259c57565b60405162461bcd60e51b81526020600482015260166024820152751a5b9d985b1a590818da5c98dd5a5d081bdd5d1c1d5d60521b6044820152606490fd5b156125e157565b60405162461bcd60e51b815260206004820152600e60248201526d34b73b30b634b21031b0b63632b960911b6044820152606490fd5b51906001600160a01b038216820361034e57565b51908160020b820361034e57565b51906fffffffffffffffffffffffffffffffff8216820361034e57565b92919061016060018060a01b03600954169460246040518097819363133f757160e31b835260048301525afa938415610764575f905f95612698575003920390565b945050836101603d811161277a575b6126b181836122f2565b810103610160811261034e5760c01361034e576040516126d0816122d7565b6126d985612617565b81526126e760208601612617565b602082015260408501516001600160a01b038116810361034e57604082015260608501516001600160a01b038116810361034e576060820152608085015162ffffff8116810361034e57608082015260a08086015191015261274b60c0850161262b565b5061275860e0850161262b565b506127666101008501612639565b50610140610120850151940151935f612448565b503d6126a7565b6001600160401b03811161033a5760051b60200190565b604051906127a5826122d7565b5f60a0838281528260208201528260408201528260608201528260808201520152565b906127d282612781565b6127df60405191826122f2565b82815280926127f0601f1991612781565b01905f5b82811061280057505050565b60209061280b612798565b828285010152016127f4565b80518210156120065760209160051b010190565b5f1981146128395760010190565b634e487b7160e01b5f52601160045260245ffd5b9060405161285a816122a0565b82548152600183015460208201526002830154604082015260038301546001600160a01b03908116606083015260048401546080830152600584015460a0830152600684015460c083015260078401541660e0820152600890920154610100830152565b9190820391821161283957565b9190820180921161283957565b6128e0612798565b506001600160a01b03165f818152600a6020526040902080549192909161290681612781565b9261291460405194856122f2565b81845260208401905f5260205f205f915b8383106129d757505050505f905f5b83518110156129a5576129478185612817565b51515f52600b6020528160405f205414612964575b600101612934565b9161299d60019161299761299761297a86611fea565b506003868060a01b0391015416612991888a612817565b51612afd565b906128cb565b92905061295c565b50604051939192506129b6846122d7565b5f84526020840152604083015260608201525f60808201525f60a082015290565b600360206001926040516129ea81612285565b8554815284860154858060a01b038116848301528060a01c60020b604083015260b81c60020b606082015260028601546080820152815201920192019190612925565b3d15612a57573d90612a3e82612473565b91612a4c60405193846122f2565b82523d5f602084013e565b606090565b5f9182918160405192839283378101838152039082305af190612a7d612a2d565b91612aa15750805115612a9257602081519101fd5b6314815f4760e31b5f5260045ffd5b565b15612aaa57565b60405162461bcd60e51b815260206004820152601d60248201527f496e73756666696369656e7420636f6e74726163742062616c616e63650000006044820152606490fd5b358060020b810361034e5790565b90612baa612b919392805190612b3860018060a01b0360208301511692604083015160020b606084015160020b906080850195865193612db5565b5f52600e60205260405f2093612ba0604051978894612b5686612285565b87548087526001890154918260208901526080600460028c01549b60408b019c8d52606060038201549b019a8b5201549c019b8c5251612656565b969094845191519051916123ed565b94909751426128be565b91515f52600f60205260405f209060018060a01b03165f5260205260405f2054908181029181830414901517156128395760011c948581612c03575050505f5b9381612bf7575050505f90565b612c0092612e07565b90565b612c0c92612e07565b612bea565b5f8091604051612c4c81612c3e602082019463104c13eb60e21b8652602060248401526044830190612261565b03601f1981018352826122f2565b51906a636f6e736f6c652e6c6f675afa50565b602090604051612c6e816122bc565b6001549060ff6001600160401b0383169283835260401c1693849101529190565b60055403612d5c578160141161034e57803560601c906028831061034e57601481013560601c9260481161034e576028013582827f0b419c8e88706e335c47ef53387007f9bcb19126b13d9a36c48d050b20137c576020604051858152a35f5b835f52600760205260405f2054811015612d5657600190845f526006602052612d1b8160405f206121e5565b5082810154841015612d2f575b5001612cef565b600381015490855f526008602052600260405f209101545f5260205260405f20555f612d28565b50505050565b60405162461bcd60e51b815260206004820152600a602482015269696e76616c696420766b60b01b6044820152606490fd5b6002546001600160a01b03163303612da257565b63118cdaa760e01b5f523360045260245ffd5b939192909260405193602085019586526bffffffffffffffffffffffff199060601b16604085015260e81b605484015260e81b6057830152605a820152605a8152612e01607a826122f2565b51902090565b91818302915f198185099383808610950394808603958685111561034e5714612e7f579082910981805f03168092046002816003021880820260020302808202600203028082026002030280820260020302808202600203028091026002030293600183805f03040190848311900302920304170290565b505091500490565b90612eab5750805115612e9c57805190602001fd5b630a12f52160e11b5f5260045ffd5b81511580612edc575b612ebc575090565b639996b31560e01b5f9081526001600160a01b0391909116600452602490fd5b50803b15612eb456fea2646970667358221220f6e867ed6f112c0d949f09146ef115039bf782f560f8aaabb53b50021168a79164736f6c634300081a0033","linkReferences":{}},"methodIdentifiers":{"afterAddLiquidity(address,(address,address,address,address,uint24,bytes32),(int24,int24,int256,bytes32),int256,bytes)":"d533c4db","afterDonate(address,(address,address,address,address,uint24,bytes32),uint256,uint256,bytes)":"5304d44e","afterInitialize(address,(address,address,address,address,uint24,bytes32),uint160,int24,bytes)":"1ffe6a58","afterRemoveLiquidity(address,(address,address,address,address,uint24,bytes32),(int24,int24,int256,bytes32),int256,bytes)":"7aa43ce0","afterSwap(address,(address,address,address,address,uint24,bytes32),(bool,int256,uint160),int256,bytes)":"6f6657cb","applyBrevisOpResult(bytes32,uint64,bytes32,bytes32,bytes)":"718f6ccd","applyBrevisOpResults(bytes32[],uint64[],bytes32[],bytes32[],bytes[])":"34801657","beforeAddLiquidity(address,(address,address,address,address,uint24,bytes32),(int24,int24,int256,bytes32),bytes)":"fe70c9c9","beforeDonate(address,(address,address,address,address,uint24,bytes32),uint256,uint256,bytes)":"4b6a682d","beforeInitialize(address,(address,address,address,address,uint24,bytes32),uint160,bytes)":"972e19a2","beforeRemoveLiquidity(address,(address,address,address,address,uint24,bytes32),(int24,int24,int256,bytes32),bytes)":"e8246c7f","beforeSwap(address,(address,address,address,address,uint24,bytes32),(bool,int256,uint160),bytes)":"e592dc93","brevisBatchCallback(bytes32[],bytes[])":"3bca02fc","brevisCallback(bytes32,bytes)":"79d6b6a2","brevisOpConfig()":"c1bde0e1","brevisRequest()":"38931a31","calculateRewards((bytes32,address,int24,int24,bytes32),address)":"dd8234ee","campaignIds(bytes32)":"b471ad21","campaigns(uint256)":"141961bc","campaignsCount()":"44c89b65","claimReward(uint256)":"ae169a50","createCampaign(bytes32,uint256,address,uint256,uint256,uint256,address,uint256)":"851ca9d0","getCampaign(uint256)":"5598f8cc","getCampaigns()":"a6b03633","getFeesAccrued(bytes32,uint256,uint256)":"4cefe0fe","getFeesAccruedGlobal(bytes32,uint256,uint256)":"15126d34","getHooksRegistrationBitmap()":"f961d1f4","getRewards(bytes32,address)":"30dfa670","lastWithdrawals(bytes32)":"50c399f7","listAllRewards(address)":"5309e33d","listRewards(address,uint256)":"97b71c22","lockAcquired(bytes)":"ab6291fe","ogMultipliers(address,bytes32)":"6c10f1d1","owner()":"8da5cb5b","poolManager()":"dc4c90d3","renounceOwnership()":"715018a6","rewardClaims(address,uint256)":"779682c9","rewardClaimsCount(address)":"9246d9c5","rewards(bytes32,address)":"ed50e1da","setVkHash(bytes32)":"7859f6d9","transferOwnership(address)":"f2fde38b","userPositions(address,uint256)":"5e1b4d99","vault()":"fbfa77cf","vkHash()":"4fe840f5","withdrawRewards((bytes32,address,int24,int24,bytes32),address,address)":"d1083cb1"},"id":126}