{"abi":[{"type":"constructor","inputs":[{"name":"_poolManager","type":"address","internalType":"contract ICLPoolManager"},{"name":"_brevisRequest","type":"address","internalType":"address"}],"stateMutability":"nonpayable"},{"type":"function","name":"applyBrevisOpResult","inputs":[{"name":"_proofId","type":"bytes32","internalType":"bytes32"},{"name":"_nonce","type":"uint64","internalType":"uint64"},{"name":"_appVkHash","type":"bytes32","internalType":"bytes32"},{"name":"_appCommitHash","type":"bytes32","internalType":"bytes32"},{"name":"_appCircuitOutput","type":"bytes","internalType":"bytes"}],"outputs":[],"stateMutability":"nonpayable"},{"type":"function","name":"applyBrevisOpResults","inputs":[{"name":"_proofIds","type":"bytes32[]","internalType":"bytes32[]"},{"name":"_nonces","type":"uint64[]","internalType":"uint64[]"},{"name":"_appVkHashes","type":"bytes32[]","internalType":"bytes32[]"},{"name":"_appCommitHashes","type":"bytes32[]","internalType":"bytes32[]"},{"name":"_appCircuitOutputs","type":"bytes[]","internalType":"bytes[]"}],"outputs":[],"stateMutability":"nonpayable"},{"type":"function","name":"brevisBatchCallback","inputs":[{"name":"_appVkHashes","type":"bytes32[]","internalType":"bytes32[]"},{"name":"_appCircuitOutputs","type":"bytes[]","internalType":"bytes[]"}],"outputs":[],"stateMutability":"nonpayable"},{"type":"function","name":"brevisCallback","inputs":[{"name":"_appVkHash","type":"bytes32","internalType":"bytes32"},{"name":"_appCircuitOutput","type":"bytes","internalType":"bytes"}],"outputs":[],"stateMutability":"nonpayable"},{"type":"function","name":"brevisOpConfig","inputs":[],"outputs":[{"name":"challengeWindow","type":"uint64","internalType":"uint64"},{"name":"sigOption","type":"uint8","internalType":"uint8"}],"stateMutability":"view"},{"type":"function","name":"brevisRequest","inputs":[],"outputs":[{"name":"","type":"address","internalType":"address"}],"stateMutability":"view"},{"type":"function","name":"calculateRewards","inputs":[{"name":"params","type":"tuple","internalType":"struct Catapoolt.PositionParams","components":[{"name":"poolId","type":"bytes32","internalType":"PoolId"},{"name":"owner","type":"address","internalType":"address"},{"name":"tickLower","type":"int24","internalType":"int24"},{"name":"tickUpper","type":"int24","internalType":"int24"},{"name":"salt","type":"bytes32","internalType":"bytes32"}]},{"name":"rewardToken","type":"address","internalType":"contract IERC20"}],"outputs":[{"name":"rewards0","type":"uint256","internalType":"uint256"},{"name":"rewards1","type":"uint256","internalType":"uint256"}],"stateMutability":"view"},{"type":"function","name":"campaignIds","inputs":[{"name":"","type":"bytes32","internalType":"PoolId"}],"outputs":[{"name":"","type":"uint256","internalType":"uint256"}],"stateMutability":"view"},{"type":"function","name":"campaigns","inputs":[{"name":"","type":"uint256","internalType":"uint256"}],"outputs":[{"name":"id","type":"uint256","internalType":"uint256"},{"name":"pool","type":"bytes32","internalType":"PoolId"},{"name":"rewardAmount","type":"uint256","internalType":"uint256"},{"name":"rewardToken","type":"address","internalType":"address"},{"name":"startsAt","type":"uint256","internalType":"uint256"},{"name":"endsAt","type":"uint256","internalType":"uint256"}],"stateMutability":"view"},{"type":"function","name":"campaignsCount","inputs":[],"outputs":[{"name":"","type":"uint256","internalType":"uint256"}],"stateMutability":"view"},{"type":"function","name":"claimReward","inputs":[{"name":"campaign","type":"uint256","internalType":"uint256"}],"outputs":[],"stateMutability":"nonpayable"},{"type":"function","name":"createCampaign","inputs":[{"name":"_pool","type":"bytes32","internalType":"PoolId"},{"name":"_rewardAmount","type":"uint256","internalType":"uint256"},{"name":"_rewardToken","type":"address","internalType":"address"},{"name":"_startsAt","type":"uint256","internalType":"uint256"},{"name":"_endsAt","type":"uint256","internalType":"uint256"},{"name":"earnedFeesAmount","type":"uint256","internalType":"uint256"},{"name":"feeToken","type":"address","internalType":"address"},{"name":"multiplierPercent","type":"uint256","internalType":"uint256"}],"outputs":[],"stateMutability":"nonpayable"},{"type":"function","name":"createMultiplier","inputs":[{"name":"multiplier","type":"tuple","internalType":"struct Catapoolt.Multiplier","components":[{"name":"campaignId","type":"uint256","internalType":"uint256"},{"name":"earnedFeesAmount","type":"uint256","internalType":"uint256"},{"name":"feeToken","type":"address","internalType":"address"},{"name":"multiplier","type":"uint256","internalType":"uint256"}]}],"outputs":[],"stateMutability":"nonpayable"},{"type":"function","name":"getCampaign","inputs":[{"name":"id","type":"uint256","internalType":"uint256"}],"outputs":[{"name":"","type":"tuple","internalType":"struct Catapoolt.Campaign","components":[{"name":"id","type":"uint256","internalType":"uint256"},{"name":"pool","type":"bytes32","internalType":"PoolId"},{"name":"rewardAmount","type":"uint256","internalType":"uint256"},{"name":"rewardToken","type":"address","internalType":"address"},{"name":"startsAt","type":"uint256","internalType":"uint256"},{"name":"endsAt","type":"uint256","internalType":"uint256"}]}],"stateMutability":"view"},{"type":"function","name":"getCampaigns","inputs":[],"outputs":[{"name":"","type":"tuple[]","internalType":"struct Catapoolt.Campaign[]","components":[{"name":"id","type":"uint256","internalType":"uint256"},{"name":"pool","type":"bytes32","internalType":"PoolId"},{"name":"rewardAmount","type":"uint256","internalType":"uint256"},{"name":"rewardToken","type":"address","internalType":"address"},{"name":"startsAt","type":"uint256","internalType":"uint256"},{"name":"endsAt","type":"uint256","internalType":"uint256"}]}],"stateMutability":"view"},{"type":"function","name":"getFeesAccrued","inputs":[{"name":"poolId","type":"bytes32","internalType":"PoolId"},{"name":"owner","type":"address","internalType":"address"},{"name":"tickLower","type":"int24","internalType":"int24"},{"name":"tickUpper","type":"int24","internalType":"int24"},{"name":"salt","type":"bytes32","internalType":"bytes32"},{"name":"feeGrowthInside0X128LastWithdrawal","type":"uint256","internalType":"uint256"},{"name":"feeGrowthInside1X128LastWithdrawal","type":"uint256","internalType":"uint256"}],"outputs":[{"name":"fees0","type":"uint256","internalType":"uint256"},{"name":"fees1","type":"uint256","internalType":"uint256"}],"stateMutability":"view"},{"type":"function","name":"getFeesAccruedGlobal","inputs":[{"name":"poolId","type":"bytes32","internalType":"PoolId"},{"name":"feesGrowthGlobal0X128LastWithdrawal","type":"uint256","internalType":"uint256"},{"name":"feesGrowthGlobal1X128LastWithdrawal","type":"uint256","internalType":"uint256"}],"outputs":[{"name":"feesGlobal0","type":"uint256","internalType":"uint256"},{"name":"feesGlobal1","type":"uint256","internalType":"uint256"}],"stateMutability":"view"},{"type":"function","name":"getRewards","inputs":[{"name":"pool","type":"bytes32","internalType":"PoolId"},{"name":"rewardToken","type":"address","internalType":"contract IERC20"}],"outputs":[{"name":"","type":"uint256","internalType":"uint256"},{"name":"","type":"uint256","internalType":"uint256"}],"stateMutability":"view"},{"type":"function","name":"lastWithdrawals","inputs":[{"name":"","type":"bytes32","internalType":"bytes32"}],"outputs":[{"name":"feeGrowthInside0X128","type":"uint256","internalType":"uint256"},{"name":"feeGrowthInside1X128","type":"uint256","internalType":"uint256"},{"name":"feesGrowthGlobal0X128","type":"uint256","internalType":"uint256"},{"name":"feesGrowthGlobal1X128","type":"uint256","internalType":"uint256"},{"name":"timestamp","type":"uint256","internalType":"uint256"}],"stateMutability":"view"},{"type":"function","name":"listRewards","inputs":[{"name":"user","type":"address","internalType":"address"}],"outputs":[{"name":"","type":"tuple[]","internalType":"struct Catapoolt.Reward[]","components":[{"name":"id","type":"uint256","internalType":"uint256"},{"name":"campaignId","type":"uint256","internalType":"uint256"},{"name":"user","type":"address","internalType":"address"},{"name":"amount","type":"uint256","internalType":"uint256"},{"name":"claimed","type":"bool","internalType":"bool"},{"name":"claimedAt","type":"uint256","internalType":"uint256"}]}],"stateMutability":"view"},{"type":"function","name":"listRewards","inputs":[{"name":"user","type":"address","internalType":"address"},{"name":"campaignId","type":"uint256","internalType":"uint256"}],"outputs":[{"name":"","type":"tuple","internalType":"struct Catapoolt.Reward","components":[{"name":"id","type":"uint256","internalType":"uint256"},{"name":"campaignId","type":"uint256","internalType":"uint256"},{"name":"user","type":"address","internalType":"address"},{"name":"amount","type":"uint256","internalType":"uint256"},{"name":"claimed","type":"bool","internalType":"bool"},{"name":"claimedAt","type":"uint256","internalType":"uint256"}]}],"stateMutability":"view"},{"type":"function","name":"owner","inputs":[],"outputs":[{"name":"","type":"address","internalType":"address"}],"stateMutability":"view"},{"type":"function","name":"poolManager","inputs":[],"outputs":[{"name":"","type":"address","internalType":"contract ICLPoolManager"}],"stateMutability":"view"},{"type":"function","name":"renounceOwnership","inputs":[],"outputs":[],"stateMutability":"nonpayable"},{"type":"function","name":"rewards","inputs":[{"name":"","type":"bytes32","internalType":"PoolId"},{"name":"","type":"address","internalType":"contract IERC20"}],"outputs":[{"name":"amountPerSecond","type":"uint256","internalType":"uint256"},{"name":"durationInSeconds","type":"uint256","internalType":"uint256"}],"stateMutability":"view"},{"type":"function","name":"setVkHash","inputs":[{"name":"_vkHash","type":"bytes32","internalType":"bytes32"}],"outputs":[],"stateMutability":"nonpayable"},{"type":"function","name":"transferOwnership","inputs":[{"name":"newOwner","type":"address","internalType":"address"}],"outputs":[],"stateMutability":"nonpayable"},{"type":"function","name":"userPositions","inputs":[{"name":"","type":"address","internalType":"address"},{"name":"","type":"uint256","internalType":"uint256"}],"outputs":[{"name":"poolId","type":"bytes32","internalType":"PoolId"},{"name":"owner","type":"address","internalType":"address"},{"name":"tickLower","type":"int24","internalType":"int24"},{"name":"tickUpper","type":"int24","internalType":"int24"},{"name":"salt","type":"bytes32","internalType":"bytes32"}],"stateMutability":"view"},{"type":"function","name":"vkHash","inputs":[],"outputs":[{"name":"","type":"bytes32","internalType":"bytes32"}],"stateMutability":"view"},{"type":"function","name":"withdrawRewards","inputs":[{"name":"params","type":"tuple","internalType":"struct Catapoolt.PositionParams","components":[{"name":"poolId","type":"bytes32","internalType":"PoolId"},{"name":"owner","type":"address","internalType":"address"},{"name":"tickLower","type":"int24","internalType":"int24"},{"name":"tickUpper","type":"int24","internalType":"int24"},{"name":"salt","type":"bytes32","internalType":"bytes32"}]},{"name":"rewardToken","type":"address","internalType":"contract IERC20"},{"name":"claimer","type":"address","internalType":"address"}],"outputs":[{"name":"rewards0","type":"uint256","internalType":"uint256"},{"name":"rewards1","type":"uint256","internalType":"uint256"}],"stateMutability":"nonpayable"},{"type":"event","name":"CampaignCreated","inputs":[{"name":"id","type":"uint256","indexed":true,"internalType":"uint256"},{"name":"pool","type":"bytes32","indexed":true,"internalType":"PoolId"},{"name":"rewardAmount","type":"uint256","indexed":false,"internalType":"uint256"},{"name":"rewardToken","type":"address","indexed":false,"internalType":"address"},{"name":"startsAt","type":"uint256","indexed":false,"internalType":"uint256"},{"name":"endsAt","type":"uint256","indexed":false,"internalType":"uint256"}],"anonymous":false},{"type":"event","name":"OwnershipTransferred","inputs":[{"name":"previousOwner","type":"address","indexed":true,"internalType":"address"},{"name":"newOwner","type":"address","indexed":true,"internalType":"address"}],"anonymous":false},{"type":"error","name":"AddressEmptyCode","inputs":[{"name":"target","type":"address","internalType":"address"}]},{"type":"error","name":"AddressInsufficientBalance","inputs":[{"name":"account","type":"address","internalType":"address"}]},{"type":"error","name":"FailedInnerCall","inputs":[]},{"type":"error","name":"OwnableInvalidOwner","inputs":[{"name":"owner","type":"address","internalType":"address"}]},{"type":"error","name":"OwnableUnauthorizedAccount","inputs":[{"name":"account","type":"address","internalType":"address"}]},{"type":"error","name":"SafeERC20FailedOperation","inputs":[{"name":"token","type":"address","internalType":"address"}]}],"bytecode":{"object":"0x60806040523461016457604051601f61243138819003918201601f19168301916001600160401b0383118484101761014e5780849260409485528339810103126101645780516001600160a01b038116919082900361016457602001516001600160a01b0381169081900361016457604080519081016001600160401b0381118282101761014e576040526001600160401b0381526001602090910181905280546001600160481b0319166001600160411b03179055600080546001600160a01b03191691909117905533156101385760028054336001600160a01b0319821681179092556040519291906001600160a01b03167f8be0079c531659141344cd1fd0a4f28419497f9722a3daafe3b4186f6b6457e0600080a3600980546001600160a01b0319169190911790556122c7908161016a8239f35b631e4fbdf760e01b600052600060045260246000fd5b634e487b7160e01b600052604160045260246000fd5b600080fdfe6080604052600436101561001257600080fd5b60003560e01c8063141961bc146114b757806315126d341461149357806330dfa67014611468578063348016571461124957806338931a31146112205780633bca02fc1461118657806344c89b651461116857806346c483fa146111195780634fe840f5146110fb57806350c399f7146110a35780635598f8cc14610fdd5780635e1b4d9914610f5957806370fbc6e514610d18578063715018a614610cbb578063718f6ccd14610bc75780637828834514610b855780637859f6d914610b6457806379d6b6a214610b11578063851ca9d0146107d05780638da5cb5b146107a757806397b71c2214610736578063a6b036331461062a578063ae169a5014610617578063b471ad21146105eb578063c1bde0e1146105ba578063d1083cb1146102a8578063dc4c90d31461027f578063dd8234ee14610246578063ed50e1da146101f55763f2fde38b1461016657600080fd5b346101f05760203660031901126101f05761017f6115ba565b6101876120da565b6001600160a01b031680156101da57600280546001600160a01b0319811683179091556001600160a01b03167f8be0079c531659141344cd1fd0a4f28419497f9722a3daafe3b4186f6b6457e0600080a3005b631e4fbdf760e01b600052600060045260246000fd5b600080fd5b346101f05760403660031901126101f05761020e61155e565b600435600052600d60205260406000209060018060a01b03166000526020526040806000206001815491015482519182526020820152f35b346101f05760c03660031901126101f0576040610273610265366116ce565b61026d611574565b90611d0e565b82519182526020820152f35b346101f05760003660031901126101f0576009546040516001600160a01b039091168152602090f35b346101f05760e03660031901126101f0576102c2366116ce565b6102ca611574565b906102d36115e6565b6102dd8383611d0e565b91909260018060a01b036009541690805191602082019060018060a01b038251166040840192835160020b95606080870193845160020b9261033b60808a01948551906040519c8d958695637388426b60e01b8752600487016115fc565b0381875afa9687156104cb57600097610589575b506040865160248251809781936313d8a71960e31b835260048301525afa9283156104cb57600496600095600095610551575b50956103a8949596519360018060a01b03905116905160020b915160020b925193612103565b9160406020860151950151604051956103c08761165c565b86526020860190815260408601918252606086019283526080860193428552600052600c602052604060002095518655516001860155516002850155516003840155519101556104108284611ba1565b6040516370a0823160e01b81523060048201526001600160a01b0390951694602081602481895afa80156104cb57829160009161051c575b50106104d75760405163a9059cbb60e01b81526001600160a01b039092166004830152602482015292602090849060449082906000905af19283156104cb5760409361049c575b5082519182526020820152f35b6104bd9060203d6020116104c4575b6104b581836116ad565b8101906117b0565b508361048f565b503d6104ab565b6040513d6000823e3d90fd5b60405162461bcd60e51b815260206004820152601d60248201527f496e73756666696369656e7420636f6e74726163742062616c616e63650000006044820152606490fd5b9150506020813d602011610549575b81610538602093836116ad565b810103126101f05781905187610448565b3d915061052b565b6105799196506103a8955060403d604011610582575b61057181836116ad565b810190611733565b90959094610382565b503d610567565b6105ac91975060603d6060116105b3575b6105a481836116ad565b810190611955565b958b61034f565b503d61059a565b346101f05760003660031901126101f057604060015460ff8251916001600160401b0381168352831c166020820152f35b346101f05760203660031901126101f057600435600052600b6020526020604060002054604051908152f35b346101f05760203660031901126101f057005b346101f05760003660031901126101f05760035461064781611acf565b9061065560405192836116ad565b80825260208201908160036000527fc2575a0e9e593c00f959f8c92f12db2869c3395a3b0502d05e2516446f71f85b6000915b8383106107185784866040519182916020830190602084525180915260408301919060005b8181106106bb575050500390f35b91935091602060c08261070a600194885160a08091805184526020810151602085015260408101516040850152600180831b036060820151166060850152608081015160808501520151910152565b0194019101918493926106ad565b6006602060019261072885611a80565b815201920192019190610688565b346101f05760403660031901126101f05760c061075d6107546115ba565b60243590611bae565b6107a5604051809260a080918051845260208101516020850152600180831b036040820151166040850152606081015160608501526080810151151560808501520151910152565bf35b346101f05760003660031901126101f0576002546040516001600160a01b039091168152602090f35b346101f0576101003660031901126101f0576024356004356107f06115d0565b606435916084356107ff6115e6565b926001600160a01b0316908115610acc5784811115610a7d578515610a285761088d60008060405160208101906323b872dd60e01b82523360248201523060448201528a6064820152606481526108576084826116ad565b519082875af13d15610a20573d9061086e82611881565b9161087c60405193846116ad565b82523d6000602084013e5b84612230565b8051908115159182610a05575b50506109f05760045495604051966108b188611692565b8752602087019084825260408801928184526060890198858a52608081019089825260a08101838152600354680100000000000000008110156109da578060016108fe9201600355611529565b9390936109c4576109bf9c7f3f1409f785e0e4dbb192a711559a3ce534f2ff9a446f939875de41c66ee4a7eb98608098600595518755516001870155516002860155600385019060018060a01b039051166bffffffffffffffffffffffff60a01b82541617905551600484015551910155600454978895604051938452602084015260408301526060820152a36040519061099882611677565b82825260a43560208301526001600160a01b0316604082015260e435606090910152611b7c565b600455005b634e487b7160e01b600052600060045260246000fd5b634e487b7160e01b600052604160045260246000fd5b50635274afe760e01b60005260045260246000fd5b610a1892506020809183010191016117b0565b15878061089a565b606090610887565b60405162461bcd60e51b815260206004820152602760248201527f52657761726420616d6f756e74206d7573742062652067726561746572207468604482015266616e207a65726f60c81b6064820152608490fd5b60405162461bcd60e51b815260206004820152602160248201527f456e642074696d65206d7573742062652061667465722073746172742074696d6044820152606560f81b6064820152608490fd5b60405162461bcd60e51b815260206004820152601c60248201527f496e76616c69642072657761726420746f6b656e2061646472657373000000006044820152606490fd5b346101f05760403660031901126101f0576024356001600160401b0381116101f057610b44610b6291369060040161162f565b90610b5a60018060a01b03600054163314611918565b600435611e8b565b005b346101f05760203660031901126101f057610b7d6120da565b600435600555005b346101f05760803660031901126101f057604051610ba281611677565b60043581526024356020820152610bb76115d0565b6040820152606435606090910152005b346101f05760a03660031901126101f0576024356001600160401b0381168091036101f0576064356084356001600160401b0381116101f05760c492610c13602092369060040161162f565b929091610c1e611e49565b96909160018060a01b036000541660ff604051998a95869463054eee2f60e41b8652600435600487015260248601528a6044860152604435606486015260848501521660a48301525afa9182156104cb57610c88610c8f93610b6296600091610c9c575b506117ec565b369161189c565b60208151910120146118d3565b610cb5915060203d6020116104c4576104b581836116ad565b87610c82565b346101f05760003660031901126101f057610cd46120da565b600280546001600160a01b031981169091556000906001600160a01b03167f8be0079c531659141344cd1fd0a4f28419497f9722a3daafe3b4186f6b6457e08280a3005b346101f05760203660031901126101f057610d316115ba565b60018060a01b038116600052600a6020526040600020908154610d5381611acf565b92610d6160405194856116ad565b818452602084019060005260206000206000915b838310610f03578585610d888251611ae6565b6000610d948451611b18565b815b8551811015610e3757610da98187611b68565b5151600052600b6020526040600020546000805b858110610e14575b5015610dd5575b50600101610d96565b83610df282610e0d93610deb600196988a611b68565b5288611bae565b610dfc8286611b68565b52610e078185611b68565b50611b7c565b9290610dcc565b82610e1f8289611b68565b5114610e2d57600101610dbd565b5050600188610dc5565b5090610e4281611b18565b9160005b828110610ed9578360405180916020820160208352815180915260206040840192019060005b818110610e7a575050500390f35b91935091602060c082610ecb600194885160a080918051845260208101516020850152600180831b036040820151166040850152606081015160608501526080810151151560808501520151910152565b019401910191849392610e6c565b80610ee660019284611b68565b51610ef18287611b68565b52610efc8186611b68565b5001610e46565b60036020600192604051610f168161165c565b8554815284860154858060a01b038116848301528060a01c60020b604083015260b81c60020b606082015260028601546080820152815201920192019190610d75565b346101f05760403660031901126101f057610f726115ba565b6001600160a01b03166000908152600a60205260409020805460243591908210156101f05760005260036020600020910201805490610fd9600260018301549201546040519383859460b81c60020b918160a01c60020b9160018060a01b031690866115fc565b0390f35b346101f05760203660031901126101f057600435610ff9611a4f565b5060035481101561105e5761101861101260c092611529565b50611a80565b6107a5604051809260a08091805184526020810151602085015260408101516040850152600180831b036060820151166060850152608081015160808501520151910152565b60405162461bcd60e51b815260206004820152601760248201527f43616d706169676e20646f6573206e6f742065786973740000000000000000006044820152606490fd5b346101f05760203660031901126101f057600435600052600c60205260a06040600020805490600181015490600281015460046003830154920154926040519485526020850152604084015260608301526080820152f35b346101f05760003660031901126101f0576020600554604051908152f35b346101f05760e03660031901126101f05761113261155e565b604435908160020b82036101f0576064358060020b81036101f0576040926102739260c4359260a43592608435926004356119cd565b346101f05760003660031901126101f0576020600454604051908152f35b346101f05760403660031901126101f0576004356001600160401b0381116101f0576111b690369060040161158a565b6024356001600160401b0381116101f0576111d590369060040161158a565b906111eb60018060a01b03600054163314611918565b60005b8381106111f757005b8061121a6112086001938789611830565b35611214838787611840565b91611e8b565b016111ee565b346101f05760003660031901126101f0576000546040516001600160a01b039091168152602090f35b346101f05760a03660031901126101f0576004356001600160401b0381116101f05761127990369060040161158a565b6024356001600160401b0381116101f05761129890369060040161158a565b906044356001600160401b0381116101f0576112b890369060040161158a565b9290916064356001600160401b0381116101f0576112da90369060040161158a565b96608435906001600160401b0382116101f05760048887926113428a8799988e61130960c0993690890161158a565b9c909b6020611316611e49565b97909860018060a01b03600054169a6040519e8f9d8e63a90f4bd760e01b8152015260c48d01916117c8565b8a81036003190160248c01528281520193906000905b8082106114295750505060209888969461138660ff95899895611398956003198b84030160448c01526117c8565b878103600319016064890152916117c8565b9260848501521660a483015203915afa80156104cb576113bf9160009161140a57506117ec565b60005b8681106113cb57005b806113eb6113dc6001938b86611830565b35610c8f610c88848989611840565b6113f6818888611830565b50611402818686611840565b5050016113c2565b611423915060203d6020116104c4576104b581836116ad565b89610c82565b95509597995095975050508335906001600160401b0382168092036101f0576020816001938293520194019201928e898d9896948f94968b9997611358565b346101f05760403660031901126101f05761148161155e565b50604080516000815260006020820152f35b346101f05760603660031901126101f0576040610273604435602435600435611749565b346101f05760203660031901126101f0576004356003548110156101f0576114e060c091611529565b50805490600181015490600281015460018060a01b03600383015416906005600484015493015493604051958652602086015260408501526060840152608083015260a0820152f35b6003548110156115485760036000526006602060002091020190600090565b634e487b7160e01b600052603260045260246000fd5b602435906001600160a01b03821682036101f057565b60a435906001600160a01b03821682036101f057565b9181601f840112156101f0578235916001600160401b0383116101f0576020808501948460051b0101116101f057565b600435906001600160a01b03821682036101f057565b604435906001600160a01b03821682036101f057565b60c435906001600160a01b03821682036101f057565b9081526001600160a01b039091166020820152600291820b604082015291900b6060820152608081019190915260a00190565b9181601f840112156101f0578235916001600160401b0383116101f057602083818601950101116101f057565b60a081019081106001600160401b038211176109da57604052565b608081019081106001600160401b038211176109da57604052565b60c081019081106001600160401b038211176109da57604052565b90601f801991011681019081106001600160401b038211176109da57604052565b60a09060031901126101f057604051906116e78261165c565b6004358252816024356001600160a01b03811681036101f05760208201526044358060020b81036101f05760408201526064358060020b81036101f05760608201526080608435910152565b91908260409103126101f0576020825192015190565b929190604060018060a01b03600954169460248251809781936313d8a71960e31b835260048301525afa9384156104cb5760009060009561178c575b5003920390565b90506117a891945060403d6040116105825761057181836116ad565b939038611785565b908160209103126101f0575180151581036101f05790565b81835290916001600160fb1b0383116101f05760209260051b809284830137010190565b156117f357565b60405162461bcd60e51b815260206004820152601560248201527464617461206e6f7420726561647920746f2075736560581b6044820152606490fd5b91908110156115485760051b0190565b91908110156115485760051b81013590601e19813603018212156101f05701908135916001600160401b0383116101f05760200182360381136101f0579190565b6001600160401b0381116109da57601f01601f191660200190565b9291926118a882611881565b916118b660405193846116ad565b8294818452818301116101f0578281602093846000960137010152565b156118da57565b60405162461bcd60e51b81526020600482015260166024820152751a5b9d985b1a590818da5c98dd5a5d081bdd5d1c1d5d60521b6044820152606490fd5b1561191f57565b60405162461bcd60e51b815260206004820152600e60248201526d34b73b30b634b21031b0b63632b960911b6044820152606490fd5b908160609103126101f057604051906000606083016001600160401b038111848210176119b9576040528151906fffffffffffffffffffffffffffffffff821682036119b65750906040918352602081015160208401520151604082015290565b80fd5b634e487b7160e01b82526041600452602482fd5b600954604051637388426b60e01b8152989796956060958a956001600160a01b039093169486948594611a079493929091600487016115fc565b03915afa9384156104cb57600094611a2b575b506040906020850151039301510390565b6040919450611a489060603d6060116105b3576105a481836116ad565b9390611a1a565b60405190611a5c82611692565b600060a0838281528260208201528260408201528260608201528260808201520152565b90604051611a8d81611692565b82548152600183015460208201526002830154604082015260038301546001600160a01b031660608201526004830154608082015260059092015460a0830152565b6001600160401b0381116109da5760051b60200190565b90611af082611acf565b611afd60405191826116ad565b8281528092611b0e601f1991611acf565b0190602036910137565b90611b2282611acf565b611b2f60405191826116ad565b8281528092611b40601f1991611acf565b019060005b828110611b5157505050565b602090611b5c611a4f565b82828501015201611b45565b80518210156115485760209160051b010190565b6000198114611b8b5760010190565b634e487b7160e01b600052601160045260246000fd5b91908201809211611b8b57565b611bb6611a4f565b506001600160a01b03166000818152600a60205260409020805491929091611bdd81611acf565b92611beb60405194856116ad565b818452602084019060005260206000206000915b838310611cb8575050505060009060005b8351811015611c8357611c238185611b68565b5151600052600b6020528160406000205414611c42575b600101611c10565b91611c7b600191611c75611c75611c5886611529565b506003868060a01b0391015416611c6f888a611b68565b51611d0e565b90611ba1565b929050611c3a565b5060405193919250611c9484611692565b6000845260208401526040830152606082015260006080820152600060a082015290565b60036020600192604051611ccb8161165c565b8554815284860154858060a01b038116848301528060a01c60020b604083015260b81c60020b606082015260028601546080820152815201920192019190611bff565b600492916002825192611dce611dbf602080840160018060a01b03815116906040860191611d518351890b9a606089019b8c518b0b9060808b0194855193612103565b600052600c84526040600020998a9360806040519e8f9b8c97611d738961165c565b80548099528d60018201549a8b91015201549d60408d019e8f52606060038201549d019c8d5201549e019d8e5288519360018060a01b03905116905160020b915160020b9251936119cd565b95909383519151905191611749565b939096519081420392428411611b8b5751600052600d60205260406000209060018060a01b0316600052602052604060002054808302928304149042141715611b8b5760011c948581611e3b5750505060005b9381611e2f57505050600090565b611e3892612155565b90565b611e4492612155565b611e21565b6040519060408201918083106001600160401b038411176109da576020926040526001549060ff6001600160401b0383169283835260401c1693849101529190565b929192600554036120a857916048810491611ea583611ae6565b92611eaf81611ae6565b94611eb982611ae6565b9360005b838110611fa457505050506000925b8051841015611f9d576001600160a01b03611ee78583611b68565b5116926001600160a01b03611efc8688611b68565b511692611f098683611b68565b519660005b856000526007602052604060002054811015611f8a5785600052600660205260406000209081548110156115485760019160005260206000208160021b01828101548b1015611f5f575b5001611f0e565b6003810154908960005260086020526002604060002091015460005260205260406000205538611f58565b5096506001909501949093509150611ecc565b5092505050565b6048819896989795970281810460481482151715611b8b576014810190600082821161209457611fdf611fd98484888a6121d8565b906121f0565b60601c611fec858a611b68565b5250600091602882019081831161208057611fd98261200c92888a6121d8565b60601c612019858b611b68565b526048820180921161206c5760019392916120359186886121d8565b915035906020811061205a575b5061204d828b611b68565b5201969496959395611ebd565b6000199060200360031b1b1638612042565b634e487b7160e01b83526011600452602483fd5b634e487b7160e01b84526011600452602484fd5b634e487b7160e01b81526011600452602490fd5b60405162461bcd60e51b815260206004820152600a602482015269696e76616c696420766b60b01b6044820152606490fd5b6002546001600160a01b031633036120ee57565b63118cdaa760e01b6000523360045260246000fd5b939192909260405193602085019586526bffffffffffffffffffffffff199060601b16604085015260e81b605484015260e81b6057830152605a820152605a815261214f607a826116ad565b51902090565b9181830291600019818509938380861095039480860395868511156101f057146121d05790829109818060000316809204600281600302188082026002030280820260020302808202600203028082026002030280820260020302809102600203029360018380600003040190848311900302920304170290565b505091500490565b909392938483116101f05784116101f0578101920390565b356bffffffffffffffffffffffff19811692919060148210612210575050565b6bffffffffffffffffffffffff1960149290920360031b82901b16169150565b90612256575080511561224557805190602001fd5b630a12f52160e11b60005260046000fd5b81511580612288575b612267575090565b639996b31560e01b60009081526001600160a01b0391909116600452602490fd5b50803b1561225f56fea2646970667358221220fbfea1c8cb06a9bb30a27d3ab675361e2be740949995a287c8a2e998681b8e5764736f6c634300081a0033","linkReferences":{}},"methodIdentifiers":{"applyBrevisOpResult(bytes32,uint64,bytes32,bytes32,bytes)":"718f6ccd","applyBrevisOpResults(bytes32[],uint64[],bytes32[],bytes32[],bytes[])":"34801657","brevisBatchCallback(bytes32[],bytes[])":"3bca02fc","brevisCallback(bytes32,bytes)":"79d6b6a2","brevisOpConfig()":"c1bde0e1","brevisRequest()":"38931a31","calculateRewards((bytes32,address,int24,int24,bytes32),address)":"dd8234ee","campaignIds(bytes32)":"b471ad21","campaigns(uint256)":"141961bc","campaignsCount()":"44c89b65","claimReward(uint256)":"ae169a50","createCampaign(bytes32,uint256,address,uint256,uint256,uint256,address,uint256)":"851ca9d0","createMultiplier((uint256,uint256,address,uint256))":"78288345","getCampaign(uint256)":"5598f8cc","getCampaigns()":"a6b03633","getFeesAccrued(bytes32,address,int24,int24,bytes32,uint256,uint256)":"46c483fa","getFeesAccruedGlobal(bytes32,uint256,uint256)":"15126d34","getRewards(bytes32,address)":"30dfa670","lastWithdrawals(bytes32)":"50c399f7","listRewards(address)":"70fbc6e5","listRewards(address,uint256)":"97b71c22","owner()":"8da5cb5b","poolManager()":"dc4c90d3","renounceOwnership()":"715018a6","rewards(bytes32,address)":"ed50e1da","setVkHash(bytes32)":"7859f6d9","transferOwnership(address)":"f2fde38b","userPositions(address,uint256)":"5e1b4d99","vkHash()":"4fe840f5","withdrawRewards((bytes32,address,int24,int24,bytes32),address,address)":"d1083cb1"},"id":59}