{"abi":[{"type":"constructor","inputs":[{"name":"_poolManager","type":"address","internalType":"contract ICLPoolManager"},{"name":"_positionManager","type":"address","internalType":"contract CLPositionManager"},{"name":"_brevisRequest","type":"address","internalType":"address"}],"stateMutability":"nonpayable"},{"type":"function","name":"afterAddLiquidity","inputs":[{"name":"","type":"address","internalType":"address"},{"name":"poolKey","type":"tuple","internalType":"struct PoolKey","components":[{"name":"currency0","type":"address","internalType":"Currency"},{"name":"currency1","type":"address","internalType":"Currency"},{"name":"hooks","type":"address","internalType":"contract IHooks"},{"name":"poolManager","type":"address","internalType":"contract IPoolManager"},{"name":"fee","type":"uint24","internalType":"uint24"},{"name":"parameters","type":"bytes32","internalType":"bytes32"}]},{"name":"modLiqParams","type":"tuple","internalType":"struct ICLPoolManager.ModifyLiquidityParams","components":[{"name":"tickLower","type":"int24","internalType":"int24"},{"name":"tickUpper","type":"int24","internalType":"int24"},{"name":"liquidityDelta","type":"int256","internalType":"int256"},{"name":"salt","type":"bytes32","internalType":"bytes32"}]},{"name":"","type":"int256","internalType":"BalanceDelta"},{"name":"","type":"bytes","internalType":"bytes"}],"outputs":[{"name":"","type":"bytes4","internalType":"bytes4"},{"name":"","type":"int256","internalType":"BalanceDelta"}],"stateMutability":"nonpayable"},{"type":"function","name":"afterDonate","inputs":[{"name":"","type":"address","internalType":"address"},{"name":"","type":"tuple","internalType":"struct PoolKey","components":[{"name":"currency0","type":"address","internalType":"Currency"},{"name":"currency1","type":"address","internalType":"Currency"},{"name":"hooks","type":"address","internalType":"contract IHooks"},{"name":"poolManager","type":"address","internalType":"contract IPoolManager"},{"name":"fee","type":"uint24","internalType":"uint24"},{"name":"parameters","type":"bytes32","internalType":"bytes32"}]},{"name":"","type":"uint256","internalType":"uint256"},{"name":"","type":"uint256","internalType":"uint256"},{"name":"","type":"bytes","internalType":"bytes"}],"outputs":[{"name":"","type":"bytes4","internalType":"bytes4"}],"stateMutability":"nonpayable"},{"type":"function","name":"afterInitialize","inputs":[{"name":"","type":"address","internalType":"address"},{"name":"","type":"tuple","internalType":"struct PoolKey","components":[{"name":"currency0","type":"address","internalType":"Currency"},{"name":"currency1","type":"address","internalType":"Currency"},{"name":"hooks","type":"address","internalType":"contract IHooks"},{"name":"poolManager","type":"address","internalType":"contract IPoolManager"},{"name":"fee","type":"uint24","internalType":"uint24"},{"name":"parameters","type":"bytes32","internalType":"bytes32"}]},{"name":"","type":"uint160","internalType":"uint160"},{"name":"","type":"int24","internalType":"int24"},{"name":"","type":"bytes","internalType":"bytes"}],"outputs":[{"name":"","type":"bytes4","internalType":"bytes4"}],"stateMutability":"nonpayable"},{"type":"function","name":"afterRemoveLiquidity","inputs":[{"name":"","type":"address","internalType":"address"},{"name":"","type":"tuple","internalType":"struct PoolKey","components":[{"name":"currency0","type":"address","internalType":"Currency"},{"name":"currency1","type":"address","internalType":"Currency"},{"name":"hooks","type":"address","internalType":"contract IHooks"},{"name":"poolManager","type":"address","internalType":"contract IPoolManager"},{"name":"fee","type":"uint24","internalType":"uint24"},{"name":"parameters","type":"bytes32","internalType":"bytes32"}]},{"name":"","type":"tuple","internalType":"struct ICLPoolManager.ModifyLiquidityParams","components":[{"name":"tickLower","type":"int24","internalType":"int24"},{"name":"tickUpper","type":"int24","internalType":"int24"},{"name":"liquidityDelta","type":"int256","internalType":"int256"},{"name":"salt","type":"bytes32","internalType":"bytes32"}]},{"name":"delta","type":"int256","internalType":"BalanceDelta"},{"name":"","type":"bytes","internalType":"bytes"}],"outputs":[{"name":"","type":"bytes4","internalType":"bytes4"},{"name":"","type":"int256","internalType":"BalanceDelta"}],"stateMutability":"pure"},{"type":"function","name":"afterSwap","inputs":[{"name":"","type":"address","internalType":"address"},{"name":"","type":"tuple","internalType":"struct PoolKey","components":[{"name":"currency0","type":"address","internalType":"Currency"},{"name":"currency1","type":"address","internalType":"Currency"},{"name":"hooks","type":"address","internalType":"contract IHooks"},{"name":"poolManager","type":"address","internalType":"contract IPoolManager"},{"name":"fee","type":"uint24","internalType":"uint24"},{"name":"parameters","type":"bytes32","internalType":"bytes32"}]},{"name":"","type":"tuple","internalType":"struct ICLPoolManager.SwapParams","components":[{"name":"zeroForOne","type":"bool","internalType":"bool"},{"name":"amountSpecified","type":"int256","internalType":"int256"},{"name":"sqrtPriceLimitX96","type":"uint160","internalType":"uint160"}]},{"name":"","type":"int256","internalType":"BalanceDelta"},{"name":"","type":"bytes","internalType":"bytes"}],"outputs":[{"name":"","type":"bytes4","internalType":"bytes4"},{"name":"","type":"int128","internalType":"int128"}],"stateMutability":"nonpayable"},{"type":"function","name":"applyBrevisOpResult","inputs":[{"name":"_proofId","type":"bytes32","internalType":"bytes32"},{"name":"_nonce","type":"uint64","internalType":"uint64"},{"name":"_appVkHash","type":"bytes32","internalType":"bytes32"},{"name":"_appCommitHash","type":"bytes32","internalType":"bytes32"},{"name":"_appCircuitOutput","type":"bytes","internalType":"bytes"}],"outputs":[],"stateMutability":"nonpayable"},{"type":"function","name":"applyBrevisOpResults","inputs":[{"name":"_proofIds","type":"bytes32[]","internalType":"bytes32[]"},{"name":"_nonces","type":"uint64[]","internalType":"uint64[]"},{"name":"_appVkHashes","type":"bytes32[]","internalType":"bytes32[]"},{"name":"_appCommitHashes","type":"bytes32[]","internalType":"bytes32[]"},{"name":"_appCircuitOutputs","type":"bytes[]","internalType":"bytes[]"}],"outputs":[],"stateMutability":"nonpayable"},{"type":"function","name":"beforeAddLiquidity","inputs":[{"name":"","type":"address","internalType":"address"},{"name":"","type":"tuple","internalType":"struct PoolKey","components":[{"name":"currency0","type":"address","internalType":"Currency"},{"name":"currency1","type":"address","internalType":"Currency"},{"name":"hooks","type":"address","internalType":"contract IHooks"},{"name":"poolManager","type":"address","internalType":"contract IPoolManager"},{"name":"fee","type":"uint24","internalType":"uint24"},{"name":"parameters","type":"bytes32","internalType":"bytes32"}]},{"name":"","type":"tuple","internalType":"struct ICLPoolManager.ModifyLiquidityParams","components":[{"name":"tickLower","type":"int24","internalType":"int24"},{"name":"tickUpper","type":"int24","internalType":"int24"},{"name":"liquidityDelta","type":"int256","internalType":"int256"},{"name":"salt","type":"bytes32","internalType":"bytes32"}]},{"name":"","type":"bytes","internalType":"bytes"}],"outputs":[{"name":"","type":"bytes4","internalType":"bytes4"}],"stateMutability":"nonpayable"},{"type":"function","name":"beforeDonate","inputs":[{"name":"","type":"address","internalType":"address"},{"name":"","type":"tuple","internalType":"struct PoolKey","components":[{"name":"currency0","type":"address","internalType":"Currency"},{"name":"currency1","type":"address","internalType":"Currency"},{"name":"hooks","type":"address","internalType":"contract IHooks"},{"name":"poolManager","type":"address","internalType":"contract IPoolManager"},{"name":"fee","type":"uint24","internalType":"uint24"},{"name":"parameters","type":"bytes32","internalType":"bytes32"}]},{"name":"","type":"uint256","internalType":"uint256"},{"name":"","type":"uint256","internalType":"uint256"},{"name":"","type":"bytes","internalType":"bytes"}],"outputs":[{"name":"","type":"bytes4","internalType":"bytes4"}],"stateMutability":"nonpayable"},{"type":"function","name":"beforeInitialize","inputs":[{"name":"","type":"address","internalType":"address"},{"name":"","type":"tuple","internalType":"struct PoolKey","components":[{"name":"currency0","type":"address","internalType":"Currency"},{"name":"currency1","type":"address","internalType":"Currency"},{"name":"hooks","type":"address","internalType":"contract IHooks"},{"name":"poolManager","type":"address","internalType":"contract IPoolManager"},{"name":"fee","type":"uint24","internalType":"uint24"},{"name":"parameters","type":"bytes32","internalType":"bytes32"}]},{"name":"","type":"uint160","internalType":"uint160"},{"name":"","type":"bytes","internalType":"bytes"}],"outputs":[{"name":"","type":"bytes4","internalType":"bytes4"}],"stateMutability":"nonpayable"},{"type":"function","name":"beforeRemoveLiquidity","inputs":[{"name":"","type":"address","internalType":"address"},{"name":"","type":"tuple","internalType":"struct PoolKey","components":[{"name":"currency0","type":"address","internalType":"Currency"},{"name":"currency1","type":"address","internalType":"Currency"},{"name":"hooks","type":"address","internalType":"contract IHooks"},{"name":"poolManager","type":"address","internalType":"contract IPoolManager"},{"name":"fee","type":"uint24","internalType":"uint24"},{"name":"parameters","type":"bytes32","internalType":"bytes32"}]},{"name":"","type":"tuple","internalType":"struct ICLPoolManager.ModifyLiquidityParams","components":[{"name":"tickLower","type":"int24","internalType":"int24"},{"name":"tickUpper","type":"int24","internalType":"int24"},{"name":"liquidityDelta","type":"int256","internalType":"int256"},{"name":"salt","type":"bytes32","internalType":"bytes32"}]},{"name":"","type":"bytes","internalType":"bytes"}],"outputs":[{"name":"","type":"bytes4","internalType":"bytes4"}],"stateMutability":"pure"},{"type":"function","name":"beforeSwap","inputs":[{"name":"","type":"address","internalType":"address"},{"name":"","type":"tuple","internalType":"struct PoolKey","components":[{"name":"currency0","type":"address","internalType":"Currency"},{"name":"currency1","type":"address","internalType":"Currency"},{"name":"hooks","type":"address","internalType":"contract IHooks"},{"name":"poolManager","type":"address","internalType":"contract IPoolManager"},{"name":"fee","type":"uint24","internalType":"uint24"},{"name":"parameters","type":"bytes32","internalType":"bytes32"}]},{"name":"","type":"tuple","internalType":"struct ICLPoolManager.SwapParams","components":[{"name":"zeroForOne","type":"bool","internalType":"bool"},{"name":"amountSpecified","type":"int256","internalType":"int256"},{"name":"sqrtPriceLimitX96","type":"uint160","internalType":"uint160"}]},{"name":"","type":"bytes","internalType":"bytes"}],"outputs":[{"name":"","type":"bytes4","internalType":"bytes4"},{"name":"","type":"int256","internalType":"BeforeSwapDelta"},{"name":"","type":"uint24","internalType":"uint24"}],"stateMutability":"nonpayable"},{"type":"function","name":"brevisBatchCallback","inputs":[{"name":"_appVkHashes","type":"bytes32[]","internalType":"bytes32[]"},{"name":"_appCircuitOutputs","type":"bytes[]","internalType":"bytes[]"}],"outputs":[],"stateMutability":"nonpayable"},{"type":"function","name":"brevisCallback","inputs":[{"name":"_appVkHash","type":"bytes32","internalType":"bytes32"},{"name":"_appCircuitOutput","type":"bytes","internalType":"bytes"}],"outputs":[],"stateMutability":"nonpayable"},{"type":"function","name":"brevisOpConfig","inputs":[],"outputs":[{"name":"challengeWindow","type":"uint64","internalType":"uint64"},{"name":"sigOption","type":"uint8","internalType":"uint8"}],"stateMutability":"view"},{"type":"function","name":"brevisRequest","inputs":[],"outputs":[{"name":"","type":"address","internalType":"address"}],"stateMutability":"view"},{"type":"function","name":"calculateRewards","inputs":[{"name":"params","type":"tuple","internalType":"struct Catapoolt.PositionParams","components":[{"name":"poolId","type":"bytes32","internalType":"PoolId"},{"name":"owner","type":"address","internalType":"address"},{"name":"tickLower","type":"int24","internalType":"int24"},{"name":"tickUpper","type":"int24","internalType":"int24"},{"name":"salt","type":"bytes32","internalType":"bytes32"}]},{"name":"rewardToken","type":"address","internalType":"contract IERC20"},{"name":"campaignId","type":"uint256","internalType":"uint256"}],"outputs":[{"name":"rewards0","type":"uint256","internalType":"uint256"},{"name":"rewards1","type":"uint256","internalType":"uint256"}],"stateMutability":"view"},{"type":"function","name":"campaignIds","inputs":[{"name":"","type":"bytes32","internalType":"PoolId"}],"outputs":[{"name":"","type":"uint256","internalType":"uint256"}],"stateMutability":"view"},{"type":"function","name":"campaigns","inputs":[{"name":"","type":"uint256","internalType":"uint256"}],"outputs":[{"name":"id","type":"uint256","internalType":"uint256"},{"name":"pool","type":"bytes32","internalType":"PoolId"},{"name":"rewardAmount","type":"uint256","internalType":"uint256"},{"name":"rewardToken","type":"address","internalType":"address"},{"name":"startsAt","type":"uint256","internalType":"uint256"},{"name":"endsAt","type":"uint256","internalType":"uint256"},{"name":"earnedFeesAmount","type":"uint256","internalType":"uint256"},{"name":"feeToken","type":"address","internalType":"address"},{"name":"multiplier","type":"uint256","internalType":"uint256"}],"stateMutability":"view"},{"type":"function","name":"campaignsCount","inputs":[],"outputs":[{"name":"","type":"uint256","internalType":"uint256"}],"stateMutability":"view"},{"type":"function","name":"claimReward","inputs":[{"name":"campaign","type":"uint256","internalType":"uint256"}],"outputs":[],"stateMutability":"nonpayable"},{"type":"function","name":"createCampaign","inputs":[{"name":"_pool","type":"bytes32","internalType":"PoolId"},{"name":"_rewardAmount","type":"uint256","internalType":"uint256"},{"name":"_rewardToken","type":"address","internalType":"address"},{"name":"_startsAt","type":"uint256","internalType":"uint256"},{"name":"_endsAt","type":"uint256","internalType":"uint256"},{"name":"earnedFeesAmount","type":"uint256","internalType":"uint256"},{"name":"feeToken","type":"address","internalType":"address"},{"name":"multiplierPercent","type":"uint256","internalType":"uint256"}],"outputs":[{"name":"","type":"uint256","internalType":"uint256"}],"stateMutability":"nonpayable"},{"type":"function","name":"getCampaign","inputs":[{"name":"id","type":"uint256","internalType":"uint256"}],"outputs":[{"name":"","type":"tuple","internalType":"struct Catapoolt.Campaign","components":[{"name":"id","type":"uint256","internalType":"uint256"},{"name":"pool","type":"bytes32","internalType":"PoolId"},{"name":"rewardAmount","type":"uint256","internalType":"uint256"},{"name":"rewardToken","type":"address","internalType":"address"},{"name":"startsAt","type":"uint256","internalType":"uint256"},{"name":"endsAt","type":"uint256","internalType":"uint256"},{"name":"earnedFeesAmount","type":"uint256","internalType":"uint256"},{"name":"feeToken","type":"address","internalType":"address"},{"name":"multiplier","type":"uint256","internalType":"uint256"}]}],"stateMutability":"view"},{"type":"function","name":"getCampaigns","inputs":[],"outputs":[{"name":"","type":"tuple[]","internalType":"struct Catapoolt.Campaign[]","components":[{"name":"id","type":"uint256","internalType":"uint256"},{"name":"pool","type":"bytes32","internalType":"PoolId"},{"name":"rewardAmount","type":"uint256","internalType":"uint256"},{"name":"rewardToken","type":"address","internalType":"address"},{"name":"startsAt","type":"uint256","internalType":"uint256"},{"name":"endsAt","type":"uint256","internalType":"uint256"},{"name":"earnedFeesAmount","type":"uint256","internalType":"uint256"},{"name":"feeToken","type":"address","internalType":"address"},{"name":"multiplier","type":"uint256","internalType":"uint256"}]}],"stateMutability":"view"},{"type":"function","name":"getFeesAccrued","inputs":[{"name":"salt","type":"bytes32","internalType":"bytes32"},{"name":"feeGrowthInside0X128LastWithdrawal","type":"uint256","internalType":"uint256"},{"name":"feeGrowthInside1X128LastWithdrawal","type":"uint256","internalType":"uint256"}],"outputs":[{"name":"fees0","type":"uint256","internalType":"uint256"},{"name":"fees1","type":"uint256","internalType":"uint256"}],"stateMutability":"view"},{"type":"function","name":"getFeesAccruedGlobal","inputs":[{"name":"poolId","type":"bytes32","internalType":"PoolId"},{"name":"feesGrowthGlobal0X128LastWithdrawal","type":"uint256","internalType":"uint256"},{"name":"feesGrowthGlobal1X128LastWithdrawal","type":"uint256","internalType":"uint256"}],"outputs":[{"name":"feesGlobal0","type":"uint256","internalType":"uint256"},{"name":"feesGlobal1","type":"uint256","internalType":"uint256"}],"stateMutability":"view"},{"type":"function","name":"getHooksRegistrationBitmap","inputs":[],"outputs":[{"name":"","type":"uint16","internalType":"uint16"}],"stateMutability":"pure"},{"type":"function","name":"lastWithdrawals","inputs":[{"name":"","type":"bytes32","internalType":"bytes32"}],"outputs":[{"name":"feeGrowthInside0X128","type":"uint256","internalType":"uint256"},{"name":"feeGrowthInside1X128","type":"uint256","internalType":"uint256"},{"name":"feesGrowthGlobal0X128","type":"uint256","internalType":"uint256"},{"name":"feesGrowthGlobal1X128","type":"uint256","internalType":"uint256"},{"name":"timestamp","type":"uint256","internalType":"uint256"}],"stateMutability":"view"},{"type":"function","name":"listAllRewards","inputs":[{"name":"user","type":"address","internalType":"address"}],"outputs":[{"name":"","type":"tuple[]","internalType":"struct Catapoolt.Reward[]","components":[{"name":"id","type":"uint256","internalType":"uint256"},{"name":"campaignId","type":"uint256","internalType":"uint256"},{"name":"user","type":"address","internalType":"address"},{"name":"amount","type":"uint256","internalType":"uint256"},{"name":"claimed","type":"bool","internalType":"bool"},{"name":"claimedAt","type":"uint256","internalType":"uint256"}]}],"stateMutability":"view"},{"type":"function","name":"listRewards","inputs":[{"name":"user","type":"address","internalType":"address"},{"name":"campaignId","type":"uint256","internalType":"uint256"}],"outputs":[{"name":"","type":"tuple","internalType":"struct Catapoolt.Reward","components":[{"name":"id","type":"uint256","internalType":"uint256"},{"name":"campaignId","type":"uint256","internalType":"uint256"},{"name":"user","type":"address","internalType":"address"},{"name":"amount","type":"uint256","internalType":"uint256"},{"name":"claimed","type":"bool","internalType":"bool"},{"name":"claimedAt","type":"uint256","internalType":"uint256"}]}],"stateMutability":"view"},{"type":"function","name":"lockAcquired","inputs":[{"name":"data","type":"bytes","internalType":"bytes"}],"outputs":[{"name":"","type":"bytes","internalType":"bytes"}],"stateMutability":"nonpayable"},{"type":"function","name":"ogMultipliers","inputs":[{"name":"","type":"address","internalType":"address"},{"name":"","type":"bytes32","internalType":"PoolId"}],"outputs":[{"name":"","type":"uint256","internalType":"uint256"}],"stateMutability":"view"},{"type":"function","name":"owner","inputs":[],"outputs":[{"name":"","type":"address","internalType":"address"}],"stateMutability":"view"},{"type":"function","name":"poolManager","inputs":[],"outputs":[{"name":"","type":"address","internalType":"contract ICLPoolManager"}],"stateMutability":"view"},{"type":"function","name":"renounceOwnership","inputs":[],"outputs":[],"stateMutability":"nonpayable"},{"type":"function","name":"rewardClaims","inputs":[{"name":"","type":"address","internalType":"address"},{"name":"","type":"uint256","internalType":"uint256"}],"outputs":[{"name":"campaignId","type":"uint256","internalType":"uint256"},{"name":"user","type":"address","internalType":"address"},{"name":"amount","type":"uint256","internalType":"uint256"},{"name":"claimedAt","type":"uint256","internalType":"uint256"}],"stateMutability":"view"},{"type":"function","name":"rewardClaimsCount","inputs":[{"name":"","type":"address","internalType":"address"}],"outputs":[{"name":"","type":"uint256","internalType":"uint256"}],"stateMutability":"view"},{"type":"function","name":"rewards","inputs":[{"name":"","type":"bytes32","internalType":"PoolId"},{"name":"","type":"address","internalType":"contract IERC20"}],"outputs":[{"name":"amountPerSecond","type":"uint256","internalType":"uint256"},{"name":"durationInSeconds","type":"uint256","internalType":"uint256"}],"stateMutability":"view"},{"type":"function","name":"setVkHash","inputs":[{"name":"_vkHash","type":"bytes32","internalType":"bytes32"}],"outputs":[],"stateMutability":"nonpayable"},{"type":"function","name":"transferOwnership","inputs":[{"name":"newOwner","type":"address","internalType":"address"}],"outputs":[],"stateMutability":"nonpayable"},{"type":"function","name":"userPositions","inputs":[{"name":"","type":"address","internalType":"address"},{"name":"","type":"uint256","internalType":"uint256"}],"outputs":[{"name":"poolId","type":"bytes32","internalType":"PoolId"},{"name":"owner","type":"address","internalType":"address"},{"name":"tickLower","type":"int24","internalType":"int24"},{"name":"tickUpper","type":"int24","internalType":"int24"},{"name":"salt","type":"bytes32","internalType":"bytes32"}],"stateMutability":"view"},{"type":"function","name":"vault","inputs":[],"outputs":[{"name":"","type":"address","internalType":"contract IVault"}],"stateMutability":"view"},{"type":"function","name":"vkHash","inputs":[],"outputs":[{"name":"","type":"bytes32","internalType":"bytes32"}],"stateMutability":"view"},{"type":"event","name":"CampaignCreated","inputs":[{"name":"id","type":"uint256","indexed":true,"internalType":"uint256"},{"name":"pool","type":"bytes32","indexed":true,"internalType":"PoolId"},{"name":"rewardAmount","type":"uint256","indexed":false,"internalType":"uint256"},{"name":"rewardToken","type":"address","indexed":false,"internalType":"address"},{"name":"startsAt","type":"uint256","indexed":false,"internalType":"uint256"},{"name":"endsAt","type":"uint256","indexed":false,"internalType":"uint256"}],"anonymous":false},{"type":"event","name":"OGProofSubmitted","inputs":[{"name":"wallet","type":"address","indexed":true,"internalType":"address"},{"name":"token","type":"address","indexed":true,"internalType":"address"},{"name":"amount","type":"uint256","indexed":false,"internalType":"uint256"}],"anonymous":false},{"type":"event","name":"OwnershipTransferred","inputs":[{"name":"previousOwner","type":"address","indexed":true,"internalType":"address"},{"name":"newOwner","type":"address","indexed":true,"internalType":"address"}],"anonymous":false},{"type":"error","name":"AddressEmptyCode","inputs":[{"name":"target","type":"address","internalType":"address"}]},{"type":"error","name":"AddressInsufficientBalance","inputs":[{"name":"account","type":"address","internalType":"address"}]},{"type":"error","name":"FailedInnerCall","inputs":[]},{"type":"error","name":"HookNotImplemented","inputs":[]},{"type":"error","name":"InvalidPool","inputs":[]},{"type":"error","name":"LockFailure","inputs":[]},{"type":"error","name":"NotPoolManager","inputs":[]},{"type":"error","name":"NotSelf","inputs":[]},{"type":"error","name":"NotVault","inputs":[]},{"type":"error","name":"OwnableInvalidOwner","inputs":[{"name":"owner","type":"address","internalType":"address"}]},{"type":"error","name":"OwnableUnauthorizedAccount","inputs":[{"name":"account","type":"address","internalType":"address"}]},{"type":"error","name":"SafeERC20FailedOperation","inputs":[{"name":"token","type":"address","internalType":"address"}]}],"bytecode":{"object":"0x60c080604052346101e357606081612d65803803809161001f82856101fa565b8339810103126101e35780516001600160a01b0381168082036101e35760208301516001600160a01b03811693908490036101e357604001516001600160a01b03811692908390036101e35760805260405163fbfa77cf60e01b815290602090829060049082905afa9081156101ef575f916101a9575b5060a052604080519081016001600160401b03811182821017610195576040526001600160401b0381526001602090910181905280546001600160481b0319166001600160411b031790555f80546001600160a01b03191691909117905533156101825760028054336001600160a01b0319821681179092556040519291906001600160a01b03167f8be0079c531659141344cd1fd0a4f28419497f9722a3daafe3b4186f6b6457e05f80a3600980546001600160a01b031916919091179055612b47908161021e82396080518181816104d90152612076015260a0518181816102630152610aa60152f35b631e4fbdf760e01b5f525f60045260245ffd5b634e487b7160e01b5f52604160045260245ffd5b90506020813d6020116101e7575b816101c4602093836101fa565b810103126101e357516001600160a01b03811681036101e3575f610096565b5f80fd5b3d91506101b7565b6040513d5f823e3d90fd5b601f909101601f19168101906001600160401b038211908210176101955760405256fe60806040526004361015610011575f80fd5b5f803560e01c8063141961bc14611c5e57806315126d3414611c3a5780631ffe6a5814611bad578063348016571461199257806338931a311461196b5780633bca02fc146118d357806344c89b65146118b65780634b6a682d146118735780634cefe0fe1461184f5780634fe840f51461183257806350c399f7146117dc5780635304d44e1461179a5780635309e33d1461153f5780635598f8cc1461147b5780635e1b4d99146113f35780636c10f1d1146113af5780636f6657cb1461132e578063715018a6146112d3578063718f6ccd146111e1578063779682c91461115e5780637859f6d91461113d57806379d6b6a2146110eb5780637aa43ce0146110c1578063851ca9d014610d2e5780638da5cb5b14610d065780639246d9c514610cce578063972e19a214610c4957806397b71c2214610bd8578063a6b0363314610b08578063ab6291fe14610a73578063ae169a501461080c578063b471ad21146107e2578063c1bde0e1146107b2578063cf3d2b1214610720578063d533c4db14610508578063dc4c90d3146104c4578063e592dc9314610433578063e8246c7f1461040f578063ed50e1da146103c2578063f2fde38b1461033c578063f961d1f414610292578063fbfa77cf1461024d5763fe70c9c9146101f3575f80fd5b3461024a5760049061020436611ff6565b505050505061023e60405161021a604082611fd5565b60128152716265666f72654164644c697175696469747960701b602082015261288f565b630a85dc2960e01b8152fd5b80fd5b503461024a578060031936011261024a576040517f00000000000000000000000000000000000000000000000000000000000000006001600160a01b03168152602090f35b34610338575f366003190112610338576040516101c081018181106001600160401b03821117610324575f916101a09160405282815282602082015282604082015260016060820152826080820152600160a08201528260c08201528260e082015282610100820152826101208201528261014082015282610160820152826101808201520152602060405160288152f35b634e487b7160e01b5f52604160045260245ffd5b5f80fd5b3461033857602036600319011261033857610355611d29565b61035d612a0c565b6001600160a01b031680156103af57600280546001600160a01b0319811683179091556001600160a01b03167f8be0079c531659141344cd1fd0a4f28419497f9722a3daafe3b4186f6b6457e05f80a3005b631e4fbdf760e01b5f525f60045260245ffd5b34610338576040366003190112610338576103db611d3f565b6004355f52600f60205260405f209060018060a01b03165f526020526040805f206001815491015482519182526020820152f35b346103385761041d36611ff6565b5050505050602060405163e8246c7f60e01b8152f35b34610338576101603660031901126103385761044d611d29565b5060c03660231901126103385760603660e319011261033857610144356001600160401b03811161033857610486903690600401611d90565b50506104b5604051610499604082611fd5565b600a81526906265666f7265537761760b41b602082015261288f565b630a85dc2960e01b5f5260045ffd5b34610338575f366003190112610338576040517f00000000000000000000000000000000000000000000000000000000000000006001600160a01b03168152602090f35b346103385761051636611ee1565b505050915060c0813603126103385760405161053181611fba565b61053a82611d55565b815261054860208301611d55565b602082015260408201356001600160a01b038116810361033857604082015260608201356001600160a01b0381168103610338576060820152608082013562ffffff811681036103385760c09260a0916080840152013560a08201522060608201356024602060018060a01b0360095416604051928380926331a9108f60e11b82528660048301525afa908115610715575f916106db575b506105f660206105ef86612881565b9501612881565b6040519361060385611f68565b8452602084019160018060a01b0316808352604085019560020b8652606085019160020b8252608085019384525f52600a60205260405f208054600160401b8110156103245761065891600182018155611eaf565b9590956106c8579351855590516001850180549451925160b81b62ffffff60b81b1662ffffff60a01b60a09490941b939093166001600160a01b039092166001600160d01b0319909516949094171717909155516002909101556040805163d533c4db60e01b81525f6020820152f35b634e487b7160e01b5f525f60045260245ffd5b90506020813d60201161070d575b816106f660209383611fd5565b810103126103385761070790612295565b846105e0565b3d91506106e9565b6040513d5f823e3d90fd5b3461033857366003190160e081126103385760a0136103385760405161074581611f68565b6004358152610752611d3f565b60208201526044358060020b81036103385760408201526064358060020b8103610338576060820152608435608082015260a4356001600160a01b0381168103610338576040916107a69160c43591612715565b82519182526020820152f35b34610338575f36600319011261033857604060015460ff8251916001600160401b0381168352831c166020820152f35b34610338576020366003190112610338576004355f52600b602052602060405f2054604051908152f35b346103385760203660031901126103385760043561082981611cf9565b506001600160a01b039060609061083f906124be565b015116606061084e8333612549565b0190815115610a38576040516370a0823160e01b8152306004820152602081602481855afa908115610715575f91610a06575b508251116109c15760205f9160448451604051948593849263a9059cbb60e01b845233600485015260248401525af1801561071557610994575b5080516108d660026108cc85611cf9565b500191825461252f565b9055519060405190608082018281106001600160401b038211176103245760405281526020810191338352604082019081526060820190428252335f52600c60205260405f208054600160401b8110156103245761093991600182018155611ec8565b9490946106c8579251845591516001840180546001600160a01b0319166001600160a01b0392909216919091179055905160028301555160039190910155335f908152600d6020526040902080546109909061249c565b9055005b6109b59060203d6020116109ba575b6109ad8183611fd5565b81019061210c565b6108bb565b503d6109a3565b60405162461bcd60e51b815260206004820152601d60248201527f496e73756666696369656e7420636f6e74726163742062616c616e63650000006044820152606490fd5b90506020813d602011610a30575b81610a2160209383611fd5565b81010312610338575184610881565b3d9150610a14565b60405162461bcd60e51b81526020600482015260136024820152724e6f207265776172647320746f20636c61696d60681b6044820152606490fd5b34610338576020366003190112610338576004356001600160401b03811161033857610aa3903690600401611d90565b907f00000000000000000000000000000000000000000000000000000000000000006001600160a01b03163303610af957610af591610ae1916126ce565b604051918291602083526020830190611f44565b0390f35b6362df054560e01b5f5260045ffd5b34610338575f36600319011261033857600354610b24816123f2565b90610b326040519283611fd5565b80825260208201908160035f527fc2575a0e9e593c00f959f8c92f12db2869c3395a3b0502d05e2516446f71f85b5f915b838310610bba578486604051918291602083019060208452518091526040830191905f5b818110610b95575050500390f35b91935091602061012082610bac6001948851611e49565b019401910191849392610b87565b60096020600192610bca856124be565b815201920192019190610b63565b346103385760403660031901126103385760c0610bff610bf6611d29565b60243590612549565b610c47604051809260a080918051845260208101516020850152600180831b036040820151166040850152606081015160608501526080810151151560808501520151910152565bf35b346103385761012036600319011261033857610c63611d29565b5060c036602319011261033857610c78611d69565b50610104356001600160401b03811161033857610c99903690600401611d90565b50506104b5604051610cac604082611fd5565b601081526f6265666f7265496e697469616c697a6560801b602082015261288f565b34610338576020366003190112610338576001600160a01b03610cef611d29565b165f52600d602052602060405f2054604051908152f35b34610338575f366003190112610338576002546040516001600160a01b039091168152602090f35b3461033857610100366003190112610338576044356001600160a01b03811690602435906004359083810361033857606435926084359160c4356001600160a01b038116929083900361033857861561107c578584111561102d578015610fd857610ddc5f8060405160208101906323b872dd60e01b825233602482015230604482015285606482015260648152610dc7608482611fd5565b5190828c5af1610dd561269f565b9089612ab3565b8051908115159182610fbd575b5050610faa576004549560405194610e0086611f83565b8786526020860191878352604087019584875260608801978b8952608081019b838d5260a082019285845260c0830160a435815260e0840191825261010084019260e4358452610e50878961252f565b908115610f9657818f92916001928d049360405194610e6e86611f9f565b8552602085019283525f52600f60205260405f2090838060a01b03165f5260205260405f209251835551910155600354600160401b81101561032457806001610eba9201600355611cf9565b9590956106c85793518555965160018501559851600284015598516003830180546001600160a01b03199081166001600160a01b03938416179091559c51600484015590516005830155935160068201559551600787018054909b169084161790995594516008909401939093555f858152600b60209081526040918290208890558151928352929093168183015291820195909552606081019190915282907f3f1409f785e0e4dbb192a711559a3ce534f2ff9a446f939875de41c66ee4a7eb90608090a3610f8b60045461249c565b600455604051908152f35b634e487b7160e01b5f52601260045260245ffd5b86635274afe760e01b5f5260045260245ffd5b610fd0925060208091830101910161210c565b158880610de9565b60405162461bcd60e51b815260206004820152602760248201527f52657761726420616d6f756e74206d7573742062652067726561746572207468604482015266616e207a65726f60c81b6064820152608490fd5b60405162461bcd60e51b815260206004820152602160248201527f456e642074696d65206d7573742062652061667465722073746172742074696d6044820152606560f81b6064820152608490fd5b60405162461bcd60e51b815260206004820152601c60248201527f496e76616c69642072657761726420746f6b656e2061646472657373000000006044820152606490fd5b346103385760406110d136611ee1565b5050925050508151906303d521e760e51b82526020820152f35b34610338576040366003190112610338576024356001600160401b0381116103385761111e61113b913690600401611d90565b9061113360018060a01b035f54163314612258565b60043561290d565b005b3461033857602036600319011261033857611156612a0c565b600435600555005b3461033857604036600319011261033857611177611d29565b6001600160a01b03165f908152600c60205260409020805460243590811015610338576111a391611ec8565b50805460018201546002830154600390930154604080519384526001600160a01b039092166020840152908201929092526060810191909152608090f35b346103385760a0366003190112610338576024356001600160401b038116809103610338576064356084356001600160401b0381116103385760c49261122d6020923690600401611d90565b9290916112386128dd565b96909160018060a01b035f541660ff604051998a95869463054eee2f60e41b8652600435600487015260248601528a6044860152604435606486015260848501521660a48301525afa918215610715576112a06112a79361113b965f916112b4575b50612148565b36916121dd565b6020815191012014612213565b6112cd915060203d6020116109ba576109ad8183611fd5565b8761129a565b34610338575f366003190112610338576112eb612a0c565b600280546001600160a01b031981169091555f906001600160a01b03167f8be0079c531659141344cd1fd0a4f28419497f9722a3daafe3b4186f6b6457e08280a3005b346103385761018036600319011261033857611348611d29565b5060c03660231901126103385760603660e319011261033857610164356001600160401b03811161033857611381903690600401611d90565b50506104b5604051611394604082611fd5565b600981526806166746572537761760bc1b602082015261288f565b34610338576040366003190112610338576001600160a01b036113d0611d29565b165f52600860205260405f206024355f52602052602060405f2054604051908152f35b346103385760403660031901126103385761140c611d29565b6001600160a01b03165f908152600a60205260409020805460243591908210156103385760a09161143c91611eaf565b508054906002600182015491015490604051928352600180851b038116602084015280841c60020b604084015260b81c60020b60608301526080820152f35b34610338576020366003190112610338576004355f61010060405161149f81611f83565b8281528260208201528260408201528260608201528260808201528260a08201528260c08201528260e082015201526003548110156114fa576114ed6114e761012092611cf9565b506124be565b610c476040518092611e49565b60405162461bcd60e51b815260206004820152601760248201527f43616d706169676e20646f6573206e6f742065786973740000000000000000006044820152606490fd5b3461033857602036600319011261033857611558611d29565b60018060a01b0381165f52600a60205260405f20908154611578816123f2565b926115866040519485611fd5565b81845260208401905f5260205f205f915b83831061174457858581516115ab816123f2565b906115b96040519283611fd5565b8082526115c8601f19916123f2565b013660208301375f6115da8451612439565b5f5b855181101561167a576115ef8187612488565b51515f52600b60205260405f20545f805b858110611657575b5015611618575b506001016115dc565b83611635826116509361162e600196988a612488565b5288612549565b61163f8286612488565b5261164a8185612488565b5061249c565b929061160f565b826116628289612488565b511461167057600101611600565b5050600188611608565b509061168581612439565b915f5b82811061171a57836040518091602082016020835281518091526020604084019201905f5b8181106116bb575050500390f35b91935091602060c08261170c600194885160a080918051845260208101516020850152600180831b036040820151166040850152606081015160608501526080810151151560808501520151910152565b0194019101918493926116ad565b8061172760019284612488565b516117328287612488565b5261173d8186612488565b5001611688565b6003602060019260405161175781611f68565b8554815284860154858060a01b038116848301528060a01c60020b604083015260b81c60020b606082015260028601546080820152815201920192019190611597565b34610338576117a836611ded565b5050505050506104b56040516117bf604082611fd5565b600b81526a6166746572446f6e61746560a81b602082015261288f565b34610338576020366003190112610338576004355f52600e60205260a060405f20805490600181015490600281015460046003830154920154926040519485526020850152604084015260608301526080820152f35b34610338575f366003190112610338576020600554604051908152f35b346103385760603660031901126103385760406107a66044356024356004356122b7565b346103385761188136611ded565b5050505050506104b5604051611898604082611fd5565b600c81526b6265666f7265446f6e61746560a01b602082015261288f565b34610338575f366003190112610338576020600454604051908152f35b34610338576040366003190112610338576004356001600160401b03811161033857611903903690600401611dbd565b6024356001600160401b03811161033857611922903690600401611dbd565b9061193760018060a01b035f54163314612258565b5f5b83811061194257005b80611965611953600193878961218c565b3561195f83878761219c565b9161290d565b01611939565b34610338575f366003190112610338575f546040516001600160a01b039091168152602090f35b346103385760a0366003190112610338576004356001600160401b038111610338576119c2903690600401611dbd565b6024356001600160401b038111610338576119e1903690600401611dbd565b906044356001600160401b03811161033857611a01903690600401611dbd565b9290916064356001600160401b03811161033857611a23903690600401611dbd565b96608435906001600160401b038211610338576004888792611a8a8a8799988e611a5260c09936908901611dbd565b9c909b6020611a5f6128dd565b97909860018060a01b035f54169a6040519e8f9d8e63a90f4bd760e01b8152015260c48d0191612124565b8a81036003190160248c01528281520193905f905b808210611b6e57505050602098889694611acd60ff95899895611adf956003198b84030160448c0152612124565b87810360031901606489015291612124565b9260848501521660a483015203915afa801561071557611b05915f91611b4f5750612148565b5f5b868110611b1057005b80611b30611b216001938b8661218c565b356112a76112a084898961219c565b611b3b81888861218c565b50611b4781868661219c565b505001611b07565b611b68915060203d6020116109ba576109ad8183611fd5565b8961129a565b95509597995095975050508335906001600160401b038216809203610338576020816001938293520194019201928e898d9896948f94968b9997611a9f565b346103385761014036600319011261033857611bc7611d29565b5060c036602319011261033857611bdc611d69565b50611be5611d7f565b50610124356001600160401b03811161033857611c06903690600401611d90565b50506104b5604051611c19604082611fd5565b600f81526e6166746572496e697469616c697a6560881b602082015261288f565b346103385760603660031901126103385760406107a6604435602435600435612055565b346103385760203660031901126103385760043560035481101561033857611c8861012091611cf9565b50805490600181015490600281015460018060a01b036003830154166004830154600584015491600685015493600860018060a01b0360078801541696015496604051988952602089015260408801526060870152608086015260a085015260c084015260e0830152610100820152f35b600354811015611d155760035f52600960205f20910201905f90565b634e487b7160e01b5f52603260045260245ffd5b600435906001600160a01b038216820361033857565b602435906001600160a01b038216820361033857565b35906001600160a01b038216820361033857565b60e435906001600160a01b038216820361033857565b61010435908160020b820361033857565b9181601f84011215610338578235916001600160401b038311610338576020838186019501011161033857565b9181601f84011215610338578235916001600160401b038311610338576020808501948460051b01011161033857565b610140600319820112610338576004356001600160a01b0381168103610338579160c06023198301126103385760249160e43591610104359161012435906001600160401b03821161033857611e4591600401611d90565b9091565b610100809180518452602081015160208501526040810151604085015260018060a01b0360608201511660608501526080810151608085015260a081015160a085015260c081015160c085015260018060a01b0360e08201511660e08501520151910152565b8054821015611d15575f52600360205f20910201905f90565b8054821015611d15575f5260205f209060021b01905f90565b6101a0600319820112610338576004356001600160a01b0381168103610338579160c060231983011261033857602491608060e3198201126103385760e491610164359161018435906001600160401b03821161033857611e4591600401611d90565b805180835260209291819084018484015e5f828201840152601f01601f1916010190565b60a081019081106001600160401b0382111761032457604052565b61012081019081106001600160401b0382111761032457604052565b604081019081106001600160401b0382111761032457604052565b60c081019081106001600160401b0382111761032457604052565b90601f801991011681019081106001600160401b0382111761032457604052565b90610180600319830112610338576004356001600160a01b0381168103610338579160c060231982011261033857602491608060e3198301126103385760e49161016435906001600160401b03821161033857611e4591600401611d90565b604080516313d8a71960e31b815260048101929092529093929190846024817f00000000000000000000000000000000000000000000000000000000000000006001600160a01b03165afa938415610715575f905f956120b7575b5003920390565b9450506040843d6040116120e9575b816120d360409383611fd5565b810103126103385760208451940151935f6120b0565b3d91506120c6565b6001600160401b03811161032457601f01601f191660200190565b90816020910312610338575180151581036103385790565b81835290916001600160fb1b0383116103385760209260051b809284830137010190565b1561214f57565b60405162461bcd60e51b815260206004820152601560248201527464617461206e6f7420726561647920746f2075736560581b6044820152606490fd5b9190811015611d155760051b0190565b9190811015611d155760051b81013590601e19813603018212156103385701908135916001600160401b038311610338576020018236038113610338579190565b9291926121e9826120f1565b916121f76040519384611fd5565b829481845281830111610338578281602093845f960137010152565b1561221a57565b60405162461bcd60e51b81526020600482015260166024820152751a5b9d985b1a590818da5c98dd5a5d081bdd5d1c1d5d60521b6044820152606490fd5b1561225f57565b60405162461bcd60e51b815260206004820152600e60248201526d34b73b30b634b21031b0b63632b960911b6044820152606490fd5b51906001600160a01b038216820361033857565b51908160020b820361033857565b92919061016060018060a01b03600954169460246040518097819363133f757160e31b835260048301525afa938415610715575f905f956122f9575003920390565b945050836101603d81116123eb575b6123128183611fd5565b81010361016081126103385760c0136103385760405161233181611fba565b61233a85612295565b815261234860208601612295565b602082015260408501516001600160a01b038116810361033857604082015260608501516001600160a01b0381168103610338576060820152608085015162ffffff8116810361033857608082015260a0808601519101526123ac60c085016122a9565b506123b960e085016122a9565b506101008401516fffffffffffffffffffffffffffffffff81160361033857610140610120850151940151935f6120b0565b503d612308565b6001600160401b0381116103245760051b60200190565b6040519061241682611fba565b5f60a0838281528260208201528260408201528260608201528260808201520152565b90612443826123f2565b6124506040519182611fd5565b8281528092612461601f19916123f2565b01905f5b82811061247157505050565b60209061247c612409565b82828501015201612465565b8051821015611d155760209160051b010190565b5f1981146124aa5760010190565b634e487b7160e01b5f52601160045260245ffd5b906040516124cb81611f83565b82548152600183015460208201526002830154604082015260038301546001600160a01b03908116606083015260048401546080830152600584015460a0830152600684015460c083015260078401541660e0820152600890920154610100830152565b919082039182116124aa57565b919082018092116124aa57565b612551612409565b506001600160a01b03165f818152600a60205260409020805491929091612577816123f2565b926125856040519485611fd5565b81845260208401905f5260205f205f915b83831061264957505050505f905f5b8351811015612617576125b88185612488565b51515f52600b6020528160405f2054146125d5575b6001016125a5565b9161260f600191612609612609856125ec81611cf9565b506003878060a01b0391015416612603898b612488565b51612715565b9061253c565b9290506125cd565b506040519391925061262884611fba565b5f84526020840152604083015260608201525f60808201525f60a082015290565b6003602060019260405161265c81611f68565b8554815284860154858060a01b038116848301528060a01c60020b604083015260b81c60020b606082015260028601546080820152815201920192019190612596565b3d156126c9573d906126b0826120f1565b916126be6040519384611fd5565b82523d5f602084013e565b606090565b5f9182918160405192839283378101838152039082305af1906126ef61269f565b91612713575080511561270457602081519101fd5b6314815f4760e31b5f5260045ffd5b565b909291815191602081015192604082015193606083015194608084019586519160405193602085019586526bffffffffffffffffffffffff199060601b16604085015260e81b605484015260e81b6057830152605a820152605a815261277c607a82611fd5565b5190205f52600e60205260405f20906040519561279887611f68565b825480885260018401548060208a015260028501549660408a0197885260038601549560608b019687526004015499608001998a5251916127d8926122b7565b959093835191519051906127eb92612055565b94909751906127f990611cf9565b506004015461281391908082111561287a57505b4261252f565b91515f52600f60205260405f209060018060a01b03165f5260205260405f2054908181029181830414901517156124aa5760011c94858161286c575050505f5b9381612860575050505f90565b61286992612a33565b90565b61287592612a33565b612853565b905061280d565b358060020b81036103385790565b5f80916040516128ca816128bc602082019463104c13eb60e21b8652602060248401526044830190611f44565b03601f198101835282611fd5565b51906a636f6e736f6c652e6c6f675afa50565b6020906040516128ec81611f9f565b6001549060ff6001600160401b0383169283835260401c1693849101529190565b600554036129da578160141161033857803560601c906028831061033857601481013560601c92604811610338576028013582827f0b419c8e88706e335c47ef53387007f9bcb19126b13d9a36c48d050b20137c576020604051858152a35f5b835f52600760205260405f20548110156129d457600190845f5260066020526129998160405f20611ec8565b50828101548410156129ad575b500161296d565b600381015490855f526008602052600260405f209101545f5260205260405f20555f6129a6565b50505050565b60405162461bcd60e51b815260206004820152600a602482015269696e76616c696420766b60b01b6044820152606490fd5b6002546001600160a01b03163303612a2057565b63118cdaa760e01b5f523360045260245ffd5b91818302915f19818509938380861095039480860395868511156103385714612aab579082910981805f03168092046002816003021880820260020302808202600203028082026002030280820260020302808202600203028091026002030293600183805f03040190848311900302920304170290565b505091500490565b90612ad75750805115612ac857805190602001fd5b630a12f52160e11b5f5260045ffd5b81511580612b08575b612ae8575090565b639996b31560e01b5f9081526001600160a01b0391909116600452602490fd5b50803b15612ae056fea2646970667358221220afa7f21fdfabd129ab2b11f7b64265bd7592fdec974fbd41c35b8c7601ca919e64736f6c634300081a0033","linkReferences":{}},"methodIdentifiers":{"afterAddLiquidity(address,(address,address,address,address,uint24,bytes32),(int24,int24,int256,bytes32),int256,bytes)":"d533c4db","afterDonate(address,(address,address,address,address,uint24,bytes32),uint256,uint256,bytes)":"5304d44e","afterInitialize(address,(address,address,address,address,uint24,bytes32),uint160,int24,bytes)":"1ffe6a58","afterRemoveLiquidity(address,(address,address,address,address,uint24,bytes32),(int24,int24,int256,bytes32),int256,bytes)":"7aa43ce0","afterSwap(address,(address,address,address,address,uint24,bytes32),(bool,int256,uint160),int256,bytes)":"6f6657cb","applyBrevisOpResult(bytes32,uint64,bytes32,bytes32,bytes)":"718f6ccd","applyBrevisOpResults(bytes32[],uint64[],bytes32[],bytes32[],bytes[])":"34801657","beforeAddLiquidity(address,(address,address,address,address,uint24,bytes32),(int24,int24,int256,bytes32),bytes)":"fe70c9c9","beforeDonate(address,(address,address,address,address,uint24,bytes32),uint256,uint256,bytes)":"4b6a682d","beforeInitialize(address,(address,address,address,address,uint24,bytes32),uint160,bytes)":"972e19a2","beforeRemoveLiquidity(address,(address,address,address,address,uint24,bytes32),(int24,int24,int256,bytes32),bytes)":"e8246c7f","beforeSwap(address,(address,address,address,address,uint24,bytes32),(bool,int256,uint160),bytes)":"e592dc93","brevisBatchCallback(bytes32[],bytes[])":"3bca02fc","brevisCallback(bytes32,bytes)":"79d6b6a2","brevisOpConfig()":"c1bde0e1","brevisRequest()":"38931a31","calculateRewards((bytes32,address,int24,int24,bytes32),address,uint256)":"cf3d2b12","campaignIds(bytes32)":"b471ad21","campaigns(uint256)":"141961bc","campaignsCount()":"44c89b65","claimReward(uint256)":"ae169a50","createCampaign(bytes32,uint256,address,uint256,uint256,uint256,address,uint256)":"851ca9d0","getCampaign(uint256)":"5598f8cc","getCampaigns()":"a6b03633","getFeesAccrued(bytes32,uint256,uint256)":"4cefe0fe","getFeesAccruedGlobal(bytes32,uint256,uint256)":"15126d34","getHooksRegistrationBitmap()":"f961d1f4","lastWithdrawals(bytes32)":"50c399f7","listAllRewards(address)":"5309e33d","listRewards(address,uint256)":"97b71c22","lockAcquired(bytes)":"ab6291fe","ogMultipliers(address,bytes32)":"6c10f1d1","owner()":"8da5cb5b","poolManager()":"dc4c90d3","renounceOwnership()":"715018a6","rewardClaims(address,uint256)":"779682c9","rewardClaimsCount(address)":"9246d9c5","rewards(bytes32,address)":"ed50e1da","setVkHash(bytes32)":"7859f6d9","transferOwnership(address)":"f2fde38b","userPositions(address,uint256)":"5e1b4d99","vault()":"fbfa77cf","vkHash()":"4fe840f5"},"id":125}